:1000000000200020A90D0000ED0D0000ED0D000006
:1000100000000000000000000000000000000000E0
:10002000000000000000000000000000ED0D0000D6
:100030000000000000000000ED0D0000ED0D0000CC
:10004000ED0D0000ED0D0000ED0D0000ED0D0000C8
:10005000ED0D000005070000ED0D0000ED0D0000A6
:10006000ED0D0000ED0D0000ED0D0000ED0D0000A8
:10007000ED0D0000ED0D0000ED0D0000ED0D000098
:10008000ED0D0000ED0D000000000000ED0D000082
:10009000ED0D0000ED0D0000ED0D0000ED0D000078
:1000A000ED0D0000ED0D0000ED0D0000ED0D000068
:1000B000ED0D000000000000ED0D0000000000004C
:1000C0005FF808F180B588B000AF78600023FB616D
:1000D0000023BB6100237B6100233B610023FB60A5
:1000E0006C4B5B681A1C0C231340FB61FB69042BEF
:1000F00007D0082B09D0002B33D17B68664A1A60E1
:1001000033E07B68644A1A602FE0624B5B681A1C1C
:10011000F0239B031340BB615E4B5B681A1C80237A
:100120005B0213407B61BB699B0C0233BB617B6943
:10013000002B05D1BB69594A5A437B681A6014E009
:10014000544BDB6A1A1C0F23134001333B615248A6
:10015000396901F033F9031CBA695A437B681A60A4
:1001600003E07B684C4A1A60C0464A4B5B681A1C25
:10017000F0231340FB61FB691B09FB61484AFB69E3
:10018000D3181B78DBB2FB607B681A68FB68DA4027
:100190007B685A603F4B5B681A1CE023DB0013400E
:1001A000FB61FB691B0AFB613D4AFB69D3181B78A5
:1001B000DBB2FB607B685A68FB68DA407B689A6058
:1001C000344B1B6B1A1C80235B00134003D17B68EC
:1001D000344ADA6011E02F4B5B681A1C8023DB0184
:1001E000134005D17B689B685A087B68DA6004E09D
:1001F0007B689B689A087B68DA60264B1B6B1A1C2D
:100200004023134003D17B68274A1A6103E07B68CF
:10021000802212021A611F4B1B6B1A1C1023134001
:1002200003D17B681C4A5A6103E07B681A687B68CB
:100230005A61184B1B6B1A1C0323134004D17B68B3
:100240009A687B689A6121E0124B1B6B1A1C03238E
:100250001340012B04D17B681A687B689A6115E012
:100260000C4B1B6B1A1C03231340022B04D17B681D
:10027000802212029A6109E0064B1B6B1A1C0323B1
:100280001340032B02D17B68034A9A61BD4608B034
:1002900080BDC0460010024000127A0000093D00F7
:1002A00000000020809FD5001280000080B582B041
:1002B00000AF78600A1CFB1C1A70FB1C1B78002B1B
:1002C00007D0094B084A5269111C7A680A435A61DF
:1002D00006E0054B044A52697968C9430A405A61ED
:1002E000BD4602B080BDC0460010024080B582B05D
:1002F00000AF78600A1CFB1C1A70FB1C1B78002BDB
:1003000007D0094B084A9269111C7A680A439A611E
:1003100006E0054B044A92697968C9430A409A612C
:10032000BD4602B080BDC0460010024080B582B01C
:1003300000AF7860024B7A681A60BD4602B080BD9B
:100340001000002090B583B000AF114B1B78DBB2DA
:10035000002B19D0FC1D0F4B181C00F009FC031CCE
:100360002370FB1D1B78002B0BD00B4B1B68002B45
:1003700007D0094B1B680749FA1D1278081C111C8D
:100380009847034B00221A70BD4603B090BDC0468B
:1003900014000020180000201000002090B583B049
:1003A00000AF021CFB1D1A7000243CE0FB1D1B78F3
:1003B0005BB2002B09DA204B1F4A928A92B280214D
:1003C000C9000A4392B29A8207E01B4B1A4A928AEA
:1003D00091B21A4A0A4092B29A82FB1DFA1D127813
:1003E00052001A70144B1B8A9BB21A1C80231B01EB
:1003F000134005D0FB1DFA1D127801210A431A7023
:100400000D4B0D4A928A92B2802149010A4392B261
:100410009A82094B084A928A91B2094A0A4092B2DA
:100420009A82631CDCB2072CC0D9FB1D1B78181CF8
:10043000BD4603B090BDC04600040048FFFBFFFF6F
:10044000FFEFFFFF80B582B000AF0A1CFB1D011C4F
:100450001970BB1D1A700F4B0E4A928A91B20E4A48
:100460000A4092B29A82FB1D1B78181CFFF796FF78
:10047000BB1D1B78181CFFF791FF064B054A928A9B
:1004800092B2802189000A4392B29A82BD4602B09C
:1004900080BDC04600040048FFFDFFFF90B585B059
:1004A00000AF021CFB1D1A70114B114A928A91B2C7
:1004B000104A0A4092B29A82FB1D1B78181CFFF763
:1004C0006DFF3C1C0F340020FFF768FF031C2370F6
:1004D000074B074A928A92B2802189000A4392B25E
:1004E0009A823B1C0F331B78181CBD4605B090BD8B
:1004F00000040048FFFDFFFF90B585B000AF3960F4
:10050000FB1D011C1970BB1D1A701D4B1C4A928AE1
:1005100091B21C4A0A4092B29A823C1C0E34FB1DD6
:100520001B78181CFFF73AFF031C23703B1C0F338A
:1005300000221A7010E03B1C0F331B783A68D41865
:100540000020FFF72BFF031C23703B1C0F333A1CCA
:100550000F32127801321A703A1C0F32BB1D12781A
:100560001B789A42E7D3064B054A928A92B28021C1
:1005700089000A4392B29A82BD4605B090BDC0463A
:1005800000040048FFFDFFFF80B584B000AF396074
:10059000FB1D011C1970BB1D1A701A4B194A928A57
:1005A00091B2194A0A4092B29A82FB1D1B78181C1C
:1005B000FFF7F4FE3B1C0F3300221A700EE03B687D
:1005C0001B783A6801323A60181CFFF7E7FE3B1CC3
:1005D0000F333A1C0F32127801321A703A1C0F3264
:1005E000BB1D12781B789A42E9D3064B054A928AC2
:1005F00092B2802189000A4392B29A82BD4604B029
:1006000080BDC04600040048FFFDFFFF90B583B0E9
:1006100000AFE2200021FFF715FFFC1D0720FFF7C8
:100620003DFF031C2370FB1D1B782720191CFFF7BF
:1006300009FF134B124A928A91B2124A0A4092B2AF
:100640009A82FC1D0020FFF729FF031C2370FB1D6D
:10065000FA1D127801210A431A70FB1D1B78202015
:10066000191CFFF7EFFE064B054A928A92B28021D1
:1006700049000A4392B29A82BD4603B090BDC0467B
:1006800000040048FFFEFFFF90B585B000AF021CDC
:10069000FB1D1A703C1C0F340720FFF7FFFE031CE4
:1006A00023703B1C0F333A1C0F3212787F218A4390
:1006B0001A703B1C0F331B78002B03D0FB1D1B78DB
:1006C000002B08D03B1C0F331B78002B07D1FB1DE0
:1006D0001B78002B03D050205321FFF7B3FEBD46FB
:1006E00005B090BD80B582B000AF021CFB1D1A7032
:1006F000FB1D1B782520191CFFF7A4FEBD4602B088
:1007000080BDC04698B500AF0D4B5B691A1C012334
:100710001340DBB2002B11D00720FFF7BFFE031CF4
:100720001C1C221C4023134002D0064B01221A70CD
:10073000034B034A526901210A435A61BD4698BDE1
:10074000000401401400002090B587B000AF00F015
:1007500063FA8023DB02181C0121FFF7A7FDD04BB1
:10076000CF4A1268CF490A431A60CD4BCC4A9268EF
:10077000CD490A439A60CA4BC94A928A92B28021F3
:1007800089000A4392B29A82C54BC54A928A91B2B5
:10079000C64A0A4092B29A823B1C143300221A8045
:1007A00006E03B1C14333A1C1432128801321A80C2
:1007B0003B1C14331A88BE4B9A42F2D90020FFF733
:1007C00063FF3B1C173300221A701CE03B1C1733DD
:1007D0001A78B84B5200D35C20221343DAB23B1C88
:1007E00017331978B348012349004118CB181B78F7
:1007F000101C191CFFF726FE3B1C17333A1C17323E
:10080000127801321A703B1C17331B78132BDDD979
:100810003B1C163300221A7010E03B1C16331B7869
:100820003A1C16321278A449895C3A1DD1543B1CFB
:1008300016333A1C1632127801321A703B1C1633EA
:100840001B78042BE9D93B1D2A20191C0522FFF730
:100850009BFE3B1C163300221A7010E03B1C163323
:100860001B783A1C163212789449895C3A1DD1548F
:100870003B1C16333A1C1632127801321A703B1C9C
:1008800016331B78042BE9D93B1D2B20191C05229C
:10089000FFF77AFE3B1C163300221A7010E03B1C57
:1008A00016331B783A1C163212788349895C3A1D3C
:1008B000D1543B1C16333A1C1632127801321A708E
:1008C0003B1C16331B78042BE9D93B1D3020191C27
:1008D0000522FFF759FE3C1C17341D20FFF7DEFDF3
:1008E000031C23703B1C17331B78002B03D15020B3
:1008F0007321FFF7A7FD3B1C173316221A701CE06B
:100900003B1C17331A786B4B5200D35C20221343E5
:10091000DAB23B1C173319786648012349004118A5
:10092000CB181B78101C191CFFF78CFD3B1C1733D0
:100930003A1C17321278013A1A703B1C17331B7895
:10094000142BDDD80120FFF79FFE3B1C173300223C
:100950001A7036E03B1C163300221A7019E03B1C5B
:1009600016331B783A1C17321178554A890089587A
:100970003A1C16321278D200081CD040021CD1B2A8
:100980003A1DD1543B1C16333A1C163212780132F0
:100990001A703B1C16331B78032BE0D93B1C173312
:1009A0001B7820221343DAB23B1D101C191C0422B1
:1009B000FFF7EAFD3B1C17333A1C1732127801325D
:1009C0001A703B1C17331B78082BC3D93B1C1733F9
:1009D00009221A7038E03B1C163300221A701BE003
:1009E0003B1C16331B783A1C17321178344A8900A5
:1009F00089583A1C163212780320821AD200081C39
:100A0000D040021CD1B23A1DD1543B1C16333A1CC3
:100A10001632127801321A703B1C16331B78032BE6
:100A2000DED93B1C17331B7820221343DAB23B1D5F
:100A3000101C191C0422FFF7A7FD3B1C17333A1C9E
:100A40001732127801321A703B1C17331B780D2BAA
:100A5000C1D93B1C163300221A7010E03B1C163320
:100A60001B783A1C163212781649895C3A1DD1540B
:100A70003B1C16333A1C1632127801321A703B1C9A
:100A800016331B780A2BE9D93B1D2E20191C0B228B
:100A9000FFF77AFD3B1C163300221A702AE0C0468D
:100AA000000400480000150100003F03FFEAFFFFBB
:100AB000E7FD0000A0140000D0140000D8140000CE
:100AC0005C140000941400003B1C16331A78264B6B
:100AD00019693B1C16331B78DB00081CD840031C2B
:100AE000D9B23B1D99543B1C16333A1C163212786E
:100AF00001321A703B1C16331B78032BE4D93B1DC3
:100B00001B7806221343DAB23B1D1A703B1D2420CA
:100B1000191C0422FFF738FD3B1D1B780622934366
:100B2000DAB23B1D1A703B1D2420191C0422FFF76A
:100B30002BFD3B1C123300221A8006E03B1C1233B3
:100B40003A1C1232128801321A803B1C12331A8866
:100B5000064B9A42F2D90020FFF796FDFFF756FDAB
:100B6000BD4607B090BDC0465C1400003F9C00002D
:100B700090B587B000AF78603B1C173300221A7025
:100B80007B683B613C1C0F340720FFF787FC031C8C
:100B900023703C1C0E346020FFF780FC031C237084
:100BA0003B1C0E331B78202B0FD87A683B1C0E336E
:100BB0001B786120111C1A1CFFF79EFC3B1C17338D
:100BC0003A1C0E3212781A7003E0E2200021FFF77F
:100BD00039FC3C1C0D341720FFF760FC031C23700C
:100BE0003B1C0D331A7801231340D2D03B1C173322
:100BF0001B783A69D31800221A703B1C0F331B78FC
:100C00002720191CFFF71EFC3B1C17331B78181CF0
:100C1000BD4607B090BDC04680B582B000AF164B50
:100C2000154A52698021C9020A435A61124B124A7D
:100C3000926901210A439A61104B0122DA60104B3C
:100C40000F4A126801210A431A600D4B0C4AD26800
:100C500001210A43DA603B1D05221A703B1D002268
:100C60005A703B1D01229A703B1D181C00F0ECFAD3
:100C7000BD4602B080BDC0460010024000000140E9
:100C80000004014090B58DB000AF3B1C1C4A13CA54
:100C900013C313CA13C313CA13C303CA03C31278FB
:100CA0001A7080231B03181C0121FFF7FFFA154B54
:100CB000144A1268802149020A431A60114B114AF2
:100CC0009268C02189020A439A600E4B0D4A928AAB
:100CD00092B2802149000A4392B29A8200F00AFB44
:100CE000FFF732FD2920FFF7FDFC074B181CFFF72B
:100CF0001DFB3B1C181C00F023F8FFF723FBFCE74F
:100D0000E0140000000800480D0D000080B582B01E
:100D100000AF78600A1CFB1C1A70084B074A928AC5
:100D200092B2802149004A4092B29A827B68181C94
:100D300000F006F8BD4602B080BDC046000800487D
:100D400080B584B000AF786019E03B1C0F330022FF
:100D50001A7006E03B1C0F333A1C0F321278013236
:100D60001A703B1C0F331B78FF2BF3D13B1C0E3347
:100D70001B789BB20B4A101C191C00F0F5F93B1CA8
:100D80000E337A6812781A703B1C0E331B785A1E89
:100D90009341DBB27A6801327A60002BD5D1BD462F
:100DA00004B080BD00380140002103E00A4B5B58CD
:100DB0004350043109480A4B42189A42F6D3094A73
:100DC00002E0002313600432074B9A42F9D300F08B
:100DD000DDF9FFF757FF70471015000000000020F5
:100DE00010000020100000203C000020FEE7000062
:100DF00080B586B000AF7860396000237B61002346
:100E00003B610023FB6000237B6188E07B6901225A
:100E1000101C9840031C3B613B681B683A691340F7
:100E2000FB60FA683B699A4276D13B681B79012BDB
:100E300003D03B681B79022B39D17B689B687A69A8
:100E400052000321081C9040021CD2431A407B68C8
:100E50009A607B689B681A1C3B685B79191C7B69EC
:100E60005B00081C9840031C1A437B689A607B68EF
:100E70009B889BB27A6992B20121081C9040021CA7
:100E800092B2D24392B213409AB27B689A807B6846
:100E90009B889AB23B689B79191C7B699BB2081CA2
:100EA0009840031C9BB213439AB27B689A807B687C
:100EB0001B687A6952000321081C9040021CD2432F
:100EC0001A407B681A607B681B681A1C3B681B7998
:100ED000191C7B695B00081C9840031C1A437B6843
:100EE0001A607B68DB687A6992B252000321081CA1
:100EF0009040021CD2431A407B68DA607B68DB6852
:100F00001A1C3B68DB79191C7B695B00081C984044
:100F1000031C1A437B68DA607B6901337B617B6960
:100F20000F2B00D872E7BD4606B080BD90B585B0E6
:100F300000AF7860BB1C19807B1C1A700023FB601B
:100F40000023BB607B1C1A78BB1C198807230B404D
:100F50009B00111C99400B1CFB60BB1C1B88DB0811
:100F60009BB21A1CBB1C1B88DB089BB2191C7B683C
:100F700008318900CB58B91C088807210140890035
:100F80000F20041C8C40211CC94319407B68083287
:100F90009200D150BB1C1B88DB089BB21A1C7B68DB
:100FA00008329200D3581A1CFB681343BB60BB1C69
:100FB0001B88DB089BB21A1C7B6808329200B96858
:100FC000D150BD4605B090BD80B58CB000AF786003
:100FD00039600023FB620023BB6200237B627B68D5
:100FE0001B680122191C91430A1C7B681A607B68EC
:100FF0005B687B627A6A484B13407B623B689B6804
:101000007A6A13437B627B687A6A5A607B681B68E2
:101010007B627A6A414B13407B623B685A683B684B
:10102000DB681A433B681B6913437A6A13437B628C
:101030007B687A6A1A607B689B687B627A6A384B45
:1010400013407B623B685B697A6A13437B627B680F
:101050007A6A9A603B1C0833181CFFF733F87A68E9
:10106000304B9A4204D13B1C08339B69BB6203E0BE
:101070003B1C08339B68BB627B681B681A1C80237F
:101080001B02134014D0BB6A5A003B681B68101C3B
:10109000191C00F093F9031CFB62BB6A5A003B6801
:1010A0001B68101C191C00F0CDF90B1C7B6210E0B2
:1010B0003B681B68B86A191C00F080F9031CFB62CE
:1010C0003B681B68BA6A101C191C00F0BBF90B1CAA
:1010D0007B623B681B685A087B6A9A4202D8FB6AAB
:1010E0000133FB627B681B681A1C80231B021340C0
:1010F0000AD0FA6A0F2313405B087B62FA6A0A4B34
:101100001A407B6A1343FB62FB6A9AB27B689A813E
:10111000BD460CB080BDC046FFCFFFFFF3E9FFFF27
:10112000FFFCFFFF00380140F0FF000080B582B0F7
:1011300000AF78600A1CFB1C1A70FB1C1B78002B8C
:1011400006D07B681B6801221A437B681A6007E09F
:101150007B681B680122191C91430A1C7B681A607A
:10116000BD4602B080BDC04680B582B000AF786099
:101170000A1CBB1C1A80BB1C1B88DB05DB0D9AB24A
:101180007B681A85BD4602B080BDC04680B500AF01
:101190001D4B1D4A126801210A431A601A4B1A4A54
:1011A0005268111C194A0A405A60174B164A1268B5
:1011B000111C174A0A401A60134B134A1268111C7B
:1011C000144A0A401A60104B0F4A5268111C124A06
:1011D0000A405A600C4B0C4AD26A0F218A43DA62E9
:1011E000094B094A126B111C0C4A0A401A63064B40
:1011F000054A526B01218A435A63034B00229A60CD
:1012000000F00EF8BD4680BD001002400CB8FFF89B
:10121000FFFFF6FEFFFFFBFFFFFFC0FFACFEFFFF7F
:1012200080B500AF064B10221A60064B054A526883
:101230005A60044B034A52685A60BD4680BDC0469E
:10124000002002400010024080B584B000AF7860FA
:101250000023FB607B689B78002B3CD0244B7A6892
:1012600012789208D2B2C0329200D358FB607B68E9
:101270001B781A1C03231340DB00FF22101C98402C
:10128000031CDA43FB681340FB607B685B789A01C0
:10129000FF231A407B681B78191C03230B40DB00DB
:1012A000111C99400B1CFA681343FB60104B7A68C1
:1012B00012789208D2B2C0329200F968D1500C4B29
:1012C0007A681278111C1F220A400121081C9040E4
:1012D000021C1A6009E0064A7B681B78191C1F2350
:1012E0000B40012199408023D150BD4604B080BD00
:1012F00000E100E080B500AF00F002F8BD4680BD1F
:1013000080B588B000AF3B1CE12252021A603B1C42
:1013100000225A603B1C00229A603B1C0022DA60CB
:101320003B1C00225A613B1C0C221A6180239B0249
:10133000181C0121FEF7BAFF8023DB01181C0121D4
:10134000FEF7D4FF9023DB05181C09210122FFF7CB
:10135000EDFD9023DB05181C0A210122FFF7E6FDB5
:101360003B1C1833C022D2001A603B1C18330222E7
:101370001A713B1C183303225A713B1C183300228C
:101380009A713B1C18330122DA719023DA053B1C59
:101390001833101C191CFFF72BFD074A3B1C101CAF
:1013A000191CFFF711FE044B181C0121FFF7BEFEAC
:1013B000BD4608B080BDC04600380140002934D089
:1013C0000123002210B488422CD301242407A14217
:1013D00004D2814202D209011B01F8E7E400A142D4
:1013E00004D2814202D249005B00F8E7884201D36F
:1013F000401A1A434C08A04202D3001B5C08224347
:101400008C08A04202D3001B9C082243CC08A042B7
:1014100002D3001BDC082243002803D01B0901D0A3
:101420000909E3E7101C10BC7047002801D0002018
:10143000C04307B4024802A14018029003BDC04651
:10144000190000000029F0D003B5FFF7B9FF0EBC6A
:101450004243891A1847C0467047C046404B01E2D4
:10146000C04B0000D0FC8C0299003941F99E860BDC
:1014700024067FA60000000000000000000000001D
:1014800000000000000000000000000000731200D7
:101490000080B436412008048120CFF7FEFFFF0012
:1014A000000F013F023F030304FF0517061707075C
:1014B000080009000CC30DC40EC50FC61120122070
:1014C000132014201520162017001C3F1D070000B4
:1014D000344310100100000039383736C2000000D4
:1014E00074686520726561736F6E20776879207902
:1014F0006F75277265207374757069642069732035
:10150000746F6F206D7563682073756E0000000046
:101510000000000001020304010203040607080999
:00000001FF
