:1000000012C09AC52BC020C329C029C076C026C003
:1000100025C0A8C523C022C021C020C001C31EC066
:100020001DC01CC01BC011241FBECFE5D4E0DEBF25
:10003000CDBF10E0A0E6B0E0EAE1FDE002C005902F
:100040000D92A03AB107D9F712E0A0EAB0E001C0E2
:100050001D92AB30B107E1F75ED35DC6D1CF1F92E1
:100060000F920FB60F9211248F939F93EF93FF93EC
:1000700088B7806188BF89B7806189BF8EB590E4F9
:1000800089278EBD8091FF01882311F410925301BE
:100090008091FF01882381F0E091FF01F0E086B5B7
:1000A00097B5EE0FFF1FEE5AFE4F9183808380912C
:1000B00053018F5F809353018091FF01843569F470
:1000C0001092FF0181E08093FE0189B78F7E89BF86
:1000D0001DBC1CBC89B78F7D89BF8091FF018F5FDC
:1000E0008093FF011DBC1CBCFF91EF919F918F91EC
:1000F0000F900FBE0F901F9018951F920F920FB682
:100100000F9211248F931092FF0181E08093FE01E2
:1001100089B78F7E89BF1DBC1CBC89B78F7D89BF05
:100120008F910F900FBE0F901F90189526E034E02E
:1001300048EC50E088B3832788BB88EB9BE0FA014A
:100140003197F1F70197D9F72150A1F78EB58F7B41
:100150008EBDB89889B7806289BF8091FE018823DF
:10016000E1F31092FE01B89A0895DC0150E020E01E
:1001700030E00DC0FB01E20FF31F80819181FD0192
:10018000E20FF31F918380835F5F2E5F3F4F541711
:1001900088F3CD010895FF920F931F93CF93DF93C0
:1001A000F42EDB01EC0100E010E0EF2DF0E03197E0
:1001B00032C0812F90E08E179F0711F481E02EC08E
:1001C000488159814B3F510530F48D919C91119795
:1001D0008B3F9105E8F0BA0166507F4F2D913C911D
:1001E00011976217730730F0CA018A5F9040281791
:1001F000390738F4002311F401E00AC062177307CD
:1002000060F04A5F50402417350710F4002329F4AA
:100210001F5F129622961F1560F280E0DF91CF914A
:100220001F910F91FF900895FC0180E004C011829E
:10023000108232968F5F8617D0F3089530E0A0E0E9
:10024000B0E011C0FC01EA0FFB1F11821082FB011C
:10025000EA0FFB1F11821082FA01EA0FFB1F1182C5
:1002600010823F5F1296321768F308952AE034E057
:1002700048EC50E088B3832788BB80E49FE1FA0113
:100280003197F1F70197D9F72150A1F780E197E273
:1002900028EC30E0F9013197F1F70197D9F708958B
:1002A0002AE034E048EC50E088B3832788BB88EE2E
:1002B00093E0FA013197F1F70197D9F72150A1F7AF
:1002C00080E197E228EC30E0F9013197F1F70197EE
:1002D000D9F708958FB588608FBD8EB580688EBDC3
:1002E0008EB582608EBD8EB58F7B8EBD89B78062E4
:1002F00089BF88E293E29BBD8ABD089590BD89B90C
:1003000088E18AB986E880BD0895FC0103C05D9B41
:10031000FECF8CB981918823D1F708955D9BFECFE4
:100320008CB908950F931F93DF93CF93CDB7DEB7AA
:1003300061970FB6F894DEBF0FBECDBF8E010F5F81
:100340001F4FB8014AE050E091D4C801DEDF61964A
:100350000FB6F894DEBF0FBECDBFCF91DF911F91D6
:100360000F9108950F931F93CF93DF93182F092FA9
:10037000809153018823C9F180E690E0C6DF8CE6C6
:1003800090E0C3DF85E890E0C0DF812F902F9C01D3
:100390008901C0E0D0E088E890E0B7DFC930D1053E
:1003A0001CF48FE890E0B1DF2196CE01BBDF81E93C
:1003B00090E0ABDFF801619171918F0180E090E0F6
:1003C00028EE33E040E050E0E9D31AD4DA01C90165
:1003D000A9DF85E890E099DFC535D105E1F68CE627
:1003E00090E093DF85E890E090DFDF91CF911F915F
:1003F0000F910895EF92FF920F931F93DF93CF9386
:10040000CDB7DEB7C455D1400FB6F894DEBF0FBEEE
:10041000CDBF81E08093520180915201823009F476
:100420004BC0833009F48DC0813009F0CDC08BEA18
:10043000E82EF12CEC0EFD1E8E010F5F1F4FC80140
:10044000B70144E551E025E5F9DE70DE20E030E05B
:10045000F901EC5AFE4F80819181F801E20FF31F00
:10046000918380832E5F3F4F2A3A310589F75EDE04
:1004700020E030E0F901EC5AFE4F80819181F701D4
:10048000E20FF31F918380832E5F3F4F2A3A31059D
:1004900089F7C801B70145E57EDE882359F0C80118
:1004A00060E070E04AEA50E010D4E0DE82E0809341
:1004B000520102C0F5DEC3CF8E0105551F4FCE019C
:1004C0000196B80144E551E025E5B8DE2FDE20E0D5
:1004D00030E0F901EC5AFE4F80819181F801E20F82
:1004E000F31F918380832E5F3F4F2A3A310589F7AE
:1004F0001DDE20E030E0BE016F5F7F4FF901EC5A56
:10050000FE4F80819181FB01E20FF31F9183808375
:100510002E5F3F4F2A3A310589F78E0105551F4F4F
:10052000C80145E538DE882341F0C8016AEA70E079
:100530004AEA50E0CAD39ADE01C0B2DE83E080937B
:1005400052018E010F5F1F4FC801BE0165557F4FDD
:1005500044E551E025E572DEE9DD20E030E0F90117
:10056000EC5AFE4F80819181F801E20FF31F9183D5
:1005700080832E5F3F4F2A3A310589F7D7DD20E08F
:1005800030E0BE0165557F4FF901EC5AFE4F808186
:100590009181FB01E20FF31F918380832E5F3F4F18
:1005A0002A3A310589F78E010F5F1F4FC80145E5D3
:1005B000F2DD882341F0C80164E571E04AEA50E0C9
:1005C00084D354DE01C06CDE8EB58F7B8EBDB898AF
:1005D00089B7806289BFCC5ADE4F0FB6F894DEBF70
:1005E0000FBECDBFCF91DF911F910F91FF90EF9084
:1005F000089587B1856C87B986B1876886B986B159
:10060000886286B9369A089585B5876085BD85B5B7
:10061000886085BD89B7806889BF8EE483BD0895F1
:100620001F920F920FB60F9211248F939F9384B154
:1006300095B190930602809305029F918F910F9040
:100640000FBE0F901F9018951F920F920FB60F922A
:1006500011242F938F939F9380910802882319F080
:1006600081508093080280910302882319F0815001
:100670008093030280910002882319F081508093B7
:10068000000280910202882319F0815080930202B7
:1006900080910702882319F081508093070280918E
:1006A0000102882311F58091A1009091A20001968A
:1006B0009093A2008093A1008057974149F48091C4
:1006C000A0008F5F8093A0001092A2001092A10062
:1006D0008091A000883749F481E080930402109251
:1006E000A0001092A2001092A10080910102882324
:1006F00051F01092A0001092A2001092A10010924E
:100700000402109201029F918F912F910F900FBEC2
:100710000F901F9018958F929F92AF92BF92CF9299
:10072000DF92EF92FF920F931F93A09A84B3817F81
:1007300084BB85B38E6085BB87B3866087BB8D988D
:10074000959A57DFECD1B898C09AC4DDEFD15CDF41
:10075000A898C19A82E08093A4008093A70078941F
:10076000479AFF24F39404E666E4B62E53E0D52EB0
:100770004AE0A42E3AEF832E27E0922E92E0E92E53
:1007800014E08FE0C82E8091A300882319F08130F7
:10079000E1F7B2C08091A400823021F08091A700DF
:1007A0008230A9F400930802809108028823E1F7BF
:1007B000F092010288B3897F88BB00939F0080E09C
:1007C000A5D180930A021092A400D092A7009B9911
:1007D00034C08091A700833081F59B992EC0A092F0
:1007E0000802809108028823E1F79B9924C0809237
:1007F0000802809108028823E1F79B9902C0FADD84
:100800001CC080910502909106028558934018F40F
:10081000F092A70012C080910502909106028558BF
:10082000934058F0C29AB09208028091080288233F
:10083000E1F7C29802C01092A7008091FE018823C0
:1008400009F44BC0C29AB89A88EA90E060E070E080
:100850004AEA50E02AD288EA90E064E571E045E592
:100860009ADC8823E9F08091A4008823C9F4809160
:100870000502909106028558934018F4D092A40086
:100880000FC080910502909106028558934040F078
:10089000C29AB0920802809108028823E1F7C298B8
:1008A0008091A400833041F40093030280910302FD
:1008B0008823E1F7F092A400C29884E591E065E511
:1008C000B3DC88B7806288BFB8988EB58F7B8EBD49
:1008D00089B7806289BF1092FE018091A7008130A4
:1008E00029F08091A400813009F04DCF88B3866053
:1008F00088BBF092A30047CF109201028091A7001D
:10090000813021F08091A400813059F4B092080226
:10091000809108028823E1F7D092A7001092A400EA
:10092000C29880919F00F2D080930A029B9911C0D7
:100930008091A700833069F49B990DC0A0920002BA
:10094000809100028823E1F79B9905C0E092A700FF
:1009500002C0D092A7008091FE01882309F480C0D4
:10096000F092010288B3812788BBB89A88EA90E0A8
:1009700060E070E04AEA50E098D188EA90E064E5EF
:1009800071E045E508DC882381F08091A400823085
:1009900098F4C0920002809100028823E1F788B3A6
:1009A000812788BBE092A4004BC088EA90E06AEA05
:1009B00070E04AEA50E079D188EA90E064E571E0BD
:1009C00045E5E9DB8823A9F0C0920002809100028E
:1009D0008823E1F788B3812788BB80919F00803608
:1009E00078F58C5F80939F008F3550F100939F00C6
:1009F00027C088EA90E064E571E04AEA50E055D10A
:100A000088EA90E064E571E045E5C5DB8823A9F05C
:100A1000C0920002809100028823E1F788B3812709
:100A200088BB80919F00853058F0845080939F0050
:100A3000853030F410929F0003C088B3812788BBB3
:100A400084E591E065E5F0DB88B7806288BFB898FF
:100A50008EB58F7B8EBD1092FE0189B7806289BFF3
:100A60008091A400823021F08091A700823011F49F
:100A70001092A30080910402882341F0E092A40028
:100A8000E092A7001092A3001092040299991BC053
:100A90008091A5008823B9F490919F00992399F043
:100AA000999913C090920202809102028823E1F783
:100AB00099990BC0892F815080939F00863028F42C
:100AC00010929F0002C01092A5009A991CC08091BC
:100AD000A6008823C1F490919F009436A0F49A99BF
:100AE00052CE90920702809107028823E1F79A99EB
:100AF0004ACE892F8F5F80939F00813608F443CEC2
:100B000000939F0040CE1092A6003DCE97EC899FA7
:100B1000C001112464E670E060D0862F089585B787
:100B2000836085BF8BB780648BBF089589B7816070
:100B300089BF81ED82BF08951F920F920FB60F9269
:100B400011248F9383B78D7F83BFA89888EC8093FF
:100B5000090283B7826083BF8F910F900FBE0F9001
:100B60001F9018951F920F920FB60F9211248F931A
:100B70009F9381ED82BF9091090280910A028917AB
:100B800008F0A89A809109028150809309029F91F0
:100B90008F910F900FBE0F901F901895629FD001FC
:100BA000739FF001829FE00DF11D649FE00DF11D28
:100BB000929FF00D839FF00D749FF00D659FF00DD7
:100BC0009927729FB00DE11DF91F639FB00DE11DC4
:100BD000F91FBD01CF011124089597FB092E0726A7
:100BE0000AD077FD04D02ED006D000201AF47095DC
:100BF00061957F4F0895F6F7909581959F4F0895E1
:100C0000A1E21A2EAA1BBB1BFD010DC0AA1FBB1F10
:100C1000EE1FFF1FA217B307E407F50720F0A21B82
:100C2000B30BE40BF50B661F771F881F991F1A94EF
:100C300069F760957095809590959B01AC01BD0119
:100C4000CF010895AA1BBB1B51E107C0AA1FBB1F00
:100C5000A617B70710F0A61BB70B881F991F5A9548
:100C6000A9F780959095BC01CD010895FB019F01E6
:100C7000E8944230BCF04532ACF44A3029F497FB9A
:100C80001EF4909581959F4F642F7727DBDF805D61
:100C90008A330CF0895D8193CB010097A9F716F494
:100CA0005DE251931082C90126C0DC01CB01FC0139
:100CB000E199FECF06C0FFBBEEBBE09A31960DB2C4
:100CC0000D9241505040B8F70895DC01CB0102C0AD
:100CD0002D9105D041505040D8F70895262FE19925
:100CE000FECF9FBB8EBB2DBB0FB6F894E29AE19A64
:100CF0000FBE01960895DC01FC01672F71917723E7
:100D0000E1F7329704C07C916D9370836291AE17C6
:0A0D1000BF07C8F30895F894FFCF61
:100D1A0072616D6B612049523A0D0A002A2A2A2A09
:100D2A002A2A2A2A2A2A2A2A2A2A2A2A2A2A2A2A19
:100D3A002A2A2A2A000D0A00737465703A200030A4
:100D4A00000950756C736557696474683A200064C9
:00000001FF
