:10000000002000209D0D0000E10D0000E10D00002A
:1000100000000000000000000000000000000000E0
:10002000000000000000000000000000E10D0000E2
:100030000000000000000000E10D0000E10D0000E4
:10004000E10D0000E10D0000E10D0000E10D0000F8
:10005000E10D000005070000E10D0000E10D0000CA
:10006000E10D0000E10D0000E10D0000E10D0000D8
:10007000E50D0000E10D0000590E00001D0F00000D
:10008000E10D0000E10D000000000000E10D0000A6
:10009000E10D0000E10D0000E10D0000E10D0000A8
:1000A000E10D0000E10D0000E10D0000E10D000098
:1000B000E10D000000000000E10D00000000000064
:1000C0005FF808F180B588B000AF78600023FB616D
:1000D0000023BB6100237B6100233B610023FB60A5
:1000E0006C4B5B681A1C0C231340FB61FB69042BEF
:1000F00007D0082B09D0002B33D17B68664A1A60E1
:1001000033E07B68644A1A602FE0624B5B681A1C1C
:10011000F0239B031340BB615E4B5B681A1C80237A
:100120005B0213407B61BB699B0C0233BB617B6943
:10013000002B05D1BB69594A5A437B681A6014E009
:10014000544BDB6A1A1C0F23134001333B615248A6
:10015000396901F03DFA031CBA695A437B681A6099
:1001600003E07B684C4A1A60C0464A4B5B681A1C25
:10017000F0231340FB61FB691B09FB61484AFB69E3
:10018000D3181B78DBB2FB607B681A68FB68DA4027
:100190007B685A603F4B5B681A1CE023DB0013400E
:1001A000FB61FB691B0AFB613D4AFB69D3181B78A5
:1001B000DBB2FB607B685A68FB68DA407B689A6058
:1001C000344B1B6B1A1C80235B00134003D17B68EC
:1001D000344ADA6011E02F4B5B681A1C8023DB0184
:1001E000134005D17B689B685A087B68DA6004E09D
:1001F0007B689B689A087B68DA60264B1B6B1A1C2D
:100200004023134003D17B68274A1A6103E07B68CF
:10021000802212021A611F4B1B6B1A1C1023134001
:1002200003D17B681C4A5A6103E07B681A687B68CB
:100230005A61184B1B6B1A1C0323134004D17B68B3
:100240009A687B689A6121E0124B1B6B1A1C03238E
:100250001340012B04D17B681A687B689A6115E012
:100260000C4B1B6B1A1C03231340022B04D17B681D
:10027000802212029A6109E0064B1B6B1A1C0323B1
:100280001340032B02D17B68034A9A61BD4608B034
:1002900080BDC0460010024000127A0000093D00F7
:1002A00000000020809FD5001280000080B582B041
:1002B00000AF78600A1CFB1C1A70FB1C1B78002B1B
:1002C00007D0094B084A5269111C7A680A435A61DF
:1002D00006E0054B044A52697968C9430A405A61ED
:1002E000BD4602B080BDC0460010024080B582B05D
:1002F00000AF78600A1CFB1C1A70FB1C1B78002BDB
:1003000007D0094B084A9269111C7A680A439A611E
:1003100006E0054B044A92697968C9430A409A612C
:10032000BD4602B080BDC0460010024080B582B01C
:1003300000AF7860024B7A681A60BD4602B080BD9B
:100340001000002090B583B000AF114B1B78DBB2DA
:10035000002B19D0FC1D0F4B181C00F00BFC031CCC
:100360002370FB1D1B78002B0BD00B4B1B68002B45
:1003700007D0094B1B680749FA1D1278081C111C8D
:100380009847034B00221A70BD4603B090BDC0468B
:10039000180000201C0000201000002090B583B041
:1003A00000AF021CFB1D1A7000243CE0FB1D1B78F3
:1003B0005BB2002B09DA204B1F4A928A92B280214D
:1003C000C9000A4392B29A8207E01B4B1A4A928AEA
:1003D00091B21A4A0A4092B29A82FB1DFA1D127813
:1003E00052001A70144B1B8A9BB21A1C80231B01EB
:1003F000134005D0FB1DFA1D127801210A431A7023
:100400000D4B0D4A928A92B2802149010A4392B261
:100410009A82094B084A928A91B2094A0A4092B2DA
:100420009A82631CDCB2072CC0D9FB1D1B78181CF8
:10043000BD4603B090BDC04600040048FFFBFFFF6F
:10044000FFEFFFFF80B582B000AF0A1CFB1D011C4F
:100450001970BB1D1A700F4B0E4A928A91B20E4A48
:100460000A4092B29A82FB1D1B78181CFFF796FF78
:10047000BB1D1B78181CFFF791FF064B054A928A9B
:1004800092B2802189000A4392B29A82BD4602B09C
:1004900080BDC04600040048FFFDFFFF90B585B059
:1004A00000AF021CFB1D1A70114B114A928A91B2C7
:1004B000104A0A4092B29A82FB1D1B78181CFFF763
:1004C0006DFF3C1C0F340020FFF768FF031C2370F6
:1004D000074B074A928A92B2802189000A4392B25E
:1004E0009A823B1C0F331B78181CBD4605B090BD8B
:1004F00000040048FFFDFFFF90B585B000AF3960F4
:10050000FB1D011C1970BB1D1A701D4B1C4A928AE1
:1005100091B21C4A0A4092B29A823C1C0E34FB1DD6
:100520001B78181CFFF73AFF031C23703B1C0F338A
:1005300000221A7010E03B1C0F331B783A68D41865
:100540000020FFF72BFF031C23703B1C0F333A1CCA
:100550000F32127801321A703A1C0F32BB1D12781A
:100560001B789A42E7D3064B054A928A92B28021C1
:1005700089000A4392B29A82BD4605B090BDC0463A
:1005800000040048FFFDFFFF80B584B000AF396074
:10059000FB1D011C1970BB1D1A701A4B194A928A57
:1005A00091B2194A0A4092B29A82FB1D1B78181C1C
:1005B000FFF7F4FE3B1C0F3300221A700EE03B687D
:1005C0001B783A6801323A60181CFFF7E7FE3B1CC3
:1005D0000F333A1C0F32127801321A703A1C0F3264
:1005E000BB1D12781B789A42E9D3064B054A928AC2
:1005F00092B2802189000A4392B29A82BD4604B029
:1006000080BDC04600040048FFFDFFFF90B583B0E9
:1006100000AFE2200021FFF715FFFC1D0720FFF7C8
:100620003DFF031C2370FB1D1B782720191CFFF7BF
:1006300009FF134B124A928A91B2124A0A4092B2AF
:100640009A82FC1D0020FFF729FF031C2370FB1D6D
:10065000FA1D127801210A431A70FB1D1B78202015
:10066000191CFFF7EFFE064B054A928A92B28021D1
:1006700049000A4392B29A82BD4603B090BDC0467B
:1006800000040048FFFEFFFF90B585B000AF021CDC
:10069000FB1D1A703C1C0F340720FFF7FFFE031CE4
:1006A00023703B1C0F333A1C0F3212787F218A4390
:1006B0001A703B1C0F331B78002B03D0FB1D1B78DB
:1006C000002B08D03B1C0F331B78002B07D1FB1DE0
:1006D0001B78002B03D050205321FFF7B3FEBD46FB
:1006E00005B090BD80B582B000AF021CFB1D1A7032
:1006F000FB1D1B782520191CFFF7A4FEBD4602B088
:1007000080BDC04698B500AF0D4B5B691A1C012334
:100710001340DBB2002B11D00720FFF7BFFE031CF4
:100720001C1C221C4023134002D0064B01221A70CD
:10073000034B034A526901210A435A61BD4698BDE1
:10074000000401401800002080B584B000AF00F024
:1007500065FA8023DB02181C0121FFF7A7FDC14BBE
:10076000C04A1268C0490A431A60BE4BBD4A92682B
:10077000BE490A439A60BB4BBA4A928A92B2802120
:1007800089000A4392B29A82B64BB64A928A91B2D3
:10079000B74A0A4092B29A823B1C0E3300221A805A
:1007A00006E03B1C0E333A1C0E32128801321A80CE
:1007B0003B1C0E331A88AF4B9A42F2D90020FFF748
:1007C00063FF3B1C0E3300221A801CE03B1C0E33DF
:1007D0001A88A94B5200D35C20221343DAB23B1C87
:1007E0000E331988A448012349004118CB181B78FF
:1007F000101C191CFFF726FE3B1C0E333A1C0E3250
:10080000128801321A803B1C0E331B88132BDDD952
:100810003B1C0C3300221A8010E03B1C0C331B885D
:100820003A1C0C3212889549895C3A1CD1543B1C05
:100830000C333A1C0C32128801321A803B1C0C33E8
:100840001B88042BE9D93B1C2A20191C0522FFF721
:100850009BFE3B1C0C3300221A8010E03B1C0C3327
:100860001B883A1C0C3212888549895C3A1CD15489
:100870003B1C0C333A1C0C32128801321A803B1C90
:100880000C331B88042BE9D93B1C2B20191C052297
:10089000FFF77AFE3B1C0C3300221A8010E03B1C51
:1008A0000C331B883A1C0C3212887449895C3A1C40
:1008B000D1543B1C0C333A1C0C32128801321A8082
:1008C0003B1C0C331B88042BE9D93B1C3020191C22
:1008D0000522FFF759FE1D20FFF7E0FD031C1A1C3F
:1008E0003B1C0E331A803B1C0E331B88002B03D19C
:1008F00050207321FFF7A6FD3B1C0E3316221A80F1
:100900001CE03B1C0E331A885B4B5200D35C202248
:100910001343DAB23B1C0E331988574801234900B0
:100920004118CB181B78101C191CFFF78BFD3B1CC2
:100930000E333A1C0E321288013A1A803B1C0E33D9
:100940001B88142BDDD80120FFF79EFE3B1C0E33C5
:1009500000221A8037E03B1C0C3300221A8019E079
:100960003B1C0C331B883A1C0E321188454A890007
:1009700089583A1C0C321288D200081CD040021C44
:10098000D1B23A1CD1543B1C0C333A1C0C321288A5
:1009900001321A803B1C0C331B88032BE0D93B1C13
:1009A0000E331B88DBB220221343DAB23B1C101C2F
:1009B000191C0422FFF7E8FD3B1C0E333A1C0E32D3
:1009C000128801321A803B1C0E331B88082BC2D9B7
:1009D0003B1C0E3309221A8039E03B1C0C330022E9
:1009E0001A801BE03B1C0C331B883A1C0E3211880A
:1009F000244A890089583A1C0C3212880320821A32
:100A0000D200081CD040021CD1B23A1CD1543B1C6D
:100A10000C333A1C0C32128801321A803B1C0C3306
:100A20001B88032BDED93B1C0E331B88DBB2202234
:100A30001343DAB23B1C101C191C0422FFF7A4FD5F
:100A40003B1C0E333A1C0E32128801321A803B1CBA
:100A50000E331B880D2BC0D93B1C0C3300221A808F
:100A600023E0C04600040048000015010000FF0319
:100A7000FFEAFFFF63190000B4160000E41600004F
:100A8000EC160000701600003B1C0C331B883A1C4F
:100A90000C3212883449895C3A1CD1543B1C0C330B
:100AA0003A1C0C32128801321A803B1C0C331B8812
:100AB0000A2BE9D93B1C2E20191C0B22FFF764FDE1
:100AC0003B1C0C3300221A8015E03B1C0C331A88A7
:100AD000264B19693B1C0C331B88DB00081CD840D3
:100AE000031CD9B23B1C99543B1C0C333A1C0C32EE
:100AF000128801321A803B1C0C331B88032BE4D96B
:100B00003B1C1B7806221343DAB23B1C1A703B1CB9
:100B10002420191C0422FFF737FD3B1C1B780622FA
:100B20009343DAB23B1C1A703B1C2420191C04228C
:100B3000FFF72AFD3B1C0E3300221A8006E03B1C07
:100B40000E333A1C0E32128801321A803B1C0E33CF
:100B50001A88074B9A42F2D90020FFF795FDFFF75C
:100B600055FDBD4604B080BDA816000070160000FB
:100B70009F0F000090B587B000AF78603B1C173323
:100B800000221A707B683B613C1C0F340720FFF782
:100B900085FC031C23703C1C0E346020FFF77EFC98
:100BA000031C23703B1C0E331B78202B0FD87A6854
:100BB0003B1C0E331B786120111C1A1CFFF79CFC98
:100BC0003B1C17333A1C0E3212781A7003E0E220F5
:100BD0000021FFF737FC3C1C0D341720FFF75EFCAB
:100BE000031C23703B1C0D331A7801231340D2D011
:100BF0003B1C17331B783A69D31800221A703B1C30
:100C00000F331B782720191CFFF71CFC3B1C1733E4
:100C10001B78181CBD4607B090BDC04680B582B099
:100C200000AF194B184A52698021C9020A435A6120
:100C3000154B154A926901210A439A61134B134AD5
:100C4000D26801210A43DA60114B01229A60114BEC
:100C5000104A126801210A431A600E4B0D4AD268ED
:100C600001210A43DA603B1D05221A703B1D002258
:100C70005A703B1D01229A703B1D181C00F0EEFBC0
:100C8000BD4602B080BDC0460010024000040048CE
:100C9000000001400004014080B500AF80231B0329
:100CA000181C0121FFF702FB134B134A1268A02105
:100CB000C9020A431A60104B0F4A9268F0210903D7
:100CC0000A439A600C4B0C4A928A92B2C021890066
:100CD0000A4392B29A8200F0CFF800F015FCFFF7B9
:100CE00033FD2920FFF7FEFC044B181CFFF71EFB09
:100CF000FFF728FBFCE7C04600080048010D000094
:100D000080B582B000AF78600A1CFB1C1A70084BDB
:100D1000074A928A92B2802149004A4092B29A824E
:100D20007B68181C00F006F8BD4602B080BDC046C6
:100D30000008004880B584B000AF786016E0154B1D
:100D400000221A7005E0134B1B780133DAB2114B05
:100D50001A70104B1B78FF2BF5D13B1C0F331B78FF
:100D60009BB20D4A101C191C00F0D0FA3B1C0F332B
:100D70007A6812781A703B1C0F331B785A1E934105
:100D8000DBB27A6801327A60002BD8D1BD4604B05C
:100D900080BDC0464000002000380140002103E033
:100DA0000A4B5B584350043109480A4B42189A4297
:100DB000F6D3094A02E0002313600432074B9A423B
:100DC000F9D300F0B5FAFFF767FF7047F41600009B
:100DD000000000201000002010000020C8000020AB
:100DE000FEE7000090B500AF154B1B6C9AB2154B97
:100DF0001A80154B1B78DBB21C1C144B1B78191C7A
:100E0000104A128890B2124A64016118490088524F
:100E10000133DAB20D4B1A700C4B1B781F2B0DD916
:100E20000A4B00221A70084B1B78DBB20122534098
:100E3000DAB2054B1A70074B01221A70BD4690BDFD
:100E400000240140C4000020C6000020140000203F
:100E500044000020C700002080B500AF054B1B8A6E
:100E6000044B044A128A92B210218A4392B21A8227
:100E7000BD4680BD002C014080B582B000AF80230C
:100E80001B01181C0121FFF731FA224B2F221A8572
:100E9000204A20494423CB5A9BB21F490B4399B2A5
:100EA0004423D1521B4B0A22DA621A4B09221A64DC
:100EB000184B184A928992B210210A4392B29A8131
:100EC000144B144A928B92B2C021C9010A4392B2C8
:100ED0009A83104B0F4A128C92B2802149010A4327
:100EE00092B21A840B4B0B4A128892B201210A4328
:100EF00092B21A803B1D0E221A703B1D00225A70BE
:100F00003B1D01229A703B1D181C00F0A7FABD463C
:100F100002B080BD002C01400080FFFF80B500AF13
:100F20008023DB051B8A9BB21A1C0223134008D0C6
:100F3000174B174A928A92B2802189004A4092B296
:100F40009A828023DB058022D205128A92B2022186
:100F50008A4392B21A828023DB051B8A8023DB0539
:100F60008022D205128A92B240218A4392B21A821A
:100F70008023DB051B8A8023DB058022D205128AB1
:100F800092B201218A4392B21A82BD4680BDC04608
:100F90000008004880B586B000AF78603960002353
:100FA0007B6100233B610023FB6000237B6188E0C1
:100FB0007B690122101C9840031C3B613B681B6845
:100FC0003A691340FB60FA683B699A4276D13B6804
:100FD0001B79012B03D03B681B79022B39D17B682D
:100FE0009B687A6952000321081C9040021CD2437E
:100FF0001A407B689A607B689B681A1C3B685B7927
:10100000191C7B695B00081C9840031C1A437B6811
:101010009A607B689B889BB27A6992B20121081C16
:101020009040021C92B2D24392B213409AB27B68B3
:101030009A807B689B889AB23B689B79191C7B6974
:101040009BB2081C9840031C9BB213439AB27B6866
:101050009A807B681B687A6952000321081C9040C3
:10106000021CD2431A407B681A607B681B681A1CFA
:101070003B681B79191C7B695B00081C9840031CAA
:101080001A437B681A607B68DB687A6992B2520007
:101090000321081C9040021CD2431A407B68DA608E
:1010A0007B68DB681A1C3B68DB79191C7B695B0079
:1010B000081C9840031C1A437B68DA607B69013383
:1010C0007B617B690F2B00D872E7BD4606B080BDFF
:1010D00090B585B000AF7860BB1C19807B1C1A707E
:1010E0000023FB600023BB607B1C1A78BB1C1988A3
:1010F00007230B409B00111C99400B1CFB60BB1C81
:101100001B88DB089BB21A1CBB1C1B88DB089BB22C
:10111000191C7B6808318900CB58B91C0888072145
:10112000014089000F20041C8C40211CC943194038
:101130007B6808329200D150BB1C1B88DB089BB235
:101140001A1C7B6808329200D3581A1CFB681343A0
:10115000BB60BB1C1B88DB089BB21A1C7B68083277
:101160009200B968D150BD4605B090BD80B58CB035
:1011700000AF786039600023FB620023BB6200236C
:101180007B627B681B680122191C91430A1C7B68E7
:101190001A607B685B687B627A6A484B13407B62AB
:1011A0003B689B687A6A13437B627B687A6A5A6001
:1011B0007B681B687B627A6A414B13407B623B68A9
:1011C0005A683B68DB681A433B681B6913437A6AB9
:1011D00013437B627B687A6A1A607B689B687B62D8
:1011E0007A6A384B13407B623B685B697A6A1343C7
:1011F0007B627B687A6A9A603B1C0833181CFEF796
:1012000061FF7A68304B9A4204D13B1C08339B69DA
:10121000BB6203E03B1C08339B68BB627B681B68B6
:101220001A1C80231B02134014D0BB6A5A003B686F
:101230001B68101C191C00F0CBF9031CFB62BB6A75
:101240005A003B681B68101C191C00F005FA0B1CA7
:101250007B6210E03B681B68B86A191C00F0B8F9A3
:10126000031CFB623B681B68BA6A101C191C00F067
:10127000F3F90B1C7B623B681B685A087B6A9A4235
:1012800002D8FB6A0133FB627B681B681A1C80234F
:101290001B0213400AD0FA6A0F2313405B087B62DB
:1012A000FA6A0A4B1A407B6A1343FB62FB6A9AB2E2
:1012B0007B689A81BD460CB080BDC046FFCFFFFF62
:1012C000F3E9FFFFFFFCFFFF00380140F0FF0000E3
:1012D00080B582B000AF78600A1CFB1C1A70FB1C42
:1012E0001B78002B06D07B681B6801221A437B68A1
:1012F0001A6007E07B681B680122191C91430A1CD5
:101300007B681A60BD4602B080BDC04680B582B021
:1013100000AF78600A1CBB1C1A80BB1C1B88DB0555
:10132000DB0D9AB27B681A85BD4602B080BDC0460F
:1013300080B500AF1D4B1D4A126801210A431A6097
:101340001A4B1A4A5268111C194A0A405A60174B24
:10135000164A1268111C174A0A401A60134B134AA6
:101360001268111C144A0A401A60104B0F4A526846
:10137000111C124A0A405A600C4B0C4AD26A0F21C7
:101380008A43DA62094B094A126B111C0C4A0A4063
:101390001A63064B054A526B01218A435A63034B79
:1013A00000229A6000F00EF8BD4680BD0010024099
:1013B0000CB8FFF8FFFFF6FEFFFFFBFFFFFFC0FFCB
:1013C000ACFEFFFF80B582B000AF00237B6000233E
:1013D0003B601F4B11221A601E4B1E4A52685A6016
:1013E0001C4B1C4A52685A601A4B1A4A5268111C0C
:1013F000194A0A405A60174B164A5268A0218903BD
:101400000A435A60134B134A1268802149040A4365
:101410001A60C0460F4B1B681A1C80239B041340A4
:10142000F8D00C4B0B4A526803218A435A60094B8F
:10143000084A526802210A435A60C046054B5B685D
:101440001A1C0C231340082BF8D1BD4602B080BDF6
:101450000020024000100240FFFFC0FF80B584B0B2
:1014600000AF78600023FB607B689B78002B3CD04A
:10147000244B7A6812789208D2B2C0329200D358C4
:10148000FB607B681B781A1C03231340DB00FF22E0
:10149000101C9840031CDA43FB681340FB607B6818
:1014A0005B789A01FF231A407B681B78191C032381
:1014B0000B40DB00111C99400B1CFA681343FB60C6
:1014C000104B7A6812789208D2B2C0329200F96852
:1014D000D1500C4B7A681278111C1F220A4001214E
:1014E000081C9040021C1A6009E0064A7B681B78C1
:1014F000191C1F230B40012199408023D150BD4668
:1015000004B080BD00E100E080B500AF00F002F85B
:10151000BD4680BD80B588B000AF3B1CE1225202C1
:101520001A603B1C00225A603B1C00229A603B1C44
:101530000022DA603B1C00225A613B1C0C221A611B
:1015400080239B02181C0121FEF7B0FE8023DB01E3
:10155000181C0121FEF7CAFE9023DB05181C092187
:101560000122FFF7B5FD9023DB05181C0A2101229B
:10157000FFF7AEFD3B1C1833C022D2001A603B1CA3
:10158000183302221A713B1C183303225A713B1C78
:10159000183300229A713B1C18330122DA71902310
:1015A000DA053B1C1833101C191CFFF7F3FC074A23
:1015B0003B1C101C191CFFF7D9FD044B181C012102
:1015C000FFF786FEBD4608B080BDC046003801402A
:1015D000002934D00123002210B488422CD30124E6
:1015E0002407A14204D2814202D209011B01F8E77B
:1015F000E400A14204D2814202D249005B00F8E734
:10160000884201D3401A1A434C08A04202D3001B5F
:101610005C0822438C08A04202D3001B9C08224392
:10162000CC08A04202D3001BDC082243002803D0D0
:101630001B0901D00909E3E7101C10BC7047002802
:1016400001D00020C04307B4024802A14018029014
:1016500003BDC046190000000029F0D003B5FFF714
:10166000B9FF0EBC4243891A1847C0467047C046AE
:10167000404B01E2C04B0000D0FC8C029900394184
:10168000F99E860B24067FA60000000000000000E3
:10169000000000000000000000000000000000004A
:1016A000007312000080B436412008048120CFF777
:1016B000FEFFFF00000F013F023F030304FF051779
:1016C00006170707080009000CC30DC40EC50FC696
:1016D00011201220132014201520162017001C3F63
:1016E0001D07000034431010010000003938373660
:0416F000C200000034
:1016F40000000000010203040102030406070809B4
:00000001FF
