:100000000020002035100000791000007910000059
:1000100000000000000000000000000000000000E0
:100020000000000000000000000000007910000047
:1000300000000000000000007910000079100000AE
:10004000791000007910000079100000791000008C
:1000500079100000250600007910000079100000DA
:100060007910000031150000E91600007910000039
:10007000791000007910000079100000791000005C
:1000800079100000811200000000000079100000CB
:10009000791000007910000079100000791000003C
:1000A000791000007910000079100000791000002C
:1000B000791000000000000079100000000000002E
:1000C0005FF808F180B582B000AF78600A1CFB1CB5
:1000D0001A70FB1C1B78002B07D0094B084A526989
:1000E000111C7A680A435A6106E0054B044A5269BA
:1000F0007968C9430A405A61BD4602B080BDC04616
:100100000010024080B582B000AF78600A1CFB1C72
:100110001A70FB1C1B78002B07D0094B084A926908
:10012000111C7A680A439A6106E0054B044A9269F9
:100130007968C9430A409A61BD4602B080BDC04695
:100140000010024080B582B000AF78600A1CFB1C32
:100150001A70FB1C1B78002B07D0094B084AD26988
:10016000111C7A680A43DA6106E0054B044AD26939
:100170007968C9430A40DA61BD4602B080BDC04615
:100180000010024080B582B000AF78600A1CFB1CF2
:100190001A70FB1C1B78002B07D0094B084AD26849
:1001A000111C7A680A43DA6006E0054B044AD268FB
:1001B0007968C9430A40DA60BD4602B080BDC046D6
:1001C0000010024080B582B000AF7860024B7A68C0
:1001D0001A60BD4602B080BD0000002090B583B01B
:1001E00000AF114B1B78DBB2002B19D0FC1D0F4B5D
:1001F000181C00F0B3FC031C2370FB1D1B78002BA4
:100200000BD00B4B1B68002B07D0094B1B68074911
:10021000FA1D1278081C111C9847034B00221A7013
:10022000BD4603B090BDC046080000200C00002071
:100230000000002090B583B000AF021CFB1D1A70B7
:10024000002445E0FB1D1B785BB2002B0BDA9023EA
:10025000DB059022D205928A92B28021C9000A431E
:1002600092B29A8209E09023DB059022D205928A0D
:1002700091B21B4A0A4092B29A82FB1DFA1D127873
:1002800052001A709023DB051B8A9BB21A1C802334
:100290001B01134005D0FB1DFA1D127801210A43F2
:1002A0001A709023DB059022D205928A92B28021A7
:1002B00049010A4392B29A829023DB059022D2052B
:1002C000928A91B2074A0A4092B29A82631CDCB2C7
:1002D000072CB7D9FB1D1B78181CBD4603B090BD79
:1002E000FFFBFFFFFFEFFFFF80B582B000AF0A1CEE
:1002F000FB1D011C1970BB1D1A709023DB05902299
:10030000D205928A91B20E4A0A4092B29A82FB1D9D
:100310001B78181CFFF78EFFBB1D1B78181CFFF7FE
:1003200089FF9023DB059022D205928A92B2802128
:1003300089000A4392B29A82BD4602B080BDC0468F
:10034000FFFDFFFF90B585B000AF021CFB1D1A70CA
:100350009023DB059022D205928A91B2104A0A407E
:1003600092B29A82FB1D1B78181CFFF763FF3C1C9E
:100370000F340020FFF75EFF031C23709023DB0582
:100380009022D205928A92B2802189000A4392B2C9
:100390009A823B1C0F331B78181CBD4605B090BDDC
:1003A000FFFDFFFF90B585B000AF3960FB1D011C5C
:1003B0001970BB1D1A709023DB059022D205928A1A
:1003C00091B21C4A0A4092B29A823C1C0E34FB1D28
:1003D0001B78181CFFF72EFF031C23703B1C0F33E8
:1003E00000221A7010E03B1C0F331B783A68D418B7
:1003F0000020FFF71FFF031C23703B1C0F333A1C28
:100400000F32127801321A703A1C0F32BB1D12786B
:100410001B789A42E7D39023DB059022D205928A7B
:1004200092B2802189000A4392B29A82BD4605B0F9
:1004300090BDC046FFFDFFFF80B584B000AF3960BE
:10044000FB1D011C1970BB1D1A709023DB05902247
:10045000D205928A91B2194A0A4092B29A82FB1D41
:100460001B78181CFFF7E6FE3B1C0F3300221A70A6
:100470000EE03B681B783A6801323A60181CFFF7BF
:10048000D9FE3B1C0F333A1C0F32127801321A701E
:100490003A1C0F32BB1D12781B789A42E9D3902385
:1004A000DB059022D205928A92B2802189000A430C
:1004B00092B29A82BD4604B080BDC046FFFDFFFFE8
:1004C00090B583B000AFE2200021FFF70DFFFC1DC7
:1004D0000720FFF737FF031C2370FB1D1B78272025
:1004E000191CFFF701FF9023DB059022D205928AA9
:1004F00091B2124A0A4092B29A82FC1D0020FFF784
:1005000021FF031C2370FB1DFA1D127801210A43F1
:100510001A70FB1D1B782020191CFFF7E5FE9023A5
:10052000DB059022D205928A92B2802149000A43CB
:1005300092B29A82BD4603B090BDC046FFFEFFFF57
:1005400090B583B000AFE1200021FFF7CDFE9023EE
:10055000DB059022D205928A91B2124A0A4092B2E9
:100560009A82FC1D0020FFF7EDFE031C2370FB1D8B
:10057000FA1D127801218A431A70FB1D1B78202076
:10058000191CFFF7B1FE9023DB059022D205928A59
:1005900092B2802149000A4392B29A82BD4603B0CA
:1005A00090BDC046FFFEFFFF90B585B000AF021CB6
:1005B000FB1D1A703C1C0F340720FFF7C3FE031C01
:1005C00023703B1C0F333A1C0F3212787F218A4371
:1005D0001A703B1C0F331B78002B03D0FB1D1B78BC
:1005E000002B08D03B1C0F331B78002B07D1FB1DC1
:1005F0001B78002B03D050205321FFF775FEBD461A
:1006000005B090BD80B582B000AF021CFB1D1A7012
:10061000FB1D1B782520191CFFF766FEBD4602B0A6
:1006200080BDC04698B500AF0D4B5B691A1C012315
:100630001340DBB2002B11D0094B094A526901214A
:100640000A435A610720FFF77DFE031C1C1C221C75
:100650004023134002D0034B01221A70BD4698BDBF
:10066000000401400800002080B584B000AF00F015
:10067000C9FA80239B02181C0121FFF723FD902358
:10068000DB059022D2051268C2490A431A60902302
:10069000DB059022D2059268BF490A439A609023F5
:1006A000DB059022D205928A92B2802189000A430A
:1006B00092B29A829023DB059022D205928A91B25F
:1006C000B64A0A4092B29A823B1C0E3300221A802C
:1006D00006E03B1C0E333A1C0E32128801321A809F
:1006E0003B1C0E331A88AE4B9A42F2D90020FFF71A
:1006F0005BFF3B1C0E3300221A801CE03B1C0E33B8
:100700001A88A84B5200D35C20221343DAB23B1C58
:100710000E331988A348012349004118CB181B78D0
:10072000101C191CFFF7E0FD3B1C0E333A1C0E3267
:10073000128801321A803B1C0E331B88132BDDD923
:100740003B1C0C3300221A8010E03B1C0C331B882E
:100750003A1C0C3212889449895C3A1CD1543B1CD7
:100760000C333A1C0C32128801321A803B1C0C33B9
:100770001B88042BE9D93B1C2A20191C0522FFF7F2
:100780005BFE3B1C0C3300221A8010E03B1C0C3338
:100790001B883A1C0C3212888449895C3A1CD1545B
:1007A0003B1C0C333A1C0C32128801321A803B1C61
:1007B0000C331B88042BE9D93B1C2B20191C052268
:1007C000FFF73AFE3B1C0C3300221A8010E03B1C62
:1007D0000C331B883A1C0C3212887349895C3A1C12
:1007E000D1543B1C0C333A1C0C32128801321A8053
:1007F0003B1C0C331B88042BE9D93B1C3020191CF3
:100800000522FFF719FE1D20FFF79CFD031C1A1C93
:100810003B1C0E331A803B1C0E331B88002B03D16C
:1008200050207321FFF760FD3B1C0E3316221A8007
:100830001CE03B1C0E331A885A4B5200D35C20221A
:100840001343DAB23B1C0E33198856480123490082
:100850004118CB181B78101C191CFFF745FD3B1CD9
:100860000E333A1C0E321288013A1A803B1C0E33AA
:100870001B88142BDDD80120FFF796FE3B1C0E339E
:1008800000221A8037E03B1C0C3300221A8019E04A
:100890003B1C0C331B883A1C0E321188444A8900D9
:1008A00089583A1C0C321288D200081CD040021C15
:1008B000D1B23A1CD1543B1C0C333A1C0C32128876
:1008C00001321A803B1C0C331B88032BE0D93B1CE4
:1008D0000E331B88DBB220221343DAB23B1C101C00
:1008E000191C0422FFF7A8FD3B1C0E333A1C0E32E4
:1008F000128801321A803B1C0E331B88082BC2D988
:100900003B1C0E3309221A8039E03B1C0C330022B9
:100910001A801BE03B1C0C331B883A1C0E321188DA
:10092000234A890089583A1C0C3212880320821A03
:10093000D200081CD040021CD1B23A1CD1543B1C3E
:100940000C333A1C0C32128801321A803B1C0C33D7
:100950001B88032BDED93B1C0E331B88DBB2202205
:100960001343DAB23B1C101C191C0422FFF764FD70
:100970003B1C0E333A1C0E32128801321A803B1C8B
:100980000E331B880D2BC0D93B1C0C3300221A8060
:1009900021E0C0460000150100003F03FFEAFFFF11
:1009A000E7FD0000A01D0000D01D0000D81D0000C4
:1009B0005C1D00003B1C0C331B883A1C0C32128857
:1009C0003449895C3A1CD1543B1C0C333A1C0C3220
:1009D000128801321A803B1C0C331B880A2BE9D980
:1009E0003B1C2E20191C0B22FFF726FD3B1C0C3351
:1009F00000221A8015E03B1C0C331A88264B19691B
:100A00003B1C0C331B88DB00081CD840031CD9B2EC
:100A10003B1C99543B1C0C333A1C0C32128801329B
:100A20001A803B1C0C331B88032BE4D93B1C1B781E
:100A300006221343DAB23B1C1A703B1C2420191CFB
:100A40000422FFF7F9FC3B1C1B7806229343DAB221
:100A50003B1C1A703B1C2420191C0422FFF7ECFCE1
:100A60003B1C0E3300221A8006E03B1C0E333A1C5E
:100A70000E32128801321A803B1C0E331A88074B43
:100A80009A42F2D90020FFF78FFDFFF719FDBD460E
:100A900004B080BD941D00005C1D00004FC3000029
:100AA00080B584B000AF3960FB1D011C1970BB1DFF
:100AB0001A703B1C0E33012252421A80C046172086
:100AC000FFF740FC031C1A1C202313400ED03B1CD4
:100AD0000E331B885A1E9341DBB23A1C0E32391C6E
:100AE0000E31098801391180002BE8D1FFF728FD6C
:100AF000FB1D19783A68BB1D1B78081C111C1A1CB9
:100B0000FFF79AFC3B1C0E33012252421A80C0466A
:100B10001720FFF717FC031C1A1C102313400ED1DB
:100B20003B1C0E331B885A1E9341DBB23A1C0E321B
:100B3000391C0E31098801391180002BE8D1FFF7EB
:100B4000BFFC3B1C0E331B88002B01D0002300E0B0
:100B50000123181CBD4604B080BDC04690B587B0C7
:100B600000AF78603B1C173300221A707B683B6132
:100B70003C1C0F340720FFF7E5FB031C23703C1CD3
:100B80000E346020FFF7DEFB031C23703B1C0E338A
:100B90001B78202B0FD87A683B1C0E331B78612002
:100BA000111C1A1CFFF7FEFB3B1C17333A1C0E32BC
:100BB00012781A7003E0E2200021FFF795FB3C1C3D
:100BC0000D341720FFF7BEFB031C23703B1C0D33B5
:100BD0001A7801231340D2D03B1C17331B783A6993
:100BE000D31800221A703B1C0F331B782720191CC6
:100BF000FFF77AFB3B1C17331B78181CBD4607B068
:100C000090BDC04680B582B000AF1A4B194A5269F8
:100C10008021C9020A435A61164B164A9269012182
:100C20000A439A61144B144AD26801210A43DA60DC
:100C3000124B124A926801210A439A60104B104AE3
:100C4000126801210A431A600D4B0D4AD268012136
:100C50000A43DA603B1D05221A703B1D00225A70C0
:100C60003B1D01229A703B1D181C00F065FFBD461C
:100C700002B080BD001002400004004800000140A6
:100C80000004014080B582B000AF78607A68094BFB
:100C90009A420BD180239B00181C0121FFF772FAA6
:100CA00080239B00181C0021FFF76CFABD4602B0A0
:100CB00080BDC0460024014080B584B000AF78609C
:100CC00039600023FB607B68DB68FB60FA680F4BD0
:100CD0001340FB603B681A683B681B795B031A434F
:100CE0003B689B681A433B68DB681A433B681B6997
:100CF0001A433B685B691343FA681343FB607B68E4
:100D0000FA68DA60BD4604B080BDC04603D2FFFF7A
:100D100080B582B000AF78600A1CFB1C1A70FB1C07
:100D20001B78002B06D07B689B6801221A437B68E6
:100D30009A6005E07B689B6802221A437B689A6090
:100D4000BD4602B080BDC04680B586B000AFF86039
:100D5000B9607A6000237B61FB689B6A1A1CBB68E0
:100D60001A43FB689A627B69072293437B617A6925
:100D70007B6813437B61FB687A695A61BD4606B0A4
:100D800080BDC04680B586B000AF786000237B612F
:100D900000233B610023FB607B689B688022120676
:100DA0001A437B689A607B689B68DB0FDB07FB60FC
:100DB0003B6901333B613A69F0231B029A4202D03E
:100DC000FB68002BEFD17B689B68002B03DB7B6803
:100DD0001B6C7B6101E000237B617B69181CBD46B5
:100DE00006B080BD80B582B000AF78607B689B683C
:100DF00004221A437B689A60BD4602B080BDC0469B
:100E000080B582B000AF78600A1CFB1C1A70FB1C16
:100E10001B78002B06D07B68DB6801221A437B68B5
:100E2000DA6007E07B68DB680122191C91430A1C29
:100E30007B68DA60BD4602B080BDC04680B582B036
:100E400000AF786039607B68DB680222191C91432F
:100E50000A1C7B68DA607B68DB681A1C3B681A43F3
:100E60007B68DA60BD4602B080BDC04680B584B004
:100E700000AF786039603B1C0F3300221A700023EA
:100E8000BB603A6880235B04134006D07B689B6894
:100E90001A1C0D4B1340BB6002E07B681B68BB60F3
:100EA000BB683A68134004D03B1C0F3301221A7010
:100EB00003E03B1C0F3300221A703B1C0F331B78DE
:100EC000181CBD4604B080BDFFFFFFFE80B500AF1B
:100ED00080231B03181C0121FFF7F4F8324B324A20
:100EE0001268A021C9020A431A602F4B2E4A926849
:100EF000F02109030A439A602B4B2B4A928A92B243
:100F0000C02189000A4392B29A82FFF7ADFB00F03C
:100F1000FFF900F035FB2920FFF774FB234B181C69
:100F2000FFF750F900E0C046214B1B78DBB2012BE4
:100F300001D0FFF753F91F4B1B78DBB2012BF2D125
:100F40001D4B1B78DBB201225340DBB25A011B4B15
:100F5000D318B020191C2022FFF7A2FD184B1B88C4
:100F600001339AB2164B1A80154B1A88FA239B004C
:100F70009A420BD10C4B0C4A928A92B280214900C2
:100F80004A4092B29A820E4B00221A80094B0022EC
:100F90001A70074B1B78DBB2012253405A1E934153
:100FA000DAB2034B1A70BEE700080048C50F000014
:100FB000BC00002078000020700000207C00002091
:100FC0000400002080B582B000AF78600A1CFB1CD2
:100FD0001A70144B1B78DBB25A01134BD118FB1C4F
:100FE0001B787A68081C111C1A1C00F079FE0F4B44
:100FF000181C012100F008F90A4B1B78DBB2012212
:101000005340DAB2074B1A70094B1B78DBB201224E
:1010100053405A1E9341DAB2054B1A70BD4602B0D6
:1010200080BDC04679000020300000203000024022
:10103000BC000020002103E00A4B5B584350043100
:1010400009480A4B42189A42F6D3094A02E00023A3
:1010500013600432074B9A42F9D300F0D7FCFFF734
:1010600035FF7047E01D0000000000200000002058
:101070000000002000010020FEE7000080B582B0E3
:1010800000AF78607B681B681A1C264B1A407B688F
:101090001A607B6800221A607B6800225A607B68B5
:1010A00000229A607B680022DA607A681E4B9A42BE
:1010B00006D11E4B1D4A52680F210A435A602DE08B
:1010C0007A681B4B9A4206D1184B184A5268F02195
:1010D0000A435A6022E07A68164B9A4207D1134BB2
:1010E000124A5268F02109010A435A6016E07A68F0
:1010F000114B9A4207D10D4B0C4A5268F02109025C
:101100000A435A600AE07A680C4B9A4206D1074BB0
:10111000064A5268F02109030A435A60BD4602B0EC
:1011200080BDC046FEFF00000800024000000240F3
:101130001C000240300002404400024058000240BF
:1011400080B584B000AF786039600023FB607B68B5
:101150001B68FB60FA68174B1340FB603B689A689A
:101160003B681B6A1A433B681B691A433B685B690F
:101170001A433B689B691A433B68DB691A433B6827
:101180005B6A1A433B689B6A1343FA681343FB602C
:101190007B68FA681A603B68DA687B685A603B686B
:1011A0001A687B689A603B685A687B68DA60BD465B
:1011B00004B080BD0F80FFFF80B582B000AF7860C3
:1011C0007B6800221A607B6800225A607B680022DC
:1011D0009A607B680022DA607B6800221A617B6873
:1011E00000225A617B6800229A617B680022DA61E2
:1011F0007B6800221A627B6800225A627B680022A8
:101200009A62BD4602B080BD80B582B000AF786002
:101210000A1CFB1C1A70FB1C1B78002B06D07B6879
:101220001B6801221A437B681A6006E07B681B6812
:101230001A1C034B1A407B681A60BD4602B080BD81
:10124000FEFF000080B584B000AFF860B960FB1D00
:101250001A70FB1D1B78002B07D0FB681B681A1C3B
:10126000BB681A43FB681A6006E0FB681B68BA6833
:10127000D2431A40FB681A60BD4604B080BDC04628
:1012800090B500AF1C4B1B8A9BB21A1C0123134064
:10129000DBB2002B2ED0184B174A128A92B20121D2
:1012A0008A4392B21A82154B1B78DBB2012B21D1F3
:1012B000134B1B780133DAB2114B1A70104B1B78A9
:1012C0001F2B05D90D4B00221A700D4B00221A70EE
:1012D0000C4B1B78DBB201225340DBB2191C084BCC
:1012E0001B781A1C084B49018A18D35C1C1C074B3D
:1012F000221C1A61BD4690BD001000407A000020FB
:10130000060000207900002030000020007400401A
:1013100080B598B000AF7E4B181CFFF7B3FC80235C
:101320001B03181C0121FEF7CDFE80239B00181C17
:101330000121FEF7E7FE01200121FEF7C3FE012097
:101340000121FEF7FFFE3B1C0833181C00F00AFBCE
:101350003B1C08336F4A5A603B1C083300221A803A
:101360003B1C083300221A813B1C083300225A80A0
:101370008023DA053B1C0833101C191C00F07AFA94
:101380008023DB05181C202100F024FB8023DB05D3
:10139000181C012100F0FEFA3B1C403302221A60A7
:1013A0003B1C403303221A713B1C40330022DA718C
:1013B000594A3B1C4033101C191C00F0BDF93B1C62
:1013C0001433181CFFF7F8FE3B1C1433534A1A6001
:1013D000534B1B78DBB25A01524BD3181A1C3B1CDF
:1013E00014335A603B1C143300229A603B1C1433A4
:1013F0002022DA603B1C143300221A613B1C143398
:1014000080225A613B1C143300229A613B1C143326
:101410000022DA613B1C143320221A623B1C143375
:10142000802292015A623B1C143300229A623E4A87
:101430003B1C1433101C191CFFF782FE3A4B181C7E
:101440000121FFF7E1FE324B181C0221FFF7F6FCE9
:101450002F4B181C0121FFF7D3FC334B181C022122
:101460000122FFF7EFFE3B1D09221A703B1D0022EF
:101470005A703B1D01229A703B1D181C00F05CFB4A
:10148000234A3B1C4833101C191CFFF715FC3B1C5E
:10149000483310221A603B1C483300221A713B1C4F
:1014A000483380229A603B1C48338022D2009A60E5
:1014B0003B1C483300221A613B1C483304225A610A
:1014C000134A3B1C4833101C191CFFF7F5FB104A4C
:1014D00080231B01101C191C0022FFF735FC0C4B4C
:1014E000181CFFF74FFC0A4B181C0121FFF710FCDA
:1014F000C046074A0D4B101C191CFFF7B7FC031C14
:10150000F7D0034B181CFFF76DFCBD4618B080BD2B
:1015100000240140701700000008004840240140EA
:10152000700000207C000020080002400100000143
:1015300080B500AF0D4B1B681A1C0223134013D05B
:101540000A4B0A4A526802210A435A60084B094A68
:101550001278D2B201214A40D2B25101064A8A1809
:10156000DA60064B01221A70BD4680BD00000240C1
:1015700008000240700000207C000020780000205D
:1015800080B584B000AF10200121FEF7DBFD3B1DCC
:10159000181C00F0E7F93B1D494A5A603B1D002228
:1015A0001A803B1D00221A813B1D00225A80454AA9
:1015B0003B1D101C191C00F05DF9424B181C20212A
:1015C00000F008FA3F4B181C012100F0E3F98023DA
:1015D0009B02181C0121FEF775FD3B4B10221A607F
:1015E000394B03221A719023DA05374B101C191C52
:1015F00000F0A2F880239B05181C0121FEF7A2FD34
:10160000324B04221A60314B02225A602F4B0020C9
:10161000191C00F0E7FA0020012100F00FFB002068
:10162000012100F033FB01200121FEF74BFD284B87
:10163000181CFFF723FD274B274A1A60274B1B78FE
:10164000DBB25A01264BD3181A1C224B5A60214B8D
:1016500010229A601F4B2022DA601E4B00221A6172
:101660001C4B80225A611B4B00229A61194B0022AD
:10167000DA61184B20221A62164B802292015A62BC
:10168000144B00229A62124A124B101C191CFFF7CD
:1016900057FD0F4B181C02210122FFF7D3FD114B00
:1016A0000A221A700F4B01225A700E4B01229A70B7
:1016B0000C4B181C00F040FABD4604B080BDC0467B
:1016C0007017000000100040C8000020C00000207B
:1016D00030000240D4000020107400407000002050
:1016E00030000020D000002080B500AF0E4B1B68FA
:1016F0001A1C80239B00134013D00B4B0A4A5268DC
:10170000802189000A435A60084B094A1278D2B2F4
:101710005101084A8A18DA60044B181C0021FFF7AF
:1017200073FDBD4680BDC04600000240300002404F
:10173000700000203000002080B586B000AF7860D7
:10174000396000237B6100233B610023FB600023A1
:101750007B6188E07B690122101C9840031C3B617F
:101760003B681B683A691340FB60FA683B699A4220
:1017700076D13B681B79012B03D03B681B79022B88
:1017800039D17B689B687A6952000321081C90401C
:10179000021CD2431A407B689A607B689B681A1CC3
:1017A0003B685B79191C7B695B00081C9840031C33
:1017B0001A437B689A607B689B889BB27A6992B275
:1017C0000121081C9040021C92B2D24392B21340F5
:1017D0009AB27B689A807B689B889AB23B689B79B7
:1017E000191C7B699BB2081C9840031C9BB21343D5
:1017F0009AB27B689A807B681B687A6952000321E1
:10180000081C9040021CD2431A407B681A607B6817
:101810001B681A1C3B681B79191C7B695B00081C40
:101820009840031C1A437B681A607B68DB687A69FE
:1018300092B252000321081C9040021CD2431A406D
:101840007B68DA607B68DB681A1C3B68DB79191CF3
:101850007B695B00081C9840031C1A437B68DA60B4
:101860007B6901337B617B690F2B00D872E7BD4632
:1018700006B080BD80B584B000AF786039603B1C95
:101880000E3300221A803B1C0E337A6812881A80AD
:101890007A682D4B9A4208D07A688023DB059A42F9
:1018A00003D07A68294B9A4210D13B1C0E333A1C64
:1018B0000E32128870218A431A803B6859883B1C7B
:1018C0000E333A1C0E3212880A431A807A68204B73
:1018D0009A4210D03B1C0E333A1C0E3211881D4A1E
:1018E0000A401A803B6819893B1C0E333A1C0E32A1
:1018F00012880A431A807B683A1C0E3212881A80BA
:101900003B685A687B68DA623B681A887B681A858C
:101910007A680D4B9A420BD07A680F4B9A4207D0E7
:101920007A680E4B9A4203D07A680D4B9A4204D1E2
:101930003B689B7A1A1C7B681A867B6801229A8214
:10194000BD4604B080BDC046002C014000040040EC
:1019500000100040FFFCFFFF004001400044014038
:101960000048014080B582B000AF78607B680122FA
:1019700052425A607B6800221A807B6800221A81DA
:101980007B6800225A807B6800229A72BD4602B0B2
:1019900080BDC04680B582B000AF78600A1CFB1CD9
:1019A0001A70FB1C1B78002B08D07B681B889BB22D
:1019B000012213439AB27B681A8007E07B681B8878
:1019C0009BB2012293439AB27B681A80BD4602B053
:1019D00080BDC04680B582B000AF78600A1CBB1CD9
:1019E0001A807B689B889BB2702293439AB27B6873
:1019F0009A807B689B889AB2BB1C1B8813439AB25F
:101A00007B689A80BD4602B080BDC04680B500AFFD
:101A10001D4B1D4A126801210A431A601A4B1A4ACB
:101A20005268111C194A0A405A60174B164A12682C
:101A3000111C174A0A401A60134B134A1268111CF2
:101A4000144A0A401A60104B0F4A5268111C124A7D
:101A50000A405A600C4B0C4AD26A0F218A43DA6260
:101A6000094B094A126B111C0C4A0A401A63064BB7
:101A7000054A526B01218A435A63034B00229A6044
:101A800000F00EF8BD4680BD001002400CB8FFF813
:101A9000FFFFF6FEFFFFFBFFFFFFC0FFACFEFFFFF7
:101AA00080B582B000AF00237B6000233B601F4BFA
:101AB00011221A601E4B1E4A52685A601C4B1C4A67
:101AC00052685A601A4B1A4A5268111C194A0A4045
:101AD0005A60174B164A5268A02189030A435A607C
:101AE000134B134A1268802149040A431A60C04606
:101AF0000F4B1B681A1C80239B041340F8D00C4B1F
:101B00000B4A526803218A435A60094B084A5268BB
:101B100002210A435A60C046054B5B681A1C0C231D
:101B20001340082BF8D1BD4602B080BD0020024012
:101B300000100240FFFFC0FF80B584B000AF7860A6
:101B40000023FB607B689B78002B3CD0244B7A6899
:101B500012789208D2B2C0329200D358FB607B68F0
:101B60001B781A1C03231340DB00FF22101C984033
:101B7000031CDA43FB681340FB607B685B789A01C7
:101B8000FF231A407B681B78191C03230B40DB00E2
:101B9000111C99400B1CFA681343FB60104B7A68C8
:101BA00012789208D2B2C0329200F968D1500C4B30
:101BB0007A681278111C1F220A400121081C9040EB
:101BC000021C1A6009E0064A7B681B78191C1F2357
:101BD0000B40012199408023D150BD4604B080BD07
:101BE00000E100E080B584B000AF78603960002388
:101BF000FB600023BB60104B1B68FB607B683E22D0
:101C0000111C99400B1CDA43FB681340FB603B68D6
:101C10001A683B685B681343BB607B68BA68111C39
:101C200099400B1CFA681343FB60034BFA681A6077
:101C3000BD4604B080BDC0460074004090B583B07E
:101C400000AF78600A1CFB1C1A70FB1C1B78002B71
:101C50000BD00D4B0C4A1268111C7A680120041C31
:101C60009440221C0A431A600AE0074B064A126895
:101C700079680120041C8C40211CC9430A401A6069
:101C8000BD4603B090BDC0460074004090B583B01F
:101C900000AF78600A1CFB1C1A70FB1C1B78002B21
:101CA0000CD00E4B0D4A1268111C7A68802040013E
:101CB000041C9440221C0A431A600BE0074B074A9D
:101CC0001268796880204001041C8C40211CC943A3
:101CD0000A401A60BD4603B090BDC0460074004083
:101CE000F0B5051C0F2A2FD90B1C0343051C9C07BC
:101CF0002CD10C1C031C151C2668103D1E60666848
:101D00005E60A6689E60E6681034DE6010330F2DBA
:101D1000F2D8131C103B1B0901331B01C518C9184D
:101D20000F231A40032A0FD90E1C2C1C131C80CE23
:101D3000043B80C4032BFAD8131F9B0801339B007C
:101D400003242240C918ED18002A05D00023CC5CDA
:101D5000EC5401339342FAD1F0BDC046404B01E24E
:101D6000C04B0000D0FC8C0299003941F99E860BD3
:101D700024067FA600000000000000000000000014
:101D800000000000000000000000000000731200CE
:101D90000080B436412008048120CFF7FEFFFF0009
:101DA000000F013F023F0303040005170617070752
:101DB000080009000CC30DC40EC50FC61120122067
:101DC000132014201520162017001C3F1D070000AB
:101DD000344310100100000039383736C2000000CB
:00000001FF
