:100000000C9481000C94E7040C949E000C949E00C8
:100010000C949E000C949E000C949E000C949E00E8
:100020000C949E000C949E000C949E000C949E00D8
:100030000C949E000C949E000C949E000C949E00C8
:100040000C9401050C949E000C949E000C949E0050
:100050000C949E000C949E000C949E000C949E00A8
:100060000C944F010C949E000C949E000C949E00E6
:100070000C949E000C949E000C949E004C554B4199
:10008000535A5F55535A4B4F0054414B2020202068
:100090002020202020204E4945004B6F6E74796E41
:1000A000756F7761633F005A617069736163207A8D
:1000B0006D69616E793F004552524F522100554E95
:1000C0004957455253414C4E5920535445524F576E
:1000D0004E494B004F50524F4752414D4F57414EA2
:1000E00049453A007573742E206E6173742E206139
:1000F0006C61726D00776572736A6120312E3031E8
:10010000000011241FBECFEFD0E1DEBFCDBF13E052
:10011000A0E0B1E0E6EFFDE202C005900D92AA3644
:10012000B107D9F714E0AAE6B3E001C01D92A73FDA
:10013000B107E1F70E94CF080C94F9160C94000067
:100140009093C5008093C400E1ECF0E088E18083E7
:10015000529A5A9A8081886D808308951F920F92D7
:100160000FB60F9211245A980F900FBE0F901F9048
:100170001895282F909173039F5F9F70809174034F
:100180009817E1F3E92FF0E0EB58FC4F20839093B0
:1001900073038091C10080628093C1000895CF9362
:1001A000DF93EC0102C00E94B90089918823D9F73E
:1001B000DF91CF9108951F920F920FB60F921124E5
:1001C0008F939F939091730380917403981739F0E4
:1001D000809174038F5F8F708093740305C080914A
:1001E000C1008F7D8093C1009F918F910F900FBEB2
:1001F0000F901F9018959091850380918603981712
:1002000011F480E00895809186038F5F8F71809351
:100210008603E0918603F0E0E957FC4F8081089562
:100220001F920F920FB60F9211248F93EF93FF93AB
:10023000E0918503EF5FEF7180918603E81731F05D
:10024000E0938503F0E0E957FC4F1082FF91EF91B6
:100250008F910F900FBE0F901F9018950F931F93C3
:10026000DF93CF93CDB7DEB761970FB6F894DEBFBB
:100270000FBECDBFAB018E010F5F1F4FB8010E94B3
:10028000C016C8010E94CF0061960FB6F894DEBF79
:100290000FBECDBFCF91DF911F910F9108951F9297
:1002A0000F920FB60F9211248F939F938091780035
:1002B000909179009093B0038093AF039F918F91B9
:1002C0000F900FBE0F901F901895EF92FF920F9313
:1002D0001F93CF93DF93E62E823009F44AC0833018
:1002E00009F48DC0813009F0E4C080E060E00E9434
:1002F000F00580E091E00E9490050E2D10E0C8010D
:100300000E94E90781E064E00E94F005015010407E
:10031000E801CF54DC4F88818A3028F480E191E0F5
:100320000E949005888190E00E94E90782E191E0B7
:100330000E949005E801CF54DC4F8A858A3028F46A
:1003400080E191E00E9490058A8590E00E94E90793
:1003500082E191E00E949005E801CF54DC4F8C8946
:100360008A3008F04AC080E191E00E9490058C89B3
:1003700044C080E060E00E94F00584E191E00E94CA
:1003800090050E2D10E0C8010E94E90784E291E07B
:100390000E94900501501040E091CF03F091D003EE
:1003A000E00FF11F868D90E00E94E90781E063E095
:1003B0000E94F005E091CF03F091D003E00FF11F10
:1003C000808190E00E94E90786E291E00E9490051A
:1003D000E091CF03F091D003E00FF11F828590E010
:1003E0000E94E90786E291E00E949005E091CF0328
:1003F000F091D003E00FF11F848990E058C0FF24F2
:10040000870101501040E0915D04F0915E04E00F1F
:10041000F11F808190E00E94E90786E291E00E944E
:100420009005E0915D04F0915E04E00FF11F82857C
:1004300090E00E94E90786E291E00E949005E09139
:100440005D04F0915E04E00FF11F848990E00E944A
:10045000E90781E063E00E94F005E0915D04F0911E
:100460005E04E00FF11F868D90E00E94E90786E2AE
:1004700091E00E949005E0915D04F0915E04E00F30
:10048000F11F80A590E00E94E90786E291E00E94BA
:100490009005E0915D04F0915E0488E190E0E80E43
:1004A000F91EEE0CFF1CEE0DFF1D808191810E9454
:1004B000E907DF91CF911F910F91FF90EF90089581
:1004C000FF920F931F93F82EE0912801F0E0E05582
:1004D000FC4F10821286148A10E000E019C080E000
:1004E00062E00E94F0058AE990E00E94A20588E09F
:1004F0000E942404882321F00E94F80501E00AC02C
:1005000080E10E942404882351F30E94F805E2C090
:10051000002329F381E0F816D9F7A3C081E06091A8
:1005200028010E946501113089F1113020F012304C
:1005300009F097C05EC080E40E942404882369F01B
:1005400060912801E62FF0E0E055FC4F80818F5F3D
:100550008083883180F010820EC080E20E942404E3
:10056000882361F060912801E62FF0E0E055FC4F10
:1005700080818150808381E00E94650180E10E943A
:100580002404882309F05DC088E029C080E40E942B
:100590002404882369F060912801E62FF0E0E055FB
:1005A000FC4F82858F5F82878C3380F012860EC06D
:1005B00080E20E942404882361F060912801E62FE4
:1005C000F0E0E055FC4F82858150828781E00E94F7
:1005D000650188E00E9424048823F1F580E10E94EF
:1005E00024048823F1F182E090E00E94D10412E01B
:1005F00038C080E40E942404882369F060912801B7
:10060000E62FF0E0E055FC4F84898F5F848B8C33BC
:1006100080F0148A0EC080E20E942404882361F0D6
:1006200060912801E62FF0E0E055FC4F848981506D
:10063000848B81E00E94650188E00E942404882365
:1006400031F082E090E00E94D10411E00AC080E124
:100650000E942404882329F082E090E00E94D104C3
:1006600010E080E80E942404882309F457CF80E832
:100670000E942404882309F44BCF84E090E00E9478
:10068000D1040E94F80580E060E00E94F00587EA4E
:1006900090E00E94A20581E060E00E94F00584EEF7
:1006A00090E00E94A20588E00E942404882331F093
:1006B000809128018F5F809328012ACF80E10E94DA
:1006C0002404882339F480E80E942404882359F301
:1006D000109228011F910F91FF900895FC018091C5
:1006E000CE049091CF04882319F4292F30E006C05E
:1006F000892F90E022273327281B390B80916A032A
:10070000442351F0882321F426173707C4F009C089
:100710002E173F07A4F40EC0882349F42E173F0775
:1007200074F4539A5B9A81E080936A0308952617C4
:1007300037072CF05B9810926A0380E008950895C3
:100740000E946B158093D00481E060E070E00E940D
:10075000221580E49FE120E931E0F9013197F1F7BA
:100760000197D9F78FEE94E06EEC74E04FEC54E013
:100770002DEC34E00E94C714882341F081E060E052
:100780000E94F00589E291E00E94900508951F9370
:10079000182F0E94F80580E060E00E94F00584E3D5
:1007A00091E00E94900581E0612F0E94F00583E4B2
:1007B00091E00E9490058091CE04882319F086E490
:1007C00091E002C088E491E00E9490058091CF04FE
:1007D00090E00E94E9078AE491E00E9490058091F0
:1007E000CD0490E00E94E9078CE491E00E9490051E
:1007F0001F9108950E946B158093D00481E060E002
:1008000070E00E9422158FEE94E06EEC74E04FECE5
:1008100054E02DEC34E00E94C714882319F40E94A0
:10082000C70308950E94F80581E060E00E94F0058A
:1008300080E591E00E949005089587B1877087B99F
:1008400088B1886F88B90895282F86B1822311F066
:1008500090E011C08EE190E09093D6048093D5048F
:100860008091D5049091D604892BD1F786B190E080
:10087000822309F491E0892F0895359910C088E208
:1008800090E09093D6048093D5048091D504909104
:10089000D604892BD1F735994AC080E2089536995C
:1008A00010C088E290E09093D6048093D5048091A4
:1008B000D5049091D604892BD1F7369938C080E4BD
:1008C0000895379910C088E290E09093D604809301
:1008D000D5048091D5049091D604892BD1F737990E
:1008E00026C080E80895339910C088E290E0909384
:1008F000D6048093D5048091D5049091D604892B99
:10090000D1F7339914C088E00895349910C088E273
:1009100090E09093D6048093D5048091D504909173
:10092000D604892BD1F7349902C080E1089580E084
:10093000089583E08093690081E08DBB52985A9AB4
:10094000089584B5826084BD85B5836085BD8AEFD6
:1009500087BDEEE6F0E08081826080830895909309
:10096000D6048093D5048091D5049091D604892B28
:10097000D1F781E0089528EE33E0AC01429FC00139
:10098000439F900D529F900D11249093D404809317
:10099000D3048091D3049091D404892BD1F781E0C2
:1009A000089524E630E0AC01429FC001439F900DC2
:1009B000529F900D11249093D2048093D104809182
:1009C000D1049091D204892BD1F781E008951F9230
:1009D0000F920FB60F9211248F9381E080935901EB
:1009E0008091D7048F5F8093D7048091D7048D3393
:1009F00010F01092D7048F910F900FBE0F901F90A0
:100A000018951F920F920FB60F9211248F939F93F8
:100A100016BC8091D5049091D604009729F00197D7
:100A20009093D6048093D5048091D3049091D404FC
:100A3000009729F001979093D4048093D304809178
:100A4000D1049091D204009729F001979093D20499
:100A50008093D1049F918F910F900FBE0F901F90A4
:100A6000189580FF02C0109A01C0109881FF02C043
:100A7000119A01C0119882FF02C0129A01C0129807
:100A800083FF02C0139A08951398089580B181706E
:100A900001998260029984600399886008951F9388
:100AA0000B980A9809980898299A2A9A0E9446054C
:100AB000182F1295107F2A982A9A0E9446052A9884
:100AC000812B1F91089528980E944F0508951F9328
:100AD000182F0B9A0A9A099A089A29982A9A8295A5
:100AE0008F700E9431052A982A9A812F0E94310521
:100AF0002A980E94630587FDFCCF1F9108952898CE
:100B00000E9467050895289A0E9467050895982F06
:100B10008058883008F49770892F0E9483050895C3
:100B2000CF93DF93EC0108C0892F8058883008F4F8
:100B30009770892F0E94830599919923A9F7DF91D6
:100B4000CF910895CF93DF93EC010AC0892F80588D
:100B5000883010F0892F02C0892F87700E9483058A
:100B6000FE0121969491992389F7DF91CF91089501
:100B70001F93CF93DF93EB0190E0877090700896FE
:100B8000880F880F880F0E947F0510E089910E94CE
:100B900083051F5F1830D1F7DF91CF911F91089522
:100BA0000F931F93CF93DF938B0190E0877090702A
:100BB0000896880F880F880F0E947F05C0E0D0E05C
:100BC000F801EC0FFD1FE4918E2F0E948305219602
:100BD000C830D105A9F7DF91CF911F910F910895EA
:100BE000813009F480E46058860F0E947F050895E3
:100BF00081E00E947F05089583E00E947F050895AB
:100C00008EE00E947F0508958CE00E947F05089584
:100C10008FE00E947F0508958CE00E947F05089573
:100C20000F931F930B9A0A9A099A089A209A229A6C
:100C3000219A28982A98299880E69AEE0197F1F748
:100C40002898299880E30E94310580E190E401977B
:100C5000F1F780E30E94310500E911E0C801019736
:100C6000F1F780E20E943105C8010197F1F788E2AF
:100C70000E947F0588E00E947F058CE00E947F052E
:100C800086E00E947F050E94F8051F910F9108954C
:100C90002F923F924F925F926F927F928F929F928C
:100CA000AF92BF92CF92DF92EF92FF920F931F937A
:100CB000DF93CF93CDB7DEB7C055D0400FB6F894D1
:100CC000DEBF0FBECDBFDC019B0190916C03AE0176
:100CD0004F5F5F4F06C0FA01E90FF11D8083119647
:100CE0009F5F8C918823B9F790936C0380916B037D
:100CF000BE01675D7F4F07C0FB01E80FF11D408318
:100D00002F5F3F4F8F5FF90140814423A9F7809304
:100D10006B03903108F054C0803108F0EEC0981792
:100D200018F000E1091B02C000E1081B10E069E2B5
:100D3000C62ED12CCC0EDD1E7E010894E11CF11CC8
:100D40001CC080916C03882331F080E0612F0E94E9
:100D5000F005C70109C080916B03882339F081E059
:100D6000612F0E94F005C6010E94900585E090E089
:100D70000E94D1040E94F8051F5F101711F7102F71
:100D80001CC080916C03882331F080E0612F0E94A9
:100D9000F005C70109C080916B03882339F081E019
:100DA000612F0E94F005C6010E94900584EF91E03A
:100DB0000E94AF040E94F8051150112311F7DDCFF6
:100DC00051EF752E790E7E010894E11CF11C20E094
:100DD00049E2442E512C4C0E5D1EC72CDD2482E0CE
:100DE00090E0C80ED91E470130E1232E93E1392E41
:100DF00082E0682E76C0F7018081882351F080E080
:100E000060E00E94F005C7010E9490050894E11C73
:100E1000F11C80916B03882339F081E060E00E942F
:100E2000F005C2010E949005071508F452C0109108
:100E300064011130E9F01130F0F0123069F0133034
:100E4000E9F480E060E00E94F0058AE591E00E940C
:100E50009005609264011EC080E060E00E94F00591
:100E60008DE591E00E94900581E08093640112C0BD
:100E7000109264010FC00E94F8050CC0145080E06D
:100E8000612F0E94F0058FE591E00E9490051D5FA3
:100E900010936401CA14DB04E4F41091630111504F
:100EA00080E0612F0E94F005C4010E94900510931C
:100EB00063018AEF90E00E94AF040E94F8058091E0
:100EC0006301882361F4209263013092640174010C
:100ED00006C08AEF90E00E94AF040E94F805202F20
:100EE0002F5F80916C0390E00496A22EBB24022F0A
:100EF00020E0A816B906C9F37ECFC05BDF4F0FB65E
:100F0000F894DEBF0FBECDBFCF91DF911F910F913F
:100F1000FF90EF90DF90CF90BF90AF909F908F9019
:100F20007F906F905F904F903F902F9008950F9318
:100F30001F93CF93DF938B0190E08770907008969A
:100F4000880F880F880F0E947F05C0E0D0E0C8019D
:100F50008C0F9D1F0E94E1160E9483052196C830C8
:100F6000D105A9F7DF91CF911F910F910895CF93EC
:100F7000DF93EC0121960E94E116982F81508E3F5D
:100F800048F48F57883008F49770892F0E948305A2
:100F9000CE01EFCFDF91CF910895DF93CF93CDB7FF
:100FA000DEB761970FB6F894DEBF0FBECDBFBE01AE
:100FB0006F5F7F4F40E150E00E94C0160E94900595
:100FC00061960FB6F894DEBF0FBECDBFCF91DF9113
:100FD0000895DF93CF93CDB7DEB761970FB6F8943E
:100FE000DEBF0FBECDBFBE016F5F7F4F4AE050E056
:100FF0000E94C0160E94900561960FB6F894DEBF5D
:101000000FBECDBFCF91DF910895EF92FF921F9356
:101010009B01AC0198EBE92EF12CF701108160E007
:1010200074E284EF90E00E948A16569547953795B2
:1010300027952051304040405040122BF70110833B
:10104000E9EBF0E0808180831F91FF90EF9008959D
:1010500084EA8093BC008091BC0087FFFCCF089598
:1010600084E98093BC008091BC0084FFFCCF08958C
:101070008093BB0084E88093BC008091BC0087FF14
:10108000FCCF08958295880F880F807C84688093B8
:10109000BC008091BC0087FFFCCF8091BB0008950D
:1010A000982FF90184EA8093BC008091BC0087FFEF
:1010B000FCCF9093BB0084E88093BC008091BC007F
:1010C00087FFFCCF6093BB0084E88093BC008091D5
:1010D000BC0087FFFCCF0CC080818093BB00909345
:1010E000BC008091BC0087FFFCCF3196415001C00D
:1010F00094E8442389F784E98093BC008091BC0084
:1011000084FFFCCF0895982FF90184EA8093BC00F6
:101110008091BC0087FFFCCF9093BB0084E8809354
:10112000BC008091BC0087FFFCCF6093BB0084E8CB
:101130008093BC008091BC0087FFFCCF84EA809341
:10114000BC008091BC0087FFFCCF9F5F9093BB00E9
:1011500084E88093BC008091BC0087FFFCCF15C061
:10116000415080E090E011F081E090E026E0880FAF
:10117000991F2A95E1F784688093BC008091BC0098
:1011800087FFFCCF8091BB008193442349F784E91A
:101190008093BC008091BC0084FFFCCF08950F9326
:1011A0001F931092D7048CED97E09093E604809300
:1011B000E50481E090E09093EE048093ED04909339
:1011C000EC048093EB04249A2C980E941D0460EA9E
:1011D00076E881E090E00E9405080E9410060E94D7
:1011E00099040E94A1040E94A003789488ED94E0E1
:1011F0000E94630F80E060E00E94F00510E000E1D3
:1012000080E80E942404882389F00E94880B8A3099
:1012100039F08E3641F0843049F40E947A0906C0D4
:101220000E94AA1003C081E00E9460028091D7044E
:101230006AE00E946B16943040F40E94FA030E9408
:10124000FA030E94F80512E023C08091D7046AE0F7
:101250000E946B16943070F08091D7040E946B1638
:10126000973040F4113019F40E94F80512E00E9402
:10127000900F0EC08091D7046AE00E946B169730E1
:1012800038F0123019F40E94F80510E00E94DA0ECE
:1012900080915901882329F085B1802785B9109262
:1012A00059018BE190E06EE170E041E00E946E0335
:1012B000882309F4A5CF80E06FE00E94F00585E661
:1012C00091E00E9490059CCF8130910531F08230F1
:1012D000910549F0892B21F009C027E030E008C0D2
:1012E00023E030E005C022E030E002C02FEF3FEF06
:1012F000C90108950E94F80580E060E00E94F005B1
:1013000084ED90E00E94A20581E060E00E94F0057B
:1013100085EF90E00E94A20582E090E00E94BB046D
:101320000E94F8050895DF92EF92FF920F931F93AA
:10133000CF93DF93D42E90E024E130E0829FF00140
:10134000839FF00D929FF00D1124EA55FD4F84E12B
:10135000689FB001112401891289060F171FF80137
:10136000E188F2880E94F80580E060E00E94F005C4
:1013700087E691E00E949005C8010E949005F70160
:10138000808960E00E94F0058BE691E00E94900564
:1013900082E1D89EE0011124CE0DDF1D89896AE02B
:1013A0000E946B16892F90E001960E94E9078DE656
:1013B00091E00E949005F701808964E00E94F005A9
:1013C000CE010E949005DF91CF911F910F91FF9068
:1013D000EF90DF9008950F931F93CF93DF93809149
:1013E0006F039091700360916D0370916E0324E11F
:1013F00030E0829FF001839FF00D929FF00D112449
:10140000EA55FD4FA901649F9001659F300D749FBF
:10141000300D11240188F289E02DE20FF31FC189FC
:10142000D289409171030E94930902E010E00E946A
:101430003D04803251F0813218F48830C1F731C058
:10144000803499F0803899F734C08091710390917D
:101450007203019690937203809371030397A4F033
:1014600010927203109271030FC0809171039091DA
:1014700072030197909372038093710397FF04C0E6
:10148000109372030093710380916F0360916D0359
:10149000409171030E94930984E090E00E94D1047E
:1014A000C6CF84E090E00E94D1040E94F80580E05D
:1014B00015C084E090E00E94D10480917103909166
:1014C0007203880F991F9C0143E0220F331F4A9536
:1014D000E1F7820F931FC80FD91F8989DF91CF9140
:1014E0001F910F910895CF92DF92EF92FF920F9389
:1014F0001F93CF93DF93C62E64E1D62E8D9D80017E
:1015000011240A551D4FF801E188F2880E94F80560
:1015100080E060E00E94F00587E691E00E9490057F
:10152000C8010E949005F701808960E00E94F005E3
:101530008BE691E00E949005CD9CE0011124CE0D38
:10154000DF1D8B896AE00E946B16892F90E001965F
:101550000E94E9078DE691E00E949005F7018089DD
:1015600064E00E94F005CE010E949005DF91CF91CA
:101570001F910F91FF90EF90DF90CF900895CF9241
:10158000DF92FF920F931F93CF93DF9380916F03AE
:101590009091700324E130E0829FF001839FF00D71
:1015A000929FF00D1124EA55FD4FC189D2896091B7
:1015B0006D030E94730A74E1C72ED12C0E943D0472
:1015C000803251F0813218F48830C1F740C0803445
:1015D000E9F0803899F741C000916D0310916E03D6
:1015E0000F5F1F4F10936E0300936D03F0906F0316
:1015F0008F2D909170030E9464090817190724F039
:1016000010926E0310926D038F2D18C080916D03A0
:1016100090916E03019790936E0380936D0397FFF3
:101620000BC080916F03909170030E946409019731
:1016300090936E0380936D0380916F0360916D03AF
:101640000E94730A84E090E00E94D104B7CF84E046
:1016500090E00E94D10400E01FC084E090E00E946E
:10166000D10480916D0390916E038C9DF0018D9D4E
:10167000F00D9C9DF00D1124EC0FFD1F81899289C6
:10168000892B49F00E94EB09082F882309F496CF93
:101690000E94F80501C00389802FDF91CF911F912F
:1016A0000F91FF90DF90CF9008950F931F93182F05
:1016B000843008F010E00E94F80580E060E00E94AD
:1016C000F0058FE691E00E9490058091B60260E0FF
:1016D0000E94F0058BE691E00E94900504E1109FC6
:1016E000800111240A551D4FF801838990E00E9462
:1016F000E9078DE691E00E9490058091B60264E0D2
:101700000E94F005C8010E9490051F910F91089555
:10171000CF92DF92EF92FF921F93CF93DF931092BD
:10172000700310926F0381E090E00E94BB048091EF
:101730006F030E94550BC6EAD2E0F3E0CF2ED12C06
:10174000E4E1EE2EF12C0E943D04803261F0813202
:1017500018F48830C1F705C08034A9F0803899F7B3
:101760002CC010E04BC080916F03909170030196E4
:101770009093700380936F030497B4F010927003FA
:1017800010926F0311C080916F03909170030197C5
:101790009093700380936F0397FF06C0D0927003FD
:1017A000C0926F03C2EED2E080916F030E94550B8E
:1017B00084E090E00E94D104C6CF80E991E00E94CD
:1017C000AF040E94F80580916F03909170038E9D85
:1017D000F0018F9DF00D9E9DF00D1124EC0FFD1F6B
:1017E00081899289892B49F00E94BF0A182F88238A
:1017F00009F4A9CF0E94F80501C01389812FDF9158
:10180000CF911F91FF90EF90DF90CF900895482FD8
:101810006AE00E946B16282F30E084E0220F331F0D
:101820008A95E1F7842F0E946B16892F822B0895E9
:10183000282F22952F709AE0299F900111248F70F4
:10184000820F08950F931F93CF93DF93FC01DB0169
:1018500040E050E06B5F7F4F8D010C5F1F4F4130C8
:10186000510529F4838111968C9311972DC0423034
:10187000510529F4858112968C93129725C0433027
:10188000510529F4878113968C9313971DC044301A
:10189000510559F4808190E036E0880F991F3A9500
:1018A000E1F7E801888321850DC04530510561F4D9
:1018B0008785908925E0880F991F2A95E1F7EB012C
:1018C00088832385282B28834F5F5F4F463051053F
:1018D00031F6CD01DF91CF911F910F9108950F93B4
:1018E0001F93CF93DF93DC01FB0140E050E034E62F
:1018F000BC016B5F7F4F8C010C5F1F4F4130510566
:1019000031F411968C9111978383148248C0423030
:10191000510531F412968C911297858316823FC03F
:101920004330510531F413968C91139787831086B9
:1019300036C04430510569F4E801888190E08F7326
:10194000928781878881829586958695837080832A
:1019500026C04530510569F4EB01888190E08F7114
:101960009487838788818295869587708787108A78
:1019700016C04630510539F416968C911697839F00
:10198000C00111240AC04730510549F417962C9123
:10199000179785859685820F911D968785874F5F5E
:1019A0005F4F4830510509F0A9CFCF01DF91CF91AA
:1019B0001F910F910895FC018585968564E070E084
:1019C0000E9477168130910571F0823091051CF4E8
:1019D000892B39F008958230910539F0039751F43D
:1019E00007C01082089581E001C082E080830895DD
:1019F00083E080830895FC01168A158A80818823FC
:101A000019F48EE691E002C08DE691E0928B818B15
:101A10002389348981899289821793076CF481E044
:101A200090E0948B838B808125893689813031F4D5
:101A300022593E4F368B258B41E036C023593E4F0D
:101A4000F9CF413019F4818592852BC0423051F095
:101A5000443041F0463031F0483021F0493011F047
:101A60004B3021F4838994894F961BC0453031F067
:101A7000473021F04A3011F04C3021F483899489A9
:101A80004E960FC0433079F48081882321F48389F6
:101A900094894D9606C08150833028F483899489B7
:101AA0004C96948B838B4F5F242F30E083859485F5
:101AB0008217930734F62389348985899689280FFC
:101AC000391F368B258B2730310544F4C90167E077
:101AD00070E00E9477160197908B87878589968999
:101AE0008730910584F067E070E00E9477169C01D2
:101AF000009729F486E090E0908B87870895215025
:101B00003040308B27870895FF920F931F93DF9308
:101B1000CF93CDB7DEB729970FB6F894DEBF0FBECF
:101B2000CDBF082F162FF42E862F602F0E94F005B0
:101B3000DE011596E6EFF2E085E001900D9281500E
:101B4000E1F79E012B5F3F4FDE011196F90102C0C4
:101B500081918D938E2F821B8F15D0F3812F602F53
:101B60000E94F005CE0101960E94900529960FB6BD
:101B7000F894DEBF0FBECDBFCF91DF911F910F91C3
:101B8000FF9008950E94F80580E064E00E94F0054F
:101B90008091DF049091E0048A30910544F48BEF4A
:101BA00092E00E9490058091DF049091E0040E94F1
:101BB000E9078DEF92E00E9490058091DD049091FD
:101BC000DE048A30910544F48BEF92E00E94900588
:101BD0008091DD049091DE040E94E9078DEF92E090
:101BE0000E9490058091DB049091DC048A3091057D
:101BF00044F48BEF92E00E9490058091DB04909179
:101C0000DC040E94E90781E063E00E94F005809116
:101C1000E1049091E2048A30910544F48BEF92E064
:101C20000E9490058091E1049091E2040E94E907EE
:101C30008FEF92E00E9490058091E3049091E4047C
:101C40008A30910544F48BEF92E00E9490058091D8
:101C5000E3049091E4040E94E9078FEF92E00E9470
:101C600090058091E5049091E6040E94E90782E0E6
:101C700090E00E94D1040895DF92EF92FF920F93BB
:101C80001F93DF93CF93CDB7DEB760970FB6F8946D
:101C9000DEBF0FBECDBF19821A8280EA60E142E04A
:101CA0009E012F5F3F4F0E9483088E010D5F1F4FE3
:101CB00086E0F80111928A95E9F7A9E0EA2EF12C65
:101CC000EC0EFD1E88E0F70111928A95E9F780EA93
:101CD00061E046E098010E9483082F81F0ECDF2E3E
:101CE000D222822F8F7382958F703AE0839FC0013A
:101CF0001124622F6F70680F2885722F707E822FDB
:101D00008F7182958F70839FC0011124322F3F7095
:101D1000380F40E050E0D701EAE0EE2E443029F4DD
:101D20008D858D29862B8D8717C0453029F48E85AA
:101D3000872B832B8E8710C0F801E40FF51F2081BD
:101D4000FD01E40FF51F822F82958F708E9DC001DB
:101D500011242F70280F20834F5F5F4F46305105AD
:101D6000E9F62981822F82958F703AE0839FC00126
:101D700011242F70280F2F872A81822F82958F7030
:101D8000839FC00111242F70280F288BCE01099644
:101D900068ED74E00E946F0C60960FB6F894DEBF99
:101DA0000FBECDBFCF91DF911F910F91FF90EF90AC
:101DB000DF9008950F931F930091E7040E943C0E5B
:101DC00010E08091E7049091E8040817190784F562
:101DD0002091EB043091EC042F5F3F4F3093EC04E3
:101DE0002093EB044091ED045091EE044F5F5F4F60
:101DF0005093EE044093ED04415050408091E9042B
:101E00009091EA04821793079CF481E090E090930C
:101E1000EC048093EB048091D804813019F441598B
:101E20005E4F02C042595E4F5093EE044093ED0462
:101E300081E060E00E94F00581E093E00E9490055F
:101E40008091EB049091EC040E94E90784E093E018
:101E50000E94900580E060E00E94F0058091E70418
:101E60009091E80483309105F1F0843091054CF4B1
:101E70008130910591F08230910594F4892B51F0D5
:101E80001FC085309105A9F0853091057CF006973B
:101E9000B9F412C080E193E011C08CE193E00EC070
:101EA0008BE293E00BC084E393E008C08CE393E003
:101EB00005C087E493E002C080E593E00E949005AE
:101EC0001F910F910895FF920F931F93DF93CF936C
:101ED00000D0CDB7DEB7FC0105851685C80164E6E4
:101EE00070E00E947716862F0E94070CF82EC8011A
:101EF00064E670E00E9477160E94070CF9828A83DC
:101F000080EA60E142E09E012F5F3F4F0E9450084F
:101F10000F900F90CF91DF911F910F91FF90089537
:101F20001F931091D8040E943C0E8091D80418177A
:101F300068F48091E5049091E60401969093E6049C
:101F40008093E50488ED94E00E94630F80E064E0F4
:101F50000E94F0058091DF049091E0048A309105A1
:101F600044F48BEF92E00E9490058091DF04909101
:101F7000E0040E94E9078DEF92E00E9490058091B5
:101F8000DD049091DE048A30910544F48BEF92E0F9
:101F90000E9490058091DD049091DE040E94E90783
:101FA0008DEF92E00E9490058091DB049091DC041B
:101FB0008A30910544F48BEF92E00E949005809165
:101FC000DB049091DC040E94E90781E063E00E9459
:101FD000F0058091E1049091E2048A30910544F487
:101FE0008BEF92E00E9490058091E1049091E204D1
:101FF0000E94E9078FEF92E00E9490058091E30430
:102000009091E4048A30910544F48BEF92E00E94B1
:1020100090058091E3049091E4040E94E9078FEF1A
:1020200092E00E9490058091E5049091E6040E9460
:10203000E9071F9108956F927F928F929F92AF92BE
:10204000BF92CF92DF92EF92FF920F931F93DF9395
:10205000CF9300D000D000D0CDB7DEB76C018E0199
:102060000F5F1F4F86E0F80111928A95E9F70E94F1
:10207000F805EE24FF24380115E0812E912C8C0CFC
:102080009D1CB4E0AB2EB12CAC0CBD1C8E2D84304D
:10209000B9F4F5011081812F82958695869583701C
:1020A0000E94070C082F0295000F000F007C8D8105
:1020B000082B812F8F730E94070C082B0D8321C0E2
:1020C0008530A9F4F4011081812F8295869587705F
:1020D0000E94070C082F0295000F007E8E81082BAE
:1020E000812F8F710E94070C082B0E830AC0F60106
:1020F000EE0DFF1D80810E94070CF301EE0DFF1D08
:1021000080830894E11CF11CF6E0EF16F10409F05D
:10211000BDCF80EA61E046E09E012F5F3F4F0E9405
:10212000500888ED94E00E94630F26960FB6F8944D
:10213000DEBF0FBECDBFCF91DF911F910F91FF90FA
:10214000EF90DF90CF90BF90AF909F908F907F9057
:102150006F9008952F923F924F925F926F927F926D
:102160008F929F92AF92BF92CF92DF92EF92FF92A7
:102170000F931F93DF93CF93CDB7DEB72A970FB698
:10218000F894DEBF0FBECDBF0E94F80500E010E05E
:10219000CE0109969A8789876BE3662E712C5CE1E4
:1021A000C52ED12C4DE1A42EB12C3EE1832E912CD5
:1021B00021E0E22EF12C19C080E062E00E94F005DF
:1021C0008AE990E00E94A20588E00E942404882306
:1021D00021F00E94F80501E00AC080E10E94240479
:1021E000882351F30E94F805AFC2002329F3FE01B2
:1021F000319691E0919389859A85E817F907C9F797
:10220000812F0E94C20D94E3492E98E0592E8CED47
:10221000282E87E0382E65C2123009F481C01330B1
:1022200030F4112371F0113009F05BC240C014305A
:1022300009F475C1143008F4B1C0153009F051C269
:10224000F5C180E40E942404882381F08091DF049A
:102250009091E00401969093E0048093DF04489706
:10226000DCF01092E0041092DF0416C080E20E94BD
:1022700024048823A1F08091DF049091E004019769
:102280009093E0048093DF0497FF06C087E190E01D
:102290009093E0048093DF0480E00E94C20D80E10F
:1022A0000E942404882309F06CC088E0B4C180E453
:1022B0000E942404882381F08091DD049091DE0443
:1022C00001969093DE048093DD04CC97CCF01092BD
:1022D000DE041092DD0414C080E20E9424048823EE
:1022E00091F08091DD049091DE0401979093DE04DB
:1022F0008093DD0497FF04C07092DE046092DD04D9
:1023000081E00E94C20D88E00E942404882309F025
:10231000E3C180E10E942404882309F4E2C1F2C0F1
:1023200080E40E942404882381F08091DB04909152
:10233000DC0401969093DC048093DB04CC97CCF012
:102340001092DC041092DB0414C080E20E9424048A
:10235000882391F08091DB049091DC0401979093A5
:10236000DC048093DB0497FF04C07092DC0460926D
:10237000DB0482E00E94C20D88E00E9424048823CE
:1023800031F082E090E00E94D10411E0AAC180E126
:102390000E942404882309F4A4C136C188ED94E086
:1023A0000E94DB0C80E40E942404882309F44CC0C2
:1023B0002091E1043091E2042F5F3F4F3093E2041B
:1023C0002093E1048091E3049091E404813091052D
:1023D00091F08330910579F08530910561F0873077
:1023E000910549F08830910531F08A30910519F056
:1023F0008C30910519F4203231050CF584309105AB
:1024000049F08630910531F08930910519F08B3013
:10241000910519F42F31310594F4029709F06AC03F
:102420008091D804882319F42E31310544F4815069
:10243000833008F05FC02D3131050CF45BC0F092A1
:10244000E204E092E10456C080E20E942404882362
:1024500009F453C08091E1049091E20401979093B4
:10246000E2048093E104181619060CF443C080912D
:10247000E3049091E4048130910591F0833091055B
:1024800079F08530910561F08730910549F0883009
:10249000910531F08A30910519F08C30910539F4AD
:1024A0008FE190E09093E2048093E10423C08430B4
:1024B000910549F08630910531F08930910519F088
:1024C0008B30910529F49092E2048092E10412C0CD
:1024D000029781F48091D804882329F4B092E20411
:1024E000A092E10407C08150833020F4D092E2042E
:1024F000C092E10483E00E94C20D88E00E9424049F
:10250000882331F082E090E00E94D10412E0E9C01B
:1025100080E10E942404882309F4E3C0D2C088ED3E
:1025200094E00E94DB0C80E40E942404882389F05C
:102530008091E3049091E40401969093E4048093E5
:10254000E3040D970CF458C0F092E404E092E30425
:1025500053C080E20E9424048823A1F08091E30408
:102560009091E40401979093E4048093E304181697
:1025700019060CF441C08CE090E09093E404809341
:10258000E3043AC02091E3043091E404243031059F
:1025900049F02630310531F02930310519F02B3062
:1025A000310559F48091E1049091E2044F972CF0A9
:1025B0009092E2048092E1041FC022303105E1F4E0
:1025C0002091D804222359F48091E1049091E204EF
:1025D0004E972CF0B092E204A092E1040DC021507D
:1025E000233050F48091E1049091E2044D9724F05F
:1025F000D092E204C092E10484E00E94C20D88E01F
:102600000E942404882331F082E090E00E94D104EB
:1026100013E067C080E10E942404882309F461C0AC
:1026200082E090E00E94D10415E05BC080E40E944B
:102630002404882389F08091E5049091E6040196B2
:102640009093E6048093E50485539840D4F030924B
:10265000E6042092E50415C080E20E942404882349
:1026600059F18091E5049091E60401979093E60476
:102670008093E5048C5D974024F45092E6044092E8
:10268000E50488ED94E00E94DB0C8091D804882357
:1026900081F08091E3049091E404029751F48091D9
:1026A000E1049091E2044D9721F4D092E204C092AB
:1026B000E10485E00E94C20D88E00E942404882382
:1026C00031F082E090E00E94D10414E00AC080E181
:1026D0000E942404882329F082E090E00E94D10423
:1026E00010E080E80E942404882309F495CD80E856
:1026F0000E942404882309F478CD0E94F80580E024
:1027000060E00E94F00587EA90E00E94A20588E060
:102710000E942404882399F088ED94E00E94DB0C49
:1027200088ED94E00E94FB0C88ED94E0BE016F5FA1
:102730007F4F0E94220C0E941B1081E006C080E1A6
:102740000E942404882319F380E02A960FB6F89497
:10275000DEBF0FBECDBFCF91DF911F910F91FF90D4
:10276000EF90DF90CF90BF90AF909F908F907F9031
:102770006F905F904F903F902F900895DC0120E084
:1027800040E050E098E115C0FD01E40FF51FE08145
:1027900038E08E2F8227F82FF17080FD29272695AB
:1027A000F13009F42068315011F0E695F2CF4F5F17
:1027B0005F4F4617570741F7822F0895AF92BF9298
:1027C000DF92EF92FF920F931F93DF93CF93CDB7DA
:1027D000DEB760970FB6F894DEBF0FBECDBFD82E20
:1027E0007A015901DE011196E9E5F3E080E10190FB
:1027F0000D928150E1F7FB018081482F50E09181DB
:1028000080E0482B592BF0E1DF1679F4CA018E7F66
:1028100033E0880F991F3A95E1F7FB0126814CE0E0
:1028200050E0421B5109480F591F57FF07C081E074
:10283000F7018083509541955F4F02C0F7011082E8
:10284000F8E2DF1699F4FB018481682F70E0CB0178
:10285000807690708036910549F066FF02C04E7F09
:1028600005C065FF02C04C7F01C0487FCA0124E05B
:10287000969587952A95E1F7F5018083842F8F70CF
:10288000FE01E80FF11D8181F801808380E06096F0
:102890000FB6F894DEBF0FBECDBFCF91DF911F9171
:1028A0000F91FF90EF90DF90BF90AF900895882335
:1028B00019F0709561957F4F442319F0309521955B
:1028C0003F4F621773071CF44FEF5FEF07C040E004
:1028D00050E02617370714F441E050E0CA0108958C
:1028E0007F928F929F92AF92BF92CF92DF92EF92A0
:1028F000FF920F931F93DF93CF93CDB7DEB7299746
:102900000FB6F894DEBF0FBECDBF782E6B015A0113
:1029100049018EEB60E070E00E944C168E010F5F63
:102920001F4F4AE0E42EF12CEC0EFD1E0E94FC1518
:10293000F80181938F01EE15FF05C1F77E01089420
:10294000E11CF11CC70169E070E00E94BE138823FE
:1029500011F083E008C0872DB701A601950184011D
:102960000E94DE1380E029960FB6F894DEBF0FBEFA
:10297000CDBFCF91DF911F910F91FF90EF90DF902E
:10298000CF90BF90AF909F908F907F9008956F925F
:102990007F928F929F92AF92BF92CF92DF92EF92EF
:1029A000FF920F931F93DF93CF93CDB7DEB7299795
:1029B0000FB6F894DEBF0FBECDBF6C015B014A01BC
:1029C00039010E94BE158EEBB6010E944C168E0195
:1029D0000F5F1F4F5AE0E52EF12CEC0EFD1E0E94FA
:1029E000FC15F80181938F01EE15FF05C1F77E01FB
:1029F0000894E11CF11CC70169E070E00E94BE135D
:102A0000882311F083E009C0F6018081B701A50198
:102A1000940183010E94DE1380E029960FB6F8949A
:102A2000DEBF0FBECDBFCF91DF911F910F91FF9001
:102A3000EF90DF90CF90BF90AF909F908F907F905E
:102A40006F9008951F93CF93DF93182FEB010E948F
:102A5000BE150E94B515882311F482E009C084E4F4
:102A6000BE010E944C16113011F00E94B81580E092
:102A7000DF91CF911F9108950F931F938C010E94B6
:102A8000BE1584EBB8010E944C1681E00E94D81557
:102A9000182F0E94BE15111111E0812F1F910F9167
:102AA00008950F931F93CF93DF938C01EB01F801EF
:102AB0008081BE010E940016F801808381508D3F05
:102AC00028F48881883211F0803189F7DF91CF9125
:102AD0001F910F910895CF92DF92EF92FF921F9373
:102AE000DF93CF93CDB7DEB729970FB6F894DEBF4B
:102AF0000FBECDBF8FEF898310E062E0E62EF12C90
:102B0000EC0EFD1E6E010894C11CD11C19C0C6013B
:102B1000B7010E94511589818F3FC1F08E3FB1F0FE
:102B200020E030E0F901E151FB4FD701A20FB31FC4
:102B30008C9180832F5F3F4F11E02830310591F752
:102B40008981882319F0112311F311E0812F29962F
:102B50000FB6F894DEBF0FBECDBFCF91DF911F91AE
:102B6000FF90EF90DF90CF90089586B18470089524
:102B7000429A3A9A089542983A98089542983A9A11
:102B800080E897E00197F1F78FB7F8943A98E8E07A
:102B9000F1E03197F1F726B18FBF88E796E0019712
:102BA000F1F7329902C081E00895822F8470089570
:102BB0002FB7F8943A9A95E09A95F1F781113A98DF
:102BC00090E59A95F1F7329B80E090EF9A95F1F7B6
:102BD0003A982FBF08950F931F93182F08E0812F65
:102BE00081700E94D8151695811110680150B9F7AF
:102BF000812F1F910F9108958FEF0E94EB1508957B
:102C0000DF92EF92FF920F931F93CF93DF93E82E03
:102C1000EB010E94BE158823A1F580EF0E94EB1501
:102C200080E4FF24182F98EFD92ED80E81E00E945F
:102C3000D815082F81E00E94D815882329F0002399
:102C400071F08EEFF82E1FC0002349F41E1528F0F6
:102C5000888180FF04C0E11611F0F12E01E0802F81
:102C60000E94D815888186958883002311F080689A
:102C7000888311501D15D1F6112329F02196812F3B
:102C8000D1CFFF24FA948F2DDF91CF911F910F9117
:102C9000FF90EF90DF9008950F931F93CF93DF93F2
:102CA000082FEB010E94BE15209751F085E50E9488
:102CB000EB1518E089910E94EB151150D9F703C06C
:102CC0008CEC0E94EB15802F0E94EB15DF91CF91C9
:102CD0001F910F910895991B79E004C0991F9617D1
:102CE00008F0961B881F7A95C9F78095089597FB81
:102CF000092E07260AD077FD04D02ED006D000205A
:102D00001AF4709561957F4F0895F6F79095819527
:102D10009F4F0895A1E21A2EAA1BBB1BFD010DC0F7
:102D2000AA1FBB1FEE1FFF1FA217B307E407F5077B
:102D300020F0A21BB30BE40BF50B661F771F881F57
:102D4000991F1A9469F760957095809590959B01ED
:102D5000AC01BD01CF010895AA1BBB1B51E107C007
:102D6000AA1FBB1FA617B70710F0A61BB70B881F1B
:102D7000991F5A95A9F780959095BC01CD010895AA
:102D8000FB019F01E8944230C4F04532B4F44A306C
:102D900029F497FB1EF4909581959F4F642F772718
:102DA0000E94AC16805D8A330CF0895D8193CB0163
:102DB0000097A1F716F45DE251931082C9010C94BB
:102DC000E916F999FECF92BD81BDF89A992780B591
:102DD0000895DC01FC01672F71917723E1F73297A9
:102DE00004C07C916D9370836291AE17BF07C8F3E6
:062DF0000895F894FFCFE6
:102DF600555354415720474F445A2E204E523A00BD
:102E060030003A00555354415720445A49454E2004
:102E16004E523A0020002D000120202020657272BB
:102E26006F7220003E2054454D5045524154555234
:102E3600413A003E20002D0020002E0020432000B5
:102E460020206572726F722000012A2A002A002A49
:102E56002A2A00101342002D3E20003C003E002D81
:102E66002D2D2D2D2D4D454E552D2D2D2D2D2D0038
:102E7600444F424F57590000000000000000000078
:102E8600016E5459474F444E494F575900000000B0
:102E96000000016F524F435A4E59000000000000D7
:102EA600000000000170435A415320492044415418
:102EB6004100000000000100000A414C41524D0053
:102EC600000000000000000000000180010B706F90
:102ED600646D656E7520312E332000000000010000
:102EE600000C706F646D656E7520322E3020000008
:102EF600000001000014706F646D656E7520322E3F
:102F060031200000000001000015706F646D656ED1
:102F16007520322E32200000000001000016706F6E
:102F2600646D656E7520322E3320000000000100AE
:102F36000017706F646D656E7520322E34000000C8
:102F4600000001000018706F646D656E7520322EEA
:102F560035200000000001000019706F646D656E79
:102F66007520322E3620000000000100001A706F16
:102F7600646D656E7520332E300000000000010080
:102F8600001E706F646D656E7520332E3120000053
:102F960000000100001F555354415749454E494111
:102FA60000000000000001B60101545259422050B1
:102FB6005241435900000000000001F20102545240
:102FC600414E534D49534A41205246000000017E6E
:102FD60002034649524D5741524500000000000089
:102FE600000001000004202020200030003A002DBF
:102FF600003E200020647A69656E20726F6B750052
:103006003E204E4945445A49454C41003E20504FCA
:103016004E4945445A49414C454B003E2057544F72
:1030260052454B003E2053524F4441003E20435AE6
:1030360057415254454B003E2050494154454B00A0
:103046003E20534F424F5441000001010202030447
:0A3056000405060607070809090033
:00000001FF
