:1000000000200020551400009914000099140000ED
:1000100000000000000000000000000000000000E0
:100020000000000000000000000000009914000023
:100030000000000000000000991400009914000066
:1000400099140000991400009914000099140000FC
:10005000991400001D050000991400009914000077
:1000600099140000FD0D0000B50F00009914000068
:1000700099140000991400009914000099140000CC
:10008000991400006D0D000000000000991400009C
:1000900099140000991400009914000099140000AC
:1000A000991400009914000099140000991400009C
:1000B00099140000000000009914000000000000E6
:1000C0005FF808F180B582B000AF78600A1CFB1CB5
:1000D0001A70FB1C1B78002B07D0094B084A526989
:1000E000111C7A680A435A6106E0054B044A5269BA
:1000F0007968C9430A405A61BD4602B080BDC04616
:100100000010024080B582B000AF78600A1CFB1C72
:100110001A70FB1C1B78002B07D0094B084AD269C8
:10012000111C7A680A43DA6106E0054B044AD26979
:100130007968C9430A40DA61BD4602B080BDC04655
:100140000010024080B582B000AF7860024B7A6840
:100150001A60BD4602B080BD0000002090B583B09B
:1001600000AF114B1B78DBB2002B19D0FC1D0F4BDD
:10017000181C00F00BFC031C2370FB1D1B78002BCC
:100180000BD00B4B1B68002B07D0094B1B68074992
:10019000FA1D1278081C111C9847034B00221A7094
:1001A000BD4603B090BDC046080000200C000020F2
:1001B0000000002090B583B000AF021CFB1D1A7038
:1001C00000243CE0FB1D1B785BB2002B09DA204BBE
:1001D0001F4A928A92B28021C9000A4392B29A823F
:1001E00007E01B4B1A4A928A91B21A4A0A4092B20D
:1001F0009A82FB1DFA1D127852001A70144B1B8A4A
:100200009BB21A1C80231B01134005D0FB1DFA1D55
:10021000127801210A431A700D4B0D4A928A92B24C
:10022000802149010A4392B29A82094B084A928A74
:1002300091B2094A0A4092B29A82631CDCB2072C3E
:10024000C0D9FB1D1B78181CBD4603B090BDC0462D
:1002500000040048FFFBFFFFFFEFFFFF80B582B007
:1002600000AF0A1CFB1D011C1970BB1D1A700F4B3F
:100270000E4A928A91B20E4A0A4092B29A82FB1DAD
:100280001B78181CFFF796FFBB1D1B78181CFFF787
:1002900091FF064B054A928A92B2802189000A4357
:1002A00092B29A82BD4602B080BDC04600040048AA
:1002B000FFFDFFFF90B585B000AF021CFB1D1A705B
:1002C000114B114A928A91B2104A0A4092B29A8214
:1002D000FB1D1B78181CFFF76DFF3C1C0F34002022
:1002E000FFF768FF031C2370074B074A928A92B2FC
:1002F000802189000A4392B29A823B1C0F331B78FB
:10030000181CBD4605B090BD00040048FFFDFFFF6E
:1003100090B585B000AF3960FB1D011C1970BB1D85
:100320001A701D4B1C4A928A91B21C4A0A4092B222
:100330009A823C1C0E34FB1D1B78181CFFF73AFFF9
:10034000031C23703B1C0F3300221A7010E03B1C6F
:100350000F331B783A68D4180020FFF72BFF031CDB
:1003600023703B1C0F333A1C0F32127801321A7083
:100370003A1C0F32BB1D12781B789A42E7D3064B0A
:10038000054A928A92B2802189000A4392B29A82E7
:10039000BD4605B090BDC04600040048FFFDFFFF0C
:1003A00080B584B000AF3960FB1D011C1970BB1D06
:1003B0001A701A4B194A928A91B2194A0A4092B29B
:1003C0009A82FB1D1B78181CFFF7F4FE3B1C0F33B1
:1003D00000221A700EE03B681B783A6801323A60DE
:1003E000181CFFF7E7FE3B1C0F333A1C0F32127844
:1003F00001321A703A1C0F32BB1D12781B789A42D8
:10040000E9D3064B054A928A92B2802189000A43B9
:1004100092B29A82BD4604B080BDC0460004004836
:10042000FFFDFFFF90B583B000AFE2200021FFF792
:1004300015FFFC1D0720FFF73DFF031C2370FB1D6C
:100440001B782720191CFFF709FF134B124A928AC9
:1004500091B2124A0A4092B29A82FC1D0020FFF724
:1004600029FF031C2370FB1DFA1D127801210A438A
:100470001A70FB1D1B782020191CFFF7EFFE064B9E
:10048000054A928A92B2802149000A4392B29A8226
:10049000BD4603B090BDC04600040048FFFEFFFF0C
:1004A00090B585B000AF021CFB1D1A703C1C0F34C8
:1004B0000720FFF7FFFE031C23703B1C0F333A1C81
:1004C0000F3212787F218A431A703B1C0F331B783E
:1004D000002B03D0FB1D1B78002B08D03B1C0F33D7
:1004E0001B78002B07D1FB1D1B78002B03D050205D
:1004F0005321FFF7B3FEBD4605B090BD80B582B075
:1005000000AF021CFB1D1A70FB1D1B782520191C57
:10051000FFF7A4FEBD4602B080BDC04698B500AF4F
:100520000D4B5B691A1C01231340DBB2002B11D069
:100530000720FFF7BFFE031C1C1C221C4023134096
:1005400002D0064B01221A70034B034A5269012163
:100550000A435A61BD4698BD0004014008000020CE
:1005600080B584B000AF00F065FA8023DB02181C70
:100570000121FFF7A7FDC14BC04A1268C0490A43D9
:100580001A60BE4BBD4A9268BE490A439A60BB4B93
:10059000BA4A928A92B2802189000A4392B29A8220
:1005A000B64BB64A928A91B2B74A0A4092B29A8240
:1005B0003B1C0E3300221A8006E03B1C0E333A1C13
:1005C0000E32128801321A803B1C0E331A88AF4B50
:1005D0009A42F2D90020FFF763FF3B1C0E33002242
:1005E0001A801CE03B1C0E331A88A94B5200D35CC6
:1005F00020221343DAB23B1C0E331988A44801238E
:1006000049004118CB181B78101C191CFFF726FE57
:100610003B1C0E333A1C0E32128801321A803B1CEE
:100620000E331B88132BDDD93B1C0C3300221A80A0
:1006300010E03B1C0C331B883A1C0C321288954985
:10064000895C3A1CD1543B1C0C333A1C0C32128886
:1006500001321A803B1C0C331B88042BE9D93B1C4C
:100660002A20191C0522FFF79BFE3B1C0C3300229D
:100670001A8010E03B1C0C331B883A1C0C32128889
:100680008549895C3A1CD1543B1C0C333A1C0C3212
:10069000128801321A803B1C0C331B88042BE9D9C9
:1006A0003B1C2B20191C0522FFF77AFE3B1C0C3348
:1006B00000221A8010E03B1C0C331B883A1C0C32C1
:1006C00012887449895C3A1CD1543B1C0C333A1C87
:1006D0000C32128801321A803B1C0C331B88042B0D
:1006E000E9D93B1C3020191C0522FFF759FE1D20BB
:1006F000FFF7E0FD031C1A1C3B1C0E331A803B1C49
:100700000E331B88002B03D150207321FFF7A6FD69
:100710003B1C0E3316221A801CE03B1C0E331A8839
:100720005B4B5200D35C20221343DAB23B1C0E33E6
:1007300019885748012349004118CB181B78101C11
:10074000191CFFF78BFD3B1C0E333A1C0E3212882E
:10075000013A1A803B1C0E331B88142BDDD8012074
:10076000FFF79EFE3B1C0E3300221A8037E03B1C35
:100770000C3300221A8019E03B1C0C331B883A1CF6
:100780000E321188454A890089583A1C0C32128869
:10079000D200081CD040021CD1B23A1CD1543B1CE0
:1007A0000C333A1C0C32128801321A803B1C0C3379
:1007B0001B88032BE0D93B1C0E331B88DBB22022A5
:1007C0001343DAB23B1C101C191C0422FFF7E8FD8E
:1007D0003B1C0E333A1C0E32128801321A803B1C2D
:1007E0000E331B88082BC2D93B1C0E3309221A80FA
:1007F00039E03B1C0C3300221A801BE03B1C0C33FD
:100800001B883A1C0E321188244A890089583A1CE8
:100810000C3212880320821AD200081CD040021C1D
:10082000D1B23A1CD1543B1C0C333A1C0C32128806
:1008300001321A803B1C0C331B88032BDED93B1C76
:100840000E331B88DBB220221343DAB23B1C101C90
:10085000191C0422FFF7A4FD3B1C0E333A1C0E3278
:10086000128801321A803B1C0E331B880D2BC0D915
:100870003B1C0C3300221A8023E0C04600040048D1
:10088000000015010000FF03FFEAFFFF63190000ED
:1008900004170000341700003C170000C0160000C9
:1008A0003B1C0C331B883A1C0C3212883449895C7F
:1008B0003A1CD1543B1C0C333A1C0C3212880132C6
:1008C0001A803B1C0C331B880A2BE9D93B1C2E20B9
:1008D000191C0B22FFF764FD3B1C0C3300221A800D
:1008E00015E03B1C0C331A88264B19693B1C0C3352
:1008F0001B88DB00081CD840031CD9B23B1C995450
:100900003B1C0C333A1C0C32128801321A803B1CFF
:100910000C331B88032BE4D93B1C1B7806221343A2
:10092000DAB23B1C1A703B1C2420191C0422FFF76E
:1009300037FD3B1C1B7806229343DAB23B1C1A702E
:100940003B1C2420191C0422FFF72AFD3B1C0E33FC
:1009500000221A8006E03B1C0E333A1C0E3212882D
:1009600001321A803B1C0E331A88074B9A42F2D987
:100970000020FFF795FDFFF755FDBD4604B080BD93
:10098000F8160000C01600009F0F000090B587B059
:1009900000AF78603B1C173300221A707B683B6104
:1009A0003C1C0F340720FFF785FC031C23703C1C04
:1009B0000E346020FFF77EFC031C23703B1C0E33BB
:1009C0001B78202B0FD87A683B1C0E331B786120D4
:1009D000111C1A1CFFF79CFC3B1C17333A1C0E32EF
:1009E00012781A7003E0E2200021FFF737FC3C1C6C
:1009F0000D341720FFF75EFC031C23703B1C0D33E6
:100A00001A7801231340D2D03B1C17331B783A6964
:100A1000D31800221A703B1C0F331B782720191C97
:100A2000FFF71CFC3B1C17331B78181CBD4607B096
:100A300090BDC04680B582B000AF194B184A5269CC
:100A40008021C9020A435A61154B154A9269012156
:100A50000A439A61134B134AD26801210A43DA60B0
:100A6000114B01229A60114B104A126801210A436E
:100A70001A600E4B0D4AD26801210A43DA603B1D11
:100A800005221A703B1D00225A703B1D01229A70EC
:100A90003B1D181C00F002FDBD4602B080BDC046E3
:100AA0000010024000040048000001400004014022
:100AB00080B500AF80231B03181C0121FFF702FB48
:100AC000124B124A1268A021C9020A431A600F4B46
:100AD0000E4A9268F02109030A439A600B4B0B4AB5
:100AE000928A92B2C02189000A4392B29A82FFF799
:100AF00037FD00F0ABF92920FFF700FD044B181C6F
:100B0000FFF720FBFFF72AFBFCE7C0460008004880
:100B1000150B000080B582B000AF78600A1CFB1C8A
:100B20001A701F4B1B78DBB25A011E4BD118FB1CED
:100B30001B787A68081C111C1A1C00F083FD1A4BE4
:100B4000181C012100F0D6F8154B1B78DBB20122EE
:100B50005340DAB2124B1A70144B1B78DBB20122ED
:100B600053405A1E9341DAB2104B1A70104B1B8837
:100B700001339AB20E4B1A800D4B1B880F2B0BD1F1
:100B80000C4B0C4A928A92B2802189004A4092B260
:100B90009A82074B00221A80BD4602B080BDC04633
:100BA000790000203000002030000240BC0000200E
:100BB000040000200008004880B582B000AF7860D3
:100BC0007B681B681A1C264B1A407B681A607B687E
:100BD00000221A607B6800225A607B6800229A60BB
:100BE0007B680022DA607A681E4B9A4206D11E4B5F
:100BF0001D4A52680F210A435A602DE07A681B4B48
:100C00009A4206D1184B184A5268F0210A435A609A
:100C100022E07A68164B9A4207D1134B124A526867
:100C2000F02109010A435A6016E07A68114B9A4292
:100C300007D10D4B0C4A5268F02109020A435A6051
:100C40000AE07A680C4B9A4206D1074B064A526872
:100C5000F02109030A435A60BD4602B080BDC04678
:100C6000FEFF000008000240000002401C0002409D
:100C700030000240440002405800024080B584B079
:100C800000AF786039600023FB607B681B68FB6005
:100C9000FA68174B1340FB603B689A683B681B6A15
:100CA0001A433B681B691A433B685B691A433B68FC
:100CB0009B691A433B68DB691A433B685B6A1A43CA
:100CC0003B689B6A1343FA681343FB607B68FA68CE
:100CD0001A603B68DA687B685A603B681A687B6810
:100CE0009A603B685A687B68DA60BD4604B080BD94
:100CF0000F80FFFF80B582B000AF78600A1CFB1C3C
:100D00001A70FB1C1B78002B06D07B681B68012225
:100D10001A437B681A6006E07B681B681A1C034B49
:100D20001A407B681A60BD4602B080BDFEFF00001D
:100D300080B584B000AFF860B960FB1D1A70FB1D70
:100D40001B78002B07D0FB681B681A1CBB681A4372
:100D5000FB681A6006E0FB681B68BA68D2431A4059
:100D6000FB681A60BD4604B080BDC04690B500AFB8
:100D70001C4B1B8A9BB21A1C01231340DBB2002BB5
:100D80002ED0184B174A128A92B201218A4392B28E
:100D90001A82154B1B78DBB2012B21D1134B1B7828
:100DA0000133DAB2114B1A70104B1B781F2B05D987
:100DB0000D4B00221A700D4B00221A700C4B1B7841
:100DC000DBB201225340DBB2191C084B1B781A1C02
:100DD000084B49018A18D35C1C1C074B221C1A6162
:100DE000BD4690BD001000407A00002006000020A3
:100DF00079000020300000200074004080B500AF72
:100E00000D4B1B681A1C0223134013D00A4B0A4ACD
:100E1000526802210A435A60084B094A1278D2B23A
:100E200001214A40D2B25101064A8A18DA60064BC3
:100E300001221A70BD4680BD000002400800024039
:100E4000700000207C0000207800002080B584B075
:100E500000AF10200121FFF755F93B1D181C00F0D1
:100E6000E7F93B1D494A5A603B1D00221A803B1D91
:100E700000221A813B1D00225A80454A3B1D101C4E
:100E8000191C00F05DF9424B181C202100F008FAF3
:100E90003F4B181C012100F0E3F980239B02181C32
:100EA0000121FFF70FF93B4B10221A60394B032247
:100EB0001A719023DA05374B101C191C00F0A2F8A8
:100EC00080239B05181C0121FFF71CF9324B0422DB
:100ED0001A60314B02225A602F4B0020191C00F07F
:100EE00033FB0020012100F05BFB0020012100F01A
:100EF0007FFB01200121FFF7E5F8284B181CFFF7C5
:100F00005BFE274B274A1A60274B1B78DBB25A013E
:100F1000264BD3181A1C224B5A60214B10229A6080
:100F20001F4B2022DA601E4B00221A611C4B8022CC
:100F30005A611B4B00229A61194B0022DA61184B4F
:100F400020221A62164B802292015A62144B002210
:100F50009A62124A124B101C191CFFF78FFE0F4B9E
:100F6000181C02210122FFF7E3FE114B0A221A701E
:100F70000F4B01225A700E4B01229A700C4B181C19
:100F800000F08CFABD4604B080BDC046701700006A
:100F900000100040C8000020C000002030000240C7
:100FA000D4000020107400407000002030000020A9
:100FB000D000002080B500AF0E4B1B681A1C8023A8
:100FC0009B00134013D00B4B0A4A526880218900C2
:100FD0000A435A60084B181C0021FFF78BFE064B92
:100FE000064A1278D2B25101054A8A18DA60BD4623
:100FF00080BDC0460000024030000240700000206A
:101000003000002080B586B000AF786039600023E2
:101010007B6100233B610023FB6000237B6188E050
:101020007B690122101C9840031C3B613B681B68D4
:101030003A691340FB60FA683B699A4276D13B6893
:101040001B79012B03D03B681B79022B39D17B68BC
:101050009B687A6952000321081C9040021CD2430D
:101060001A407B689A607B689B681A1C3B685B79B6
:10107000191C7B695B00081C9840031C1A437B68A1
:101080009A607B689B889BB27A6992B20121081CA6
:101090009040021C92B2D24392B213409AB27B6843
:1010A0009A807B689B889AB23B689B79191C7B6904
:1010B0009BB2081C9840031C9BB213439AB27B68F6
:1010C0009A807B681B687A6952000321081C904053
:1010D000021CD2431A407B681A607B681B681A1C8A
:1010E0003B681B79191C7B695B00081C9840031C3A
:1010F0001A437B681A607B68DB687A6992B2520097
:101100000321081C9040021CD2431A407B68DA601D
:101110007B68DB681A1C3B68DB79191C7B695B0008
:10112000081C9840031C1A437B68DA607B69013312
:101130007B617B690F2B00D872E7BD4606B080BD8E
:1011400080B584B000AF786039603B1C0E3300225C
:101150001A803B1C0E337A6812881A807A682D4BED
:101160009A4208D07A688023DB059A4203D07A68D5
:10117000294B9A4210D13B1C0E333A1C0E32128876
:1011800070218A431A803B6859883B1C0E333A1CF5
:101190000E3212880A431A807A68204B9A4210D085
:1011A0003B1C0E333A1C0E3211881D4A0A401A802D
:1011B0003B6819893B1C0E333A1C0E3212880A43D5
:1011C0001A807B683A1C0E3212881A803B685A6873
:1011D0007B68DA623B681A887B681A857A680D4BEF
:1011E0009A420BD07A680F4B9A4207D07A680E4B1E
:1011F0009A4203D07A680D4B9A4204D13B689B7A9D
:101200001A1C7B681A867B6801229A82BD4604B04C
:1012100080BDC046002C014000040040001000408A
:10122000FFFCFFFF00400140004401400048014036
:1012300080B582B000AF78607B68012252425A606C
:101240007B6800221A807B6800221A817B6800225A
:101250005A807B6800229A72BD4602B080BDC046AB
:1012600080B582B000AF78600A1CFB1C1A70FB1CB2
:101270001B78002B08D07B681B889BB2012213438C
:101280009AB27B681A8007E07B681B889BB20122B8
:1012900093439AB27B681A80BD4602B080BDC046B7
:1012A00080B582B000AF78600A1CBB1C1A807B68D6
:1012B0009B889BB2702293439AB27B689A807B682A
:1012C0009B889AB2BB1C1B8813439AB27B689A8096
:1012D000BD4602B080BDC04680B500AF1D4B1D4A63
:1012E000126801210A431A601A4B1A4A5268111CEB
:1012F000194A0A405A60174B164A1268111C174ABD
:101300000A401A60134B134A1268111C144A0A400F
:101310001A60104B0F4A5268111C124A0A405A6058
:101320000C4B0C4AD26A0F218A43DA62094B094AF4
:10133000126B111C0C4A0A401A63064B054A526B89
:1013400001218A435A63034B00229A6000F00EF891
:10135000BD4680BD001002400CB8FFF8FFFFF6FE4E
:10136000FFFFFBFFFFFFC0FFACFEFFFF80B582B0B9
:1013700000AF00237B6000233B60334B324A12688E
:10138000802149020A431A602F4B1B681A1C8023D4
:101390009B0213403B607B6801337B603B68002B02
:1013A00004D17A68A023DB009A42EDD1264B1B685A
:1013B0001A1C80239B02134002D001233B6001E0F2
:1013C00000233B603B68012B3BD1204B11221A606C
:1013D0001D4B1D4A52685A601B4B1B4A52685A608B
:1013E000194B194A5268111C194A0A405A60164B87
:1013F000154A5268882149030A435A60124B124A1F
:101400001268802149040A431A60C0460E4B1B68CB
:101410001A1C80239B041340F8D00B4B0A4A5268D5
:1014200003218A435A60084B074A526802210A4343
:101430005A60C046044B5B681A1C0C231340082BEF
:10144000F8D1BD4602B080BD00100240002002402D
:10145000FFFFC0FF002103E00A4B5B5843500431FB
:1014600009480A4B42189A42F6D3094A02E000237F
:1014700013600432074B9A42F9D3FFF72DFFFFF7B1
:1014800017FB7047441700000000002000000020F8
:101490000000002000010020FEE7000080B584B0BD
:1014A00000AF78600023FB607B689B78002B3CD00A
:1014B000244B7A6812789208D2B2C0329200D35884
:1014C000FB607B681B781A1C03231340DB00FF22A0
:1014D000101C9840031CDA43FB681340FB607B68D8
:1014E0005B789A01FF231A407B681B78191C032341
:1014F0000B40DB00111C99400B1CFA681343FB6086
:10150000104B7A6812789208D2B2C0329200F96811
:10151000D1500C4B7A681278111C1F220A4001210D
:10152000081C9040021C1A6009E0064A7B681B7880
:10153000191C1F230B40012199408023D150BD4627
:1015400004B080BD00E100E080B584B000AF7860F9
:1015500039600023FB600023BB60104B1B68FB60FD
:101560007B683E22111C99400B1CDA43FB68134038
:10157000FB603B681A683B685B681343BB607B6831
:10158000BA68111C99400B1CFA681343FB60034BAB
:10159000FA681A60BD4604B080BDC04600740040C1
:1015A00090B583B000AF78600A1CFB1C1A70FB1C5E
:1015B0001B78002B0BD00D4B0C4A1268111C7A685B
:1015C0000120041C9440221C0A431A600AE0074BC5
:1015D000064A126879680120041C8C40211CC9430A
:1015E0000A401A60BD4603B090BDC046007400407A
:1015F00090B583B000AF78600A1CFB1C1A70FB1C0E
:101600001B78002B0CD00E4B0D4A1268111C7A6807
:1016100080204001041C9440221C0A431A600BE005
:10162000074B074A1268796880204001041C8C40EF
:10163000211CC9430A401A60BD4603B090BDC04694
:1016400000740040F0B5051C0F2A2FD90B1C034372
:10165000051C9C072CD10C1C031C151C2668103D76
:101660001E6066685E60A6689E60E6681034DE6094
:1016700010330F2DF2D8131C103B1B0901331B0133
:10168000C518C9180F231A40032A0FD90E1C2C1C89
:10169000131C80CE043B80C4032BFAD8131F9B0875
:1016A00001339B0003242240C918ED18002A05D0FD
:1016B0000023CC5CEC5401339342FAD1F0BDC04618
:1016C000404B01E2C04B0000D0FC8C029900394134
:1016D000F99E860B24067FA6000000000000000093
:1016E00000000000000000000000000000000000FA
:1016F000007312000080B436412008048120CFF727
:10170000FEFFFF00000F013F023F030304FF051728
:1017100006170707080009000CC30DC40EC50FC645
:1017200011201220132014201520162017001C3F12
:101730001D0700003443101001000000393837360F
:04174000C2000000E3
:00000001FF
