:100000000C9446000C9465000C9465000C946500FB
:100010000C9465000C9465000C9465000C946500CC
:100020000C9465000C9465000C9465000C946500BC
:100030000C9465000C9465000C9465000C947000A1
:100040000C9465000C9465000C9465000C9465009C
:100050000C9465000C9465000C9465000C9465008C
:100060000C9465000C9465000C9465000C9465007C
:100070000C9465000C9465000C9465000C9465006C
:100080000C9465000C9465000C94650011241FBE4F
:10009000CFEFD0E1DEBFCDBF12E0A0E0B1E0ECEAEF
:1000A000F6E100E00BBF02C007900D92AA31B10744
:1000B000D9F712E0AAE1B2E001C01D92AC31B1075C
:1000C000E1F70E94EC030C94540B0C94000083B7EE
:1000D0008F6083BF8CE981BF87B7826087BF089537
:1000E0001F920F920FB60F9211248F9380911A02D4
:1000F0008F5F80931A02823321F481E080931B0288
:1001000007C0843629F482E080931B0210921A0201
:100110008F910F900FBE0F901F901895982F862FDC
:10012000692F41E00E94EE010895982F862F692FD4
:1001300041E021E00E94B40108959F92AF92BF92E6
:10014000CF92DF92EF92FF920F931F93CF93DF93A3
:10015000E82E6EEE41E021E00E94B4018823C9F44C
:100160008E2D6AEA41E00E94EE01182F8E2D68EA7A
:1001700041E00E94EE01082F8E2D69EA41E00E94C5
:10018000EE01982E1E3729F00E3719F08EE79816DB
:1001900029F420910C0130910D017EC0612F70E097
:1001A00080E090E00E942D0820E030E040E85EE32F
:1001B0000E9447055B016C01692D70E0601B7109AD
:1001C000882777FD8095982F0E947B077B018C0103
:1001D000692D70E080E090E00E942D089B01AC0149
:1001E000C801B7010E949F069B01AC01C601B50181
:1001F0000E94780520E030E040E251E40E94A5052D
:100200007B018C010E94D907EB01BE01882777FD95
:100210008095982F0E947B079B01AC01C801B70114
:100220000E94470520E030E040E05FE30E944B077A
:1002300088230CF02196D7FF07C08DE28093000140
:10024000D095C195DF4F03C08BE280930001CE01B2
:100250006AE070E00E949B0A806380930401CE01F3
:100260006AE070E00E949B0A9B01CB016AE070E0AB
:100270000E949B0A806380930201C9016AE070E0DA
:100280000E949B0ACB016AE070E00E949B0A806397
:100290008093010120E031E0C901DF91CF911F91EE
:1002A0000F91FF90EF90DF90CF90BF90AF909F9015
:1002B00008951F93182F60EA76E881E090E00E948D
:1002C0006901812F6CEA41E023E00E94B4011F9193
:1002D0000895EF92FF921F939B01AC0190E7E92EE6
:1002E000F12CF701108160E472E48FE090E00E944D
:1002F000AE0A569547953795279520513040404096
:100300005040122BF7011083E1E7F0E080818083F9
:100310001F91FF90EF90089584EA8093740080917C
:10032000740087FFFCCF089584E980937400809166
:10033000740084FFFCCF08958093730084E8809359
:1003400074008091740087FFFCCF08958295880F18
:10035000880F807C8468809374008091740087FF8C
:10036000FCCF809173000895982F84EA80937400E5
:100370008091740087FFFCCF9093730084E8809392
:1003800074008091740087FFFCCF6093730084E851
:10039000809374008091740087FFFCCF20937300DA
:1003A00084E8809374008091740087FFFCCF809173
:1003B0007100887F883249F084E9809374008091CD
:1003C000740084FFFCCF81E0089584E98093740079
:1003D0008091740084FFFCCF80E00895982F84EA18
:1003E000809374008091740087FFFCCF909373001A
:1003F00084E8809374008091740087FFFCCF609341
:10040000730084E8809374008091740087FFFCCFB0
:1004100084EA809374008091740087FFFCCF81E0B0
:1004200089278093730084E880937400809174001E
:1004300087FFFCCF84E8809374008091740087FF6D
:10044000FCCF9091730080917100887F883541F0D6
:1004500084E9809374008091740084FFFCCF9EE750
:10046000892F089580FF02C0AC9A01C0AC9881FF2B
:1004700002C0AD9A01C0AD9882FF02C0AE9A01C021
:10048000AE9883FF02C0AF9A0895AF98089583B3E2
:1004900090E024E0969587952A95E1F781709D99E3
:1004A00082609E9984609F99886008951F93A798A1
:1004B000A698A598A498A99AAA9A0E944702182FCC
:1004C0001295107FAA98AA9A0E944702AA98812B97
:1004D0001F910895A8980E94560208951F93182FFF
:1004E000A79AA69AA59AA49AA998AA9A82958F7073
:1004F0000E943202AA98AA9A812F0E943202AA98D8
:100500000E946A0287FDFCCF1F910895A8980E945F
:100510006E020895A89A0E946E020895982F80583E
:10052000883008F49770892F0E948A020895CF932B
:10053000DF93EC0108C0892F8058883008F4977049
:10054000892F0E948A0299919923A9F7DF91CF916F
:100550000895CF93DF93EC010AC0892F805888302B
:1005600010F0892F02C0892F87700E948A02FE0135
:1005700021969491992389F7DF91CF9108951F9344
:10058000CF93DF93EB0190E0877090700896880F0F
:10059000880F880F0E94860210E089910E948A02CB
:1005A0001F5F1830D1F7DF91CF911F9108950F93FE
:1005B0001F93CF93DF938B0190E087709070089624
:1005C000880F880F880F0E948602C0E0D0E0F801F3
:1005D000EC0FFD1FE4918E2F0E948A022196C830F5
:1005E000D105A9F7DF91CF911F910F910895813027
:1005F00009F480E46058860F0E948602089581E025
:100600000E94860208951F93A79AA69AA59AA49A73
:10061000A09AA29AA19AA89AAA9AA99A86EA9EE072
:100620000197F1F7AA98A898A998AA9A83E00E943E
:100630003202AA9881E094E00197F1F7AA9A83E048
:100640000E943202AA9811E2812F8A95F1F7AA9AA4
:1006500083E00E943202AA98812F8A95F1F7AA9A24
:1006600082E00E943202AA981A95F1F788E20E946D
:10067000860288E00E9486028CE00E94860286E064
:100680000E9486020E94FF021F9108950F931F93FC
:10069000CF93DF938B0190E0877090700896880F5E
:1006A000880F880F0E948602C0E0D0E0C8018C0F3E
:1006B0009D1F0E943C0B0E948A022196C830D105E2
:1006C000A9F7DF91CF911F910F910895CF93DF93F9
:1006D000EC0121960E943C0B982F81508E3F48F4EC
:1006E0008F57883008F49770892F0E948A02CE01B4
:1006F000EFCFDF91CF910895DF93CF93CDB7DEB7E2
:1007000061970FB6F894DEBF0FBECDBFBE016F5F1D
:100710007F4F40E150E00E941B0B0E9497026196C0
:100720000FB6F894DEBF0FBECDBFCF91DF91089515
:10073000DF93CF93CDB7DEB761970FB6F894DEBFE6
:100740000FBECDBFBE016F5F7F4F4AE050E00E94F9
:100750001B0B0E94970261960FB6F894DEBF0FBE86
:10076000CDBFCF91DF9108959093900089B988E132
:100770008AB986E4809395000895FC0103C05D9BCF
:10078000FECF8CB981918823D1F708955D9BFECF70
:100790008CB908950F931F93DF93CF93CDB7DEB736
:1007A00061970FB6F894DEBF0FBECDBF8E010F5F0D
:1007B0001F4FB8014AE050E00E941B0BC8010E9485
:1007C000BD0361960FB6F894DEBF0FBECDBFCF91CB
:1007D000DF911F910F9108950E94030380E060E074
:1007E0000E94F7028EE091E00E9497028AB38FEF99
:1007F0008ABB8BBBFFCFA0E0B0E0E1E0F4E00C945B
:10080000E40ADC012B01FA019C91923008F439C111
:10081000EB018881823008F433C1943069F484306C
:1008200009F02FC111969C9111978981981709F4AD
:1008300028C1A2E1B1E025C1843009F421C1823090
:10084000A9F4923009F01DC19A01AD0188E0EA01D6
:100850000990AE01E90109929E018150C1F7E201C0
:10086000898111969C918923818308C1923009F472
:1008700007C112962D903C901397EB018A819B81C2
:100880001496AD90BD90CD90DC901797EC80FD80D4
:100890000E811F819101281B390BB90137FF04C05C
:1008A00066277727621B730B603271050CF061C0FD
:1008B000121613066CF537014801062E04C09694F3
:1008C0008794779467940A94D2F721E030E040E06F
:1008D00050E004C0220F331F441F551F6A95D2F702
:1008E00021503040404050402E213F214023512391
:1008F000211531054105510521F021E030E040E0AE
:1009000050E079018A01E628F728082919293CC016
:10091000232BD1F1260E371E35014601062E04C0C9
:1009200096948794779467940A94D2F721E030E004
:1009300040E050E004C0220F331F441F551F6A954A
:10094000D2F721503040404050402A213B214C21D9
:100950005D21211531054105510521F021E030E0EF
:1009600040E050E059016A01A628B728C828D928D4
:100970000BC0821593052CF01C01AA24BB24650131
:1009800003C0EE24FF24870111969C91D201119699
:100990008C91981709F445C0992339F0A801970163
:1009A0002A193B094C095D0906C0A60195012E19BB
:1009B0003F09400B510B57FD08C011823382228240
:1009C00024833583468357831DC081E0818333822E
:1009D000228288279927DC01821B930BA40BB50B7D
:1009E00084839583A683B7830DC0220F331F441FD2
:1009F000551F2483358346835783828193810197D2
:100A0000938382832481358146815781DA01C9012C
:100A10000197A109B1098F5F9F4FAF4FBF4328F3E3
:100A20000BC0918333822282EA0CFB1C0C1D1D1D1E
:100A3000E482F5820683178383E0808324813581F5
:100A40004681578157FF1AC0C901AA2797FDA09573
:100A5000BA2F81709070A070B070569547953795F9
:100A60002795822B932BA42BB52B84839583A68368
:100A7000B78382819381019693838283DF0101C0D2
:100A8000D201CD01CDB7DEB7E2E10C94000BA0E2BC
:100A9000B0E0EDE4F5E00C94F00A69837A838B838F
:100AA0009C832D833E834F835887E9E0EE2EF12C03
:100AB000EC0EFD1ECE010196B7010E94CA098E01FF
:100AC0000F5E1F4FCE010596B8010E94CA098A89A0
:100AD00091E089278A8BC701B801AE01475E5F4F5D
:100AE0000E94FB030E94F508A096E6E00C940C0B14
:100AF000A0E2B0E0EEE7F5E00C94F00A69837A83B7
:100B00008B839C832D833E834F835887F9E0EF2EA0
:100B1000F12CEC0EFD1ECE010196B7010E94CA0910
:100B20008E010F5E1F4FCE010596B8010E94CA09C3
:100B3000C701B801AE01475E5F4F0E94FB030E94F0
:100B4000F508A096E6E00C940C0BA0E2B0E0EBEA0E
:100B5000F5E00C94E40A69837A838B839C832D836C
:100B60003E834F835887CE010196BE01675F7F4F5A
:100B70000E94CA09CE010596BE016F5E7F4F0E949A
:100B8000CA099985923088F089898230C8F09430FA
:100B900019F4823051F404C0843029F4923081F485
:100BA00082E191E0C6C0923049F420E09A858A89BA
:100BB000981321E02A87CE010996BBC0823049F400
:100BC00020E09A858A89981321E02A8BCE014196EC
:100BD000B0C02D843E844F8458886D887E888F886D
:100BE000988CEE24FF248701AA24BB24650140E0F1
:100BF00050E060E070E0E0E0F0E0C10181709070F2
:100C0000892BE9F0E60CF71C081D191D9A01AB01B0
:100C10002A0D3B1D4C1D5D1D80E090E0A0E0B0E082
:100C2000E614F7040805190520F481E090E0A0E03F
:100C3000B0E0BA01A901480F591F6A1F7B1FAA0C17
:100C4000BB1CCC1CDD1C97FE08C081E090E0A0E03E
:100C5000B0E0A82AB92ACA2ADB2A3196E032F10587
:100C600049F0660C771C881C991C5694479437945D
:100C70002794C3CFFA85EA892B893C898B859C858B
:100C8000280F391F2E5F3F4F17C0CA018170907027
:100C9000892B61F016950795F794E79480E090E032
:100CA000A0E0B0E8E82AF92A0A2B1B2B7695679575
:100CB000579547952F5F3F4F77FDE7CF0CC0440F07
:100CC000551F661F771F17FD4160EE0CFF1C001FAC
:100CD000111F21503040403090E0590790E06907E3
:100CE00090E4790760F32B8F3C8FDB01CA018F778B
:100CF0009070A070B07080349105A105B10561F4C9
:100D000047FD0AC0E114F1040105110529F0405C1A
:100D10005F4F6F4F7F4F40781A8EFE1711F081E0C2
:100D20008A8F4D8F5E8F6F8F78A383E0898FCE017E
:100D300049960E94F508A096E2E10C94000BA8E108
:100D4000B0E0E5EAF6E00C94EC0A69837A838B83E1
:100D50009C832D833E834F835887B9E0EB2EF12C83
:100D6000EC0EFD1ECE010196B7010E94CA098E014C
:100D70000F5E1F4FCE010596B8010E94CA09298552
:100D8000223008F47EC03989323010F4B8017CC0BA
:100D90008A859A8989278A87243011F0223031F494
:100DA000231709F06EC062E171E06EC0343039F48F
:100DB0001D861E861F86188A1C861B8604C032303C
:100DC00021F484E08987B7015FC02B853C858B893E
:100DD0009C89281B390B3C872B87ED84FE840F856B
:100DE0001889AD88BE88CF88D88CEA14FB040C051E
:100DF0001D0540F4EE0CFF1C001F111F2150304058
:100E00003C872B8720E030E040E050E080E090E03D
:100E1000A0E0B0E460E070E0EA14FB040C051D05FE
:100E200040F0282B392B4A2B5B2BEA18FB080C09C6
:100E30001D09B695A79597958795EE0CFF1C001F89
:100E4000111F6F5F7F4F6F31710531F7DA01C901F3
:100E50008F779070A070B07080349105A105B105B6
:100E600061F427FD0AC0E114F1040105110529F020
:100E7000205C3F4F4F4F5F4F20782D873E874F8735
:100E8000588BBE01675F7F4FCB010E94F5086896C3
:100E9000EAE00C94080BA8E1B0E0E1E5F7E00C947F
:100EA000F00A69837A838B839C832D833E834F83EF
:100EB000588789E0E82EF12CEC0EFD1ECE0101963C
:100EC000B7010E94CA098E010F5E1F4FCE01059621
:100ED000B8010E94CA098985823040F08989823030
:100EE00028F0C701B8010E94420A01C08FEF68963E
:100EF000E6E00C940C0BA8E0B0E0E1E8F7E00C941D
:100F0000ED0A9B01AC0183E08983DA01C9018827DE
:100F1000B7FD83959927AA27BB27B82E2115310540
:100F20004105510519F482E089833AC08823A9F06C
:100F3000203080E0380780E0480780E8580729F42F
:100F400060E070E080E09FEC30C0EE24FF24870179
:100F5000E21AF30A040B150B02C079018A018EE133
:100F6000C82ED12CDC82CB82ED82FE820F831887C3
:100F7000C801B7010E94A60801971816190684F443
:100F8000082E04C0EE0CFF1C001F111F0A94D2F79C
:100F9000ED82FE820F831887C81AD90ADC82CB82C1
:100FA000BA82CE0101960E94F5082896E9E00C94D9
:100FB000090BACE0B0E0EFEDF7E00C94F40A6983C4
:100FC0007A838B839C83CE010196BE016B5F7F4F3A
:100FD0000E94CA098D81823061F1823050F18430E3
:100FE00021F48E81882351F12EC02F81388537FD61
:100FF00020C06E812F3131051CF06623F9F023C02B
:101000008EE190E0821B930B29853A854B855C85A8
:1010100004C056954795379527958A95D2F766234C
:10102000B1F050954095309521953F4F4F4F5F4F10
:101030000EC020E030E040E050E009C02FEF3FEF6D
:101040004FEF5FE704C020E030E040E050E8B90136
:10105000CA012C96E2E00C94100BA8E0B0E0E3E3A8
:10106000F8E00C94EC0A7B018C0161157105810597
:10107000910519F482E0898360C083E089838EE161
:10108000C82ED12CDC82CB82ED82FE820F831887A2
:10109000C801B7010E94A608FC013197F7FF3BC0C9
:1010A000222733272E1B3F0B57016801022E04C055
:1010B000D694C794B794A7940A94D2F740E050E02E
:1010C00060E070E081E090E0A0E0B0E004C0880F54
:1010D000991FAA1FBB1F2A95D2F70197A109B10931
:1010E0008E219F21A023B1230097A105B10521F0F6
:1010F00041E050E060E070E04A295B296C297D29DD
:101100004D835E836F8378878EE190E08E1B9F0B0B
:101110009C838B8312C0309781F00E2E04C0EE0C9E
:10112000FF1C001F111F0A94D2F7ED82FE820F836D
:101130001887CE1ADF0ADC82CB821A82CE01019692
:101140000E94F5082896EAE00C94080BEF92FF92B3
:101150000F931F937B018C0180E0E81680E0F80676
:1011600081E0080780E0180788F48FEFE816F104A3
:101170000105110531F028F088E090E0A0E0B0E032
:1011800017C080E090E0A0E0B0E012C080E0E81678
:1011900080E0F80680E0080781E0180728F088E181
:1011A00090E0A0E0B0E004C080E190E0A0E0B0E01A
:1011B00020E230E040E050E0281B390B4A0B5B0B8B
:1011C00004C016950795F794E7948A95D2F7F7012E
:1011D000E65EFE4F8081281B310941095109C90192
:1011E0001F910F91FF90EF900895DF92EF92FF9281
:1011F0000F931F93FC01E480F58006811781D18055
:101200008081823048F480E090E0A0E1B0E0E82AFC
:10121000F92A0A2B1B2BA5C0843009F49FC0823009
:1012200021F4EE24FF24870105C0E114F104010537
:10123000110519F4E0E0F0E096C0628173819FEF40
:10124000623879070CF05BC022E83FEF261B370BB2
:101250002A3131052CF020E030E040E050E02AC097
:10126000B801A701022E04C076956795579547955A
:101270000A94D2F781E090E0A0E0B0E004C0880FCB
:10128000991FAA1FBB1F2A95D2F70197A109B1097F
:101290008E219F21A023B1230097A105B10521F044
:1012A00081E090E0A0E0B0E09A01AB01282B392B5F
:1012B0004A2B5B2BDA01C9018F779070A070B07058
:1012C00080349105A105B10539F427FF09C0205CE0
:1012D0003F4F4F4F5F4F04C0215C3F4F4F4F5F4F19
:1012E000E0E0F0E02030A0E03A07A0E04A07A0E408
:1012F0005A0710F0E1E0F0E079018A0127C0603878
:10130000710564F5FB01E158FF4FD801C7018F77E4
:101310009070A070B07080349105A105B10539F4CA
:10132000E7FE0DC080E490E0A0E0B0E004C08FE3F1
:1013300090E0A0E0B0E0E80EF91E0A1F1B1F17FFA7
:1013400005C016950795F794E794319687E01695B2
:101350000795F794E7948A95D1F705C0EE24FF240A
:101360008701EFEFF0E06E2F679566276795902F66
:101370009F77D794DD24D7948E2F8695492F462BBF
:10138000582F5D29B701CA011F910F91FF90EF906F
:10139000DF900895FC01DB01408151812281622FA1
:1013A0006F7770E0221F2227221F9381892F880FD9
:1013B000822B282F30E0991F9927991F11969C9313
:1013C000119721153105A9F54115510561057105E3
:1013D00011F482E037C082E89FEF13969C938E93BE
:1013E00012979A01AB0167E0220F331F441F551F6C
:1013F0006A95D1F783E08C930DC0220F331F441FF1
:10140000551F12968D919C911397019713969C935B
:101410008E931297203080E0380780E0480780E400
:10142000580758F314962D933D934D935C9317975B
:1014300008952F3F310579F4411551056105710576
:1014400019F484E08C93089564FF03C081E08C93C9
:1014500012C01C9210C02F57304013963C932E930D
:10146000129783E08C9387E0440F551F661F771F08
:101470008A95D1F7706414964D935D936D937C9328
:10148000179708951F93DC01FB019C91923008F49B
:1014900047C08081823008F443C0943051F41196E3
:1014A0001C91843099F58181682F70E0611B71096E
:1014B0003FC0843021F0923031F48230B9F1818123
:1014C000882389F12DC011961C9111978230F1F07B
:1014D00081811817D9F412962D913C91139782812E
:1014E00093818217930794F028173907BCF014965C
:1014F0008D919D910D90BC91A02D248135814681C7
:101500005781281739074A075B0718F4112341F060
:101510000AC082179307A407B50740F4112319F0F6
:1015200061E070E005C06FEF7FEF02C060E070E047
:10153000CB011F91089597FB092E07260AD077FD4E
:1015400004D02ED006D000201AF4709561957F4FFC
:101550000895F6F7909581959F4F0895A1E21A2E70
:10156000AA1BBB1BFD010DC0AA1FBB1FEE1FFF1F47
:10157000A217B307E407F50720F0A21BB30BE40B97
:10158000F50B661F771F881F991F1A9469F76095DE
:101590007095809590959B01AC01BD01CF01089598
:1015A000AA1BBB1B51E107C0AA1FBB1FA617B70789
:1015B00010F0A61BB70B881F991F5A95A9F78095A5
:1015C0009095BC01CD0108952F923F924F925F926A
:1015D0006F927F928F929F92AF92BF92CF92DF9243
:1015E000EF92FF920F931F93CF93DF93CDB7DEB7A8
:1015F000CA1BDB0B0FB6F894DEBF0FBECDBF09943C
:101600002A88398848885F846E847D848C849B8492
:10161000AA84B984C884DF80EE80FD800C811B81A0
:10162000AA81B981CE0FD11D0FB6F894DEBF0FBECF
:10163000CDBFED010895FB019F01E8944230C4F055
:101640004532B4F44A3029F497FB1EF49095819505
:101650009F4F642F77270E94D00A805D8A330CF059
:10166000895D8193CB010097A1F716F45DE2519358
:101670001082C9010C94440BE199FECF9FBB8EBB35
:10168000E09A99278DB30895DC01FC01672F7191D1
:101690007723E1F7329704C07C916D937083629158
:0C16A000AE17BF07C8F30895F894FFCF01
:1016AC002B78782E78002D2D2D2D2D000601543100
:1016BC003A000000000000000000000102020303D9
:1016CC0003030404040404040404050505050505CA
:1016DC0005050505050505050505060606060606A8
:1016EC00060606060606060606060606060606068E
:1016FC000606060606060606060607070707070778
:10170C00070707070707070707070707070707075D
:10171C00070707070707070707070707070707074D
:10172C00070707070707070707070707070707073D
:10173C000707070707070707070708080808080827
:10174C00080808080808080808080808080808080D
:10175C0008080808080808080808080808080808FD
:10176C0008080808080808080808080808080808ED
:10177C0008080808080808080808080808080808DD
:10178C0008080808080808080808080808080808CD
:10179C0008080808080808080808080808080808BD
:1017AC0008080808080808080808080808080808AD
:0A17BC0008080808080808080808D3
:00000001FF
