:020000040800F2
:100000003C120020D50B0008490C0008490C0008E0
:10001000490C0008490C0008490C000800000000C9
:10002000000000000000000000000000490C000873
:10003000490C000800000000111400086D170008AA
:10004000490C0008490C0008490C0008490C00083C
:10005000490C0008490C0008490C0008490C00082C
:10006000490C0008490C0008490C0008490C00081C
:10007000490C0008490C0008490C0008490C00080C
:10008000490C0008490C0008490C0008490C0008FC
:10009000490C0008490C0008490C0008490C0008EC
:1000A000490C0008490C0008490C0008490C0008DC
:1000B000490C0008490C0008490C0008490C0008CC
:1000C000490C0008490C0008490C0008490C0008BC
:1000D000490C0008490C0008490C0008490C0008AC
:1000E000490C0008490C0008490C0008490C00089C
:1000F000490C0008490C0008490C0008490C00088C
:10010000490C0008490C0008490C0008490C00087B
:10011000490C0008490C0008490C0008490C00086B
:10012000490C0008490C0008490C0008490C00085B
:10013000490C0008490C0008490C0008490C00084B
:10014000490C0008490C0008490C0008490C00083B
:10015000490C0008490C0008490C0008490C00082B
:10016000490C0008490C0008490C0008490C00081B
:10017000490C0008490C0008490C0008490C00080B
:10018000490C0008490C000880B400AF0E4A0F4B20
:100190001A600D4B03F1C8020C4B5A600A4A0C4B13
:1001A0001A600B4B1B684FF000021A60084B1B686B
:1001B0004FF000025A60064B1B684FF000029A6035
:1001C000BD4680BC704700BF10000020DC0000204E
:1001D000D800002080B500AF0F4B1B78DBB2012B9D
:1001E00011D10E4B1B78012B01D100F031FD0C4BCE
:1001F0001B78DBB2012B01D100F06CFB064B4FF0FA
:1002000000021A7007E0044B1B78DBB203F1FF33E6
:10021000DAB2014B1A7080BDE5000020D402002044
:10022000E600002080B500AF174B184A1A60184B43
:100230004FF007021A60174B164A126842F07F42CD
:100240001A60154A144B1B686FEA03436FEA1343A5
:10025000136000F037FA00F091FFFFF795FF0F4BA6
:100260001B78DBB203F10103DAB20C4B1A700C48B5
:100270004FF000014FF4CA520A4B00F005FC094848
:1002800001F0B6F880BD00BF14E000E07FFC0A007A
:1002900010E000E01CED00E020ED00E0E5000020B3
:1002A000A11800088802002080B500AF094B0A4A57
:1002B0001A60084B1A68094B1A60064B1B684FF00E
:1002C00001025A71034B1B68184600F0B9FAFFF798
:1002D00081FF80BD980200202001002094020020B0
:1002E00090B587B000AF0346FB71FA798B4913468E
:1002F0004FEA43039B184FEAC303CB1803F10403EF
:100300001B68FB60FB68002B00F00381844B1B78AB
:10031000DBB203F10103DAB2814B1A70814B1B6827
:10032000002B0CD1FA7913464FEA43039B184FEA8E
:10033000C3031A46794BD2187A4B1A60E6E0794B20
:100340001B687B61FB683B61DCE03A697B695B6849
:10035000D31A3B613B69002B80F2A3807B695B6908
:10036000002B34D07B695969FA7913464FEA43036D
:100370009B184FEAC3031A46684BD3180B61FA79EE
:100380007B695969654813464FEA43039B184FEA56
:10039000C303C31803F114031960FA795F491346C4
:1003A0004FEA43039B184FEAC303CB1803F1100332
:1003B0007A691A60FA7913464FEA43039B184FEAA9
:1003C000C3031A46554BD2187B695A6126E0FA7965
:1003D000544B1968514813464FEA43039B184FEAA0
:1003E000C303C31803F1100319604E4B1968FA795F
:1003F00013464FEA43039B184FEAC3031A46474B81
:10040000D3184B61FA7913464FEA43039B184FEA1E
:10041000C3031A46414BD218424B1A60FA79F97954
:100420003E480B464FEA43035B184FEAC303C31829
:1004300003F110031B6859683B69C9183748134614
:100440004FEA43039B184FEAC303C31803F10403A5
:100450001960FA79314913464FEA43039B184FEA72
:10046000C303CB1803F110031968FA792B4813461C
:100470004FEA43039B184FEAC303C31803F1100369
:100480001B685868FA79254C13464FEA43039B18BA
:100490004FEAC303E31803F104031B68C31A4B605C
:1004A00034E03B69002B2ADB7B691B69002B26D1DA
:1004B000FA791A4913464FEA43039B184FEAC303DC
:1004C000CB1803F114037A691A60FA7913464FEADC
:1004D00043039B184FEAC3031A46104BD2187B699B
:1004E0001A61FA7939690D4813464FEA43039B189C
:1004F0004FEAC303C31803F10403196006E07B69E4
:100500001B697B617B69002B7FF41FAFFFF762FEE5
:1005100000E000BF07F11C07BD4690BDE8000020C9
:10052000E50000201801002080B584B000AF03462C
:10053000FB71FA7913464FEA43039B184FEAC30352
:100540001A46314BD318FB60304B1B78DBB203F1FA
:100550000103DAB22D4B1A70FB685B69002B08D1DE
:10056000FB681B69002B04D1294B4FF000021A6075
:1005700043E0FB685B69002B16D1FB681A69244BCA
:100580001A60234B1B684FF000025A61FB681B691D
:10059000FA6812695168FA6852688A185A60FB68EA
:1005A0004FF000021A6128E0FB681B69002B09D19B
:1005B000FB685B694FF000021A61FB684FF00002B4
:1005C0005A611AE0FB685B69FA6812691A61FB6894
:1005D0001B69FA6852695A61FB681B69FA681269FB
:1005E0005168FA6852688A185A60FB684FF0000236
:1005F0001A61FB684FF000025A61FFF7EBFD07F14B
:100600001007BD4680BD00BFE8000020E5000020C7
:100610001801002080B582B000AF1C4B1B687B60C6
:1006200028E07B685B78002B0CD17B681B78184630
:10063000FFF77AFF7B684FF001029A707B68DB68F6
:10064000984714E07B685B78012B10D17B681B789E
:100650001846FFF769FF7B689A687B685A607B6879
:100660001B781846FFF73CFE7B68DB689847074B12
:100670001B687B607B68002B03D07B685B68002B6A
:10068000CFD007F10807BD4680BD00BF180100208C
:1006900080B500AF084B1B78DBB2012B08D9074BA4
:1006A0004FF001021A70064B4FF001021A7001E080
:1006B000FFF7B0FF80BD00BFE5000020D40200209E
:1006C000D602002080B485B000AF184BBB60184B39
:1006D0007B604FF00003FB7315E0BB68FA7B9A71F7
:1006E000BB684FF003025A71BB687A685A62BB68F4
:1006F00003F12C03BB607B6803F12C037B60FB7B65
:1007000003F10103FB73FB7B042BE6D9BB68FA7B87
:100710009A71BB684FF000025A62064B034A1A6096
:1007200007F11407BD4680BC704700BF20010020C0
:100730004C0100208C02002080B487B000AF7860AC
:100740007B681B79FB737B684FF000025A71374B53
:100750001B683B613B691B79FA7B9A421ED13A695F
:100760007B689A421AD03B69002B17D0304BD3E9F3
:100770000001304BD3E90023904271EB030C0DD202
:100780003B695B8918464FF000012A4BD3E90023EF
:10079000121843EB01032649C1E90023264B1B68CD
:1007A0003B613B69002B07D1244B4FF001021A70CB
:1007B000214B7A681A6034E03B691B79FA7B9A42D4
:1007C0000DD21E4B4FF001021A707B683A695A62D3
:1007D0003B697A689A62184B7A681A6021E03B6933
:1007E0005B6A7B6109E07B691B79FA7B9A4208D3DB
:1007F0007B693B617B695B6A7B617B69002BF2D122
:1008000000E000BF7B687A695A623B697A685A6285
:100810007B683A699A627B69002B02D07B697A68AF
:100820009A6207F11C07BD4680BC70479802002001
:10083000A00200203804002090020020E6000020E2
:1008400080B483B000AF78607B685B6A002B08D10E
:100850007B689B6A002B04D11D4B4FF000021A608D
:1008600031E07B689B6A002B0DD17B685A6A184B7C
:100870001A607B684FF000025A62154B1B684FF0FC
:1008800000029A621FE07B685B6A002B09D17B68DB
:100890009B6A4FF000025A627B684FF000029A6236
:1008A00011E07B689B6A7A68526A5A627B685B6A6D
:1008B0007A68926A9A627B684FF000025A627B689B
:1008C0004FF000029A6207F10C07BD4680BC7047EA
:1008D0009002002080B584B000AF4E4B1B68FB60D7
:1008E0004D4B1B68BB60BB68002B00F083804B4BFB
:1008F0001B68FA689A427FD1494B1B78DBB2012B07
:100900007CD8484B1B78DBB2002B79D1464B4FF09B
:1009100000021A70FB681B79FB71BB681B79BB7105
:10092000FB685B79012B0AD03C4BBA681A60BB6844
:100930004FF001025A71B868FFF782FF2FE0BA79D1
:10094000FB799A420DD2354BBA681A60F868FFF706
:10095000F3FEB868FFF774FFBB684FF001025A71ED
:100960001DE0FA79BB799A424CD1304BD3E90001B2
:100970002F4BD3E9002382EA000283EA010352EA03
:10098000030141D1254BBA681A60F868FFF7D4FE1D
:10099000B868FFF755FFBB684FF001025A711F4B53
:1009A0001B681A791C4B1B681B799A420ED11B4B92
:1009B0001B685B8918464FF000011D4BD3E90023EB
:1009C000121843EB01031949C1E90023FB681A68B7
:1009D000FB68DB689A4205D3FB68DB681A68154B35
:1009E0009A4204D0FB689B79184600F05FFF00F044
:1009F00005FD0AE000BF08E000BF06E000BF04E01C
:100A000000BF02E000BF00E000BF07F11007BD46D5
:100A100080BD00BF980200209002002094020020B8
:100A2000E5000020E4000020E6000020A0020020F5
:100A300038040020A5A55A5A80B582B000AF104BEB
:100A40001B78DBB203F10103DAB20D4B1A700D4BC8
:100A50001B68002B04D1FFF7BDFB4FF000030AE039
:100A6000084B1B687B60074B1B685A6A054B1A6072
:100A7000FFF7B0FB7B68184607F10807BD4680BD4D
:100A8000E50000208C02002080B588B000AFF8603F
:100A9000B9607A603B607A684A4B02EA03034FEA26
:100AA0001323BB837B68FB76FB68002B02D14FF0DE
:100AB000FF0382E03B68002B02D14FF0FF037CE094
:100AC000FB7E402B02D94FF0FF0376E0BB8B132B4C
:100AD00002D84FF0FF0370E0F868B9683A6800F098
:100AE00017FE7861FFF7A8FF38613B69002B02D140
:100AF0004FF0FF0361E03B697A691A603B69FA7E57
:100B00001A71BA8B13464FEA83739B1A4FEA830319
:100B100003F104033A68D2183B69DA603B69DB6889
:100B2000294A1A603B694FF0FF321A623B694FF065
:100B300000025A623B694FF000029A627A68234BC6
:100B400002EA03034FEA1353FB83FB8B002B02D112
:100B50004FF00A03FB833B69FA8B5A813B694FF0E4
:100B60000002DA613B694FF0FF021A723B694FF0F5
:100B700000021A613B694FF000025A613B694FF075
:100B800000029A613B694FF0FF02DA717B68002B2B
:100B90000DDB0F4B1B78DBB203F10103DAB20C4B18
:100BA0001A703869FFF7C8FDFFF714FB03E03B69D3
:100BB0004FF002025A713B699B79184607F12007F2
:100BC000BD4680BD00FF0F00A5A55A5A0000FF7F5B
:100BD000E500002080B582B000AF154B7B60154B5F
:100BE0003B600BE07B681A683B681A603B6803F166
:100BF00004033B607B6803F104037B603A680E4B9F
:100C00009A42EFD30D480E494FF000028842B8BF18
:100C100040F8042BFADBDFF82C00016841F4700186
:100C2000016000F0CDF807F10807BD4680BD00BFA8
:100C3000B8180008000000200C0000201000002060
:100C4000400A002088ED00E080B400AFFEE700BF5E
:100C500080B582B000AF404B1B78012B05D100F06E
:100C600035FA3D4B4FF000021A703C4B1B78012BBC
:100C70005AD1FFF7CFFC394B4FF000021A7056E003
:100C800000F0B0FB364B5B78354A4FEAC303D3180C
:100C90003A4603F1040393E8030082E80300304B73
:100CA0005B7803F101012F4B83FB01234FEA6302C1
:100CB0004FEAE173D21A13464FEA83039B18CA1A0C
:100CC000D2B2274B5A70264B1B7803F1FF33DAB2AE
:100CD000234B1A7000F080FB3B7803F1FF33032BAA
:100CE00024D801A252F823F0F90C0008030D0008E3
:100CF000110D00081B0D00087B78184600F08CFDD4
:100D000015E07A787B681046194600F085F80EE009
:100D10007B78184600F0FCFB09E07A787B68104687
:100D2000194600F093FB02E000BF00E000BF0C4B4F
:100D30001B78002BA4D100F055FB094B1B78002B2E
:100D400003D1094B4FF000021A7000F045FB07F188
:100D50000807BD4680BD00BFD5020020D602002096
:100D6000A802002067666666D402002080B584B0C1
:100D700000AF7860FB6803F10103FB604FF03200C5
:100D800000F066F9F6E700BF80B584B000AF786088
:100D9000FB6803F10103FB604FF0320000F058F9EB
:100DA000F6E700BF80B584B000AF7860FB6803F160
:100DB0000103FB604FF0320000F04AF9F6E700BF94
:100DC00080B500AFFFF72EFA0D484FF000014FF449
:100DD00000420C4BFFF758FE0B484FF0000148F261
:100DE00001020A4BFFF750FE09484FF0000148F29C
:100DF0000202084BFFF748FEFFF756FAFEE700BF76
:100E00006D0D00083C0A0020890D00083C060020FA
:100E1000A50D00083C08002080B584B000AF034653
:100E20003960FB71FB79132B02D94FF001032CE0E1
:100E3000FB794FEA0312174BD318FB60FB685B7911
:100E400003F00F03DBB2022B02D04FF001031CE0D2
:100E5000FB68DB88002B16D10F4B1B78DBB203F14C
:100E60000103DAB20C4B1A70FB683A681A60FB682F
:100E70004FF00102DA80F86800F0C4F9FFF7AAF930
:100E80004FF0000301E04FF00703184607F1100789
:100E9000BD4680BDDC020020E500002080B485B0A6
:100EA00000AF786039603B68002B67D0364B1B6819
:100EB000002B06D17B683A681A62334B7A681A6055
:100EC00053E0314B1B68BB603B68FB604AE0FA684B
:100ED000BB681B6AD31AFB60FB68002B2EDABB6869
:100EE0009B6A002B0ED0BB689B6A7A685A62BB680B
:100EF0009A6A7B689A627B68BA685A62BB687A6849
:100F00009A620AE0204B1A687B685A621E4B1B6883
:100F10007A689A621C4B7A681A607B685B6A1A6A04
:100F2000FB68D2187B681A627B685B6A7A68526ACF
:100F3000116A7A68126A8A1A1A6216E0FB68002B34
:100F40000DDBBB685B6A002B09D17B68BA689A62CB
:100F5000BB687A685A62FA687B681A6205E0BB6807
:100F60005B6ABB60BB68002BB1D17B684FF00202AB
:100F70005A71064B4FF001021A7000E000BF07F1F2
:100F80001407BD4680BC7047D8020020E600002050
:100F900080B483B000AF78607B689B6A002B08D177
:100FA0007B685B6A002B04D1284B4FF000021A606B
:100FB00043E07B689B6A002B16D17B685A6A234BFF
:100FC0001A607B685B6A7A68526A116A7A68126A88
:100FD0008A181A627B685B6A4FF000029A627B682B
:100FE0004FF000025A6228E07B685B6A002B09D14F
:100FF0007B689B6A4FF000025A627B684FF00002E8
:101000009A621AE07B689B6A7A68526A5A627B68C5
:101010005B6A7A68926A9A627B685B6A7A68526AEB
:10102000116A7A68126A8A181A627B684FF00002A5
:101030005A627B684FF000029A627B684FF0FF3281
:101040001A6207F10C07BD4680BC7047D802002029
:1010500080B582B000AF7860194B1B78DBB2002BF3
:1010600002D04FF0030326E07B68B3F1FF3F02D1CB
:101070004FF002031FE07B68002B02D14FF000030A
:1010800019E0104B1B78DBB2002B02D04FF0150398
:1010900011E00C4B1B78DBB203F10103DAB2094B10
:1010A0001A70094B1B6818467968FFF7F7FEFFF7BF
:1010B00091F84FF00003184607F10807BD4680BDC0
:1010C000E4000020E50000209802002080B582B0F6
:1010D00000AF1C4B1B687B6028E07B681B7AFF2BF2
:1010E00002D0786800F022F97B68DB69002B04D01D
:1010F0007B68DB69184600F0C3FA7B684FF0FF326B
:101100001A627B685A6A0F4B1A607B684FF00002C4
:101110005A627868FFF710FB0A4B1B687B607B689C
:10112000002B03D07B684FF000029A627B68002B93
:1011300003D07B681B6A002BCFD007F10807BD46A0
:1011400080BD00BFD802002080B500AF084B1B78DF
:10115000DBB2012B08D9074B4FF001021A70064B86
:101160004FF001021A7001E0FFF7B0FF80BD00BF31
:10117000E5000020D4020020D502002080B485B014
:1011800000AF4FF00003FB731B4BBB601B4B7B603E
:1011900018E0BB687A681A60BB68FA7B1A71BA6893
:1011A00053794FF0040161F303035371BB6803F1FA
:1011B0001003BB607B6803F110037B60FB7B03F1D2
:1011C0000103FB73FB7B122BE3D9BA6853794FF011
:1011D000040161F303035371BB684FF000021A600E
:1011E000BB68FA7B1A71064B034A1A6007F11407B1
:1011F000BD4680BC704700BFDC020020EC0200202E
:101200001C04002080B584B000AF78607B68DB6888
:10121000FB60FB68002B00F08180FB685A697B68EB
:10122000DA607B68DB68002B04D07B68DB684FF0FA
:1012300000029A61FB684FF000025A61FB684FF0B0
:10124000FF021A72FB681B6AB3F1FF3F02D0F86815
:10125000FFF79EFE7B685B7903F00F03DBB2022B86
:101260000FD17B681A68FB681A617B684FF0000237
:101270001A607B68DB8803F1FF339AB27B68DA80FF
:101280003EE07B685B7903F00F03DBB2032B25D1D3
:101290007B681B68BB60BB681A68BB68DB884FEA69
:1012A0008303D3181A68FB681A61BB68DB8803F1F3
:1012B00001039AB2BB68DA80BB689B8903F1FF33F4
:1012C0009AB2BB689A81BB68DA88BB685B899A422C
:1012D00016D1BB684FF00002DA8011E07B685B79C1
:1012E00003F00F03DBB2012B0AD17B68DB8803F12B
:1012F000FF339AB27B68DA80FB684FF0FF321A61E5
:10130000094B1B68FA689A4204D1FB684FF001024E
:101310005A7104E0F868FFF70FFA00E000BF07F128
:101320001007BD4680BD00BF9802002080B485B084
:1013300000AF78607B681B7A4FEA0312254BD31805
:10134000FB607B685B69002B08D17B689B69002B85
:1013500004D1FB684FF00002DA6031E07B689B69E2
:10136000002B0DD17B685B694FF000029A617B68AE
:101370005A69FB68DA607B684FF000025A611FE02F
:101380007B685B69002B09D17B689B694FF0000289
:101390005A617B684FF000029A6111E07B689B699B
:1013A0007A6852695A617B685B697A6892699A6166
:1013B0007B684FF000029A617B684FF000025A612F
:1013C0007B684FF0FF021A7207F11407BD4680BC1C
:1013D000704700BFDC02002080B400AF62B6BD469B
:1013E00080BC704780B400AF72B6BD4680BC704709
:1013F000A0F11C0080F30988704700BF024B1B68F6
:10140000024A1168196070470000002004000020A3
:101410000B4B19680B4A126891420AD0EFF309800E
:1014200020E9F00F08601A601068B0E8F00F80F350
:101430000988054B002018704EF0040E704700001C
:101440009802002094020020E500002080B584B0BE
:1014500000AF03463960FB71FB79132B02D94FF0C3
:1014600001034BE0FB794FEA0312274BD318FB60D3
:10147000FB685B7903F00F03DBB2032B02D04FF064
:1014800001033BE0FB681B68BB60BB689A89BB68D3
:101490005B899A4202D14FF008032FE01B4B1B7867
:1014A000DBB203F10103DAB2184B1A70BB681A6899
:1014B000BB681B894FEA8303D3183A681A60BB687C
:1014C0001B8903F101039AB2BB681A81BB689B892F
:1014D00003F101039AB2BB689A81BB681A89BB68A1
:1014E0005B899A4203D1BB684FF000021A81F86809
:1014F000FFF788FEFEF76EFE4FF00003184607F177
:101500001007BD4680BD00BFDC020020E5000020C2
:1015100080B584B000AF0346FB71414BBB60FB79E3
:101520001F2B02D94FF0010374E0BB689A68FB7966
:101530004FF0010101FA03F302EA0303002B02D189
:101540004FF0010366E0BB681A68FB794FF00101B8
:1015500001FA03F302EA0303002B02D04FF0000369
:1015600058E0BB681A68FB794FF0010101FA03F3F8
:101570001A43BB681A602B4B1B78DBB203F10103E3
:10158000DAB2284B1A70BB68DB68FB603BE0FB6893
:101590001B7C002B18D1FB689A68BB681B681A403B
:1015A000FB689B689A4227D1F86800F03DF8F86024
:1015B000BB685A68FB794FF0010101FA03F302EAB4
:1015C0000303002B1CD021E0FB689A68BB681B68F2
:1015D00002EA0303002B0FD0F86800F025F8F8604A
:1015E000BB685A68FB794FF0010101FA03F302EA84
:1015F0000303002B06D009E0FB681B68FB6002E0D8
:1016000000BF00E000BFFB68002BC0D1FEF7E2FD89
:101610004FF00003184607F11007BD4680BD00BF1C
:1016200020040020E500002080B584B000AF786081
:10163000786800F025F87B68DB68FB60FB681B6A54
:10164000B3F1FF3F02D0F868FFF7A2FCFB684FF050
:10165000FF32DA61094B1B68FA689A4204D1FB68D1
:101660004FF001025A7102E0F868FFF765F87B68F5
:101670001B68184607F11007BD4680BD9802002080
:1016800080B483B000AF78607B681B68002B0CD1FE
:101690007B685B68002B08D11C4B4FF00002DA60BE
:1016A0001A4B4FF000021A6125E07B681B68002B83
:1016B00009D17B685A68154B1A617B685B684FF0EB
:1016C00000021A6017E07B685B68002B09D17B6819
:1016D0001A680E4BDA607B681B684FF000025A6094
:1016E00009E07B681B687A6852685A607B685B68AF
:1016F0007A6812681A607B68DB684FF00002DA6172
:1017000007F10C07BD4680BC704700BF20040020D5
:1017100080B487B000AFF860B9607A607B687B61A5
:101720007B694FF080721A607B69A3F104037B61CF
:10173000FA687B691A607B69A3F104037B617B69AA
:101740006FF001021A607B69A3F114037B61BA6830
:101750007B691A607B69A3F120037B617B69184672
:1017600007F11C07BD4680BC704700BF80B500AFC5
:10177000244B1B78DBB203F10103DAB2214B1A7060
:10178000214BD3E900014FF001024FF00003121882
:1017900043EB01031C49C1E900231C4B1B68002BD0
:1017A00012D01A4B1B681B6A012B06D9174B1B68FA
:1017B0001A6A02F1FF321A6206E0144B1B684FF0FE
:1017C00000021A62FFF7C0FC114B1B68002B12D0FD
:1017D0000F4B1B685B68012B06D90D4B1B685A68C1
:1017E00002F1FF325A6006E0094B1B684FF000021D
:1017F0005A60FEF74DFF074B4FF001021A70FEF7DB
:10180000E9FC80BDE500002038040020D80200205B
:1018100018010020E600002080B584B000AF034628
:10182000FB71FB79132B02D94FF001032EE0FB79FA
:101830004FEA0312184BD318FB60FB685B7903F087
:101840000F03DBB2012B02D04FF001031EE0FB6857
:10185000DA88FB681B899A4202D14FF0060315E033
:101860000E4B1B78DBB203F10103DAB20B4B1A709B
:10187000FB68DB8803F101039AB2FB68DA80F86841
:10188000FFF7C0FCFEF7A6FC4FF00003184607F177
:101890001007BD4680BD00BFDC020020E50000202F
:1018A00080B483B000AF7860FEE700BF80B483B03F
:0818B00000AF0346FB71FEE7E7
:0C18B80004ED00E000000010FCFFFFFF4A
:0400000508000000EF
:00000001FF
