:1000000000200020350B0000790B0000790B000068
:1000100000000000000000000000000000000000E0
:10002000000000000000000000000000790B00004C
:100030000000000000000000790B0000790B0000B8
:10004000790B0000790B0000790B0000790B0000A0
:10005000790B000061040000790B0000790B0000AF
:10006000790B0000790B0000790B0000790B000080
:10007000790B0000790B0000790B0000790B000070
:10008000790B0000790B000000000000790B0000E4
:10009000790B0000790B0000790B0000790B000050
:1000A000790B0000790B0000790B0000790B000040
:1000B000790B000000000000790B00000000000038
:1000C0005FF808F180B582B000AF78600A1CFB1CB5
:1000D0001A70FB1C1B78002B07D0094B084A526989
:1000E000111C7A680A435A6106E0054B044A5269BA
:1000F0007968C9430A405A61BD4602B080BDC04616
:100100000010024090B583B000AF021CFB1D1A70B6
:10011000002445E0FB1D1B785BB2002B0BDA90231B
:10012000DB059022D205928A92B28021C9000A434F
:1001300092B29A8209E09023DB059022D205928A3E
:1001400091B21B4A0A4092B29A82FB1DFA1D1278A4
:1001500052001A709023DB051B8A9BB21A1C802365
:100160001B01134005D0FB1DFA1D127801210A4323
:100170001A709023DB059022D205928A92B28021D8
:1001800049010A4392B29A829023DB059022D2055C
:10019000928A91B2074A0A4092B29A82631CDCB2F8
:1001A000072CB7D9FB1D1B78181CBD4603B090BDAA
:1001B000FFFBFFFFFFEFFFFF80B582B000AF0A1C1F
:1001C000FB1D011C1970BB1D1A709023DB059022CA
:1001D000D205928A91B20E4A0A4092B29A82FB1DCF
:1001E0001B78181CFFF78EFFBB1D1B78181CFFF730
:1001F00089FF9023DB059022D205928A92B280215A
:1002000089000A4392B29A82BD4602B080BDC046C0
:10021000FFFDFFFF90B585B000AF021CFB1D1A70FB
:100220009023DB059022D205928A91B2104A0A40AF
:1002300092B29A82FB1D1B78181CFFF763FF3C1CCF
:100240000F340020FFF75EFF031C23709023DB05B3
:100250009022D205928A92B2802189000A4392B2FA
:100260009A823B1C0F331B78181CBD4605B090BD0D
:10027000FFFDFFFF80B584B000AF3960FB1D011C9E
:100280001970BB1D1A709023DB059022D205928A4B
:1002900091B2194A0A4092B29A82FB1D1B78181C2F
:1002A000FFF730FF3B1C0F3300221A700EE03B6853
:1002B0001B783A6801323A60181CFFF723FF3B1C99
:1002C0000F333A1C0F32127801321A703A1C0F3277
:1002D000BB1D12781B789A42E9D39023DB0590224C
:1002E000D205928A92B2802189000A4392B29A8200
:1002F000BD4604B080BDC046FFFDFFFF90B583B092
:1003000000AFE2200021FFF757FFFC1D0720FFF799
:1003100081FF031C2370FB1D1B782720191CFFF78E
:100320004BFF9023DB059022D205928A91B2124AAC
:100330000A4092B29A82FC1D0020FFF76BFF031C5B
:100340002370FB1DFA1D127801210A431A70FB1D50
:100350001B782020191CFFF72FFF9023DB0590222C
:10036000D205928A92B2802149000A4392B29A82BF
:10037000BD4603B090BDC046FFFEFFFF90B583B001
:1003800000AFE1200021FFF717FF9023DB0590224B
:10039000D205928A91B2124A0A4092B29A82FC1D08
:1003A0000020FFF737FF031C2370FB1DFA1D127896
:1003B00001218A431A70FB1D1B782020191CFFF7AE
:1003C000FBFE9023DB059022D205928A92B2802117
:1003D00049000A4392B29A82BD4603B090BDC0461E
:1003E000FFFEFFFF90B585B000AF021CFB1D1A7029
:1003F0003C1C0F340720FFF70DFF031C23703B1C30
:100400000F333A1C0F3212787F218A431A703B1C3B
:100410000F331B78002B03D0FB1D1B78002B08D05B
:100420003B1C0F331B78002B07D1FB1D1B78002BC7
:1004300003D050205321FFF7BFFEBD4605B090BD4D
:1004400080B582B000AF021CFB1D1A70FB1D1B782B
:100450002520191CFFF7B0FEBD4602B080BDC04686
:1004600098B500AF0D4B5B691A1C01231340DBB23A
:10047000002B11D00720FFF7CDFE031C1C1C221CF3
:100480004023134002D0064B01221A70034B034A4B
:10049000526901210A435A61BD4698BD00040140DA
:1004A0000000002090B587B000AF00F073FA802301
:1004B0009B02181C0121FFF705FE9023DB0590220B
:1004C000D2051268D1490A431A609023DB059022B5
:1004D000D2059268CE490A439A609023DB059022A8
:1004E000D205928A92B2802189000A4392B29A82FE
:1004F0009023DB059022D205928A91B2C54A0A4028
:1005000092B29A823B1C143300221A8006E03B1CF4
:1005100014333A1C1432128801321A803B1C1433F3
:100520001A88BD4B9A42F2D90020FFF75BFF3B1CB3
:10053000173300221A701CE03B1C17331A78B74B94
:100540005200D35C20221343DAB23B1C17331978D4
:10055000B248012349004118CB181B78101C191C04
:10056000FFF72AFE3B1C17333A1C17321278013270
:100570001A703B1C17331B78132BDDD93B1C163329
:1005800000221A7010E03B1C16331B783A1C1632FE
:100590001278A349895C3A1DD1543B1C16333A1C8E
:1005A0001632127801321A703B1C16331B78042B5A
:1005B000E9D93B1D2A20191C0522FFF75BFE3B1CD5
:1005C000163300221A7010E03B1C16331B783A1CBD
:1005D000163212789349895C3A1DD1543B1C16336C
:1005E0003A1C1632127801321A703B1C16331B78F3
:1005F000042BE9D93B1D2B20191C0522FFF73AFEDD
:100600003B1C163300221A7010E03B1C16331B787B
:100610003A1C163212788249895C3A1DD1543B1C2F
:1006200016333A1C1632127801321A703B1C1633FC
:100630001B78042BE9D93B1D3020191C0522FFF73C
:1006400019FE3C1C17341D20FFF7E4FD031C23702A
:100650003B1C17331B78002B03D150207321FFF76D
:10066000ABFD3B1C173316221A701CE03B1C1733E2
:100670001A786A4B5200D35C20221343DAB23B1C37
:10068000173319786548012349004118CB181B78A6
:10069000101C191CFFF790FD3B1C17333A1C173236
:1006A0001278013A1A703B1C17331B78142BDDD8D3
:1006B0000120FFF797FE3B1C173300221A7036E02B
:1006C0003B1C163300221A7019E03B1C16331B78B2
:1006D0003A1C17321178544A890089583A1C16324C
:1006E0001278D200081CD040021CD1B23A1DD1545D
:1006F0003B1C16333A1C1632127801321A703B1C1E
:1007000016331B78032BE0D93B1C17331B782022B0
:100710001343DAB23B1D101C191C0422FFF7AAFD7B
:100720003B1C17333A1C1732127801321A703B1CEB
:1007300017331B78082BC3D93B1C173309221A70B7
:1007400038E03B1C163300221A701BE03B1C1633AA
:100750001B783A1C17321178334A890089583A1CA1
:10076000163212780320821AD200081CD040021CD4
:10077000D1B23A1DD1543B1C16333A1C16321278B2
:1007800001321A703B1C16331B78032BDED93B1C3D
:1007900017331B7820221343DAB23B1D101C191C9F
:1007A0000422FFF767FD3B1C17333A1C17321278FF
:1007B00001321A703B1C17331B780D2BC1D93B1C1F
:1007C000163300221A7010E03B1C16331B783A1CBB
:1007D000163212781549895C3A1DD1543B1C1633E8
:1007E0003A1C1632127801321A703B1C16331B78F1
:1007F0000A2BE9D93B1D2E20191C0B22FFF73AFDCD
:100800003B1C163300221A7028E0C0460000150178
:1008100000003F03FFEAFFFFC7AF0000280D000004
:10082000580D0000600D0000E40C00001C0D0000DD
:100830003B1C16331A78264B19693B1C16331B7860
:10084000DB00081CD840031CD9B23B1D99543B1C4B
:1008500016333A1C1632127801321A703B1C1633CA
:100860001B78032BE4D93B1D1B7806221343DAB215
:100870003B1D1A703B1D2420191C0422FFF7FAFCB3
:100880003B1D1B7806229343DAB23B1D1A703B1DB9
:100890002420191C0422FFF7EDFC3B1C123300221C
:1008A0001A8006E03B1C12333A1C123212880132C5
:1008B0001A803B1C12331A88064B9A42F2D9002048
:1008C000FFF790FDFFF71AFDBD4607B090BDC0468B
:1008D000E40C00001F4E000080B584B000AF39600A
:1008E000FB1D011C1970BB1D1A703B1C0E3301222D
:1008F00052421A80C0461720FFF78CFC031C1A1CBA
:10090000202313400ED03B1C0E331B885A1E9341EC
:10091000DBB23A1C0E32391C0E31098801391180C4
:10092000002BE8D1FFF72AFDFB1D19783A68BB1DA3
:100930001B78081C111C1A1CFFF79CFC3B1C0E3377
:10094000012252421A80C0461720FFF763FC031CA5
:100950001A1C102313400ED13B1C0E331B885A1E49
:100960009341DBB23A1C0E32391C0E310988013931
:100970001180002BE8D1FFF7C1FC3B1C0E331B8814
:10098000002B01D0002300E00123181CBD4604B059
:1009900080BDC04680B582B000AF164B154A526983
:1009A0008021C9020A435A61124B124A92690121FD
:1009B0000A439A61104B0122DA60104B0F4A126809
:1009C00001210A431A600D4B0C4AD26801210A43E7
:1009D000DA603B1D05221A703B1D00225A703B1D38
:1009E00001229A703B1D181C00F026F9BD4602B08A
:1009F00080BDC046001002400000014000040140DC
:100A000090B58FB000AF3B1C474A13CA13C313CA3B
:100A100013C313CA13C303CA03C312781A703B1C4F
:100A2000373300221A7080231B03181C0121FFF7A3
:100A300049FB3E4B3D4A1268802149020A431A6035
:100A40003A4B3A4A9268C02189020A439A60374B6E
:100A5000364A928A92B2802149000A4392B29A821F
:100A6000FFF720FD2920FFF7EBFC3B1CB020191CF1
:100A70002022FFF731FF3B1C37331B7811229A42AB
:100A80009B415B42DBB23A1C3732391C3731097863
:100A900001311170002B0ED0244B244A928A92B25D
:100AA000802149004A4092B29A823B1C373300228F
:100AB0001A7000E0C04600233B6302E03B6B013349
:100AC0003B633A6B1A4B9A42F8D9184B174A928AF1
:100AD00092B2802149004A4092B29A823B1CB020D7
:100AE000191C2022FFF7F8FE3B1C37331B7811221C
:100AF0009A429B415B42DBB23A1C3732391C373198
:100B0000097801311170002BD4D0084B074A928A22
:100B100092B2802149004A4092B29A823B1C3733FC
:100B200000221A70C6E7C046680D000000080048A1
:100B3000FF340C00002103E00A4B5B5843500431A2
:100B400009480A4B42189A42F6D3094A02E00023A8
:100B500013600432074B9A42F9D300F00FF8FFF705
:100B60004FFF7047980D000000000020000000209B
:100B70000000002028000020FEE7000080B500AF44
:100B80001D4B1D4A126801210A431A601A4B1A4A6A
:100B90005268111C194A0A405A60174B164A1268CB
:100BA000111C174A0A401A60134B134A1268111C91
:100BB000144A0A401A60104B0F4A5268111C124A1C
:100BC0000A405A600C4B0C4AD26A0F218A43DA62FF
:100BD000094B094A126B111C0C4A0A401A63064B56
:100BE000054A526B01218A435A63034B00229A60E3
:100BF00000F00EF8BD4680BD001002400CB8FFF8B2
:100C0000FFFFF6FEFFFFFBFFFFFFC0FFACFEFFFF95
:100C100080B500AF064B10221A60064B054A526899
:100C20005A60044B034A52685A60BD4680BDC046B4
:100C3000002002400010024080B584B000AF786010
:100C40000023FB607B689B78002B3CD0244B7A68A8
:100C500012789208D2B2C0329200D358FB607B68FF
:100C60001B781A1C03231340DB00FF22101C984042
:100C7000031CDA43FB681340FB607B685B789A01D6
:100C8000FF231A407B681B78191C03230B40DB00F1
:100C9000111C99400B1CFA681343FB60104B7A68D7
:100CA00012789208D2B2C0329200F968D1500C4B3F
:100CB0007A681278111C1F220A400121081C9040FA
:100CC000021C1A6009E0064A7B681B78191C1F2366
:100CD0000B40012199408023D150BD4604B080BD16
:100CE00000E100E0404B01E2C04B0000D0FC8C0270
:100CF00099003941F99E860B24067FA6000000006A
:100D000000000000000000000000000000000000E3
:100D100000000000007312000080B4364120080477
:100D20008120CFF7FEFFFF00000F013F023F0303CA
:100D300004FF051706170707080009000CC30DC4B8
:100D40000EC50FC6112012201320142015201620C6
:100D500017001C3F1D070000344310100100000065
:100D600039383736C20000007468652072656173D7
:100D70006F6E2077687920796F752772652073749C
:100D80007570696420697320746F6F206D75636876
:080D90002073756E00000000E5
:00000001FF
